:020000040800F2
:10000000385100205D020008FB220008B11F0008E3
:10001000F92200088D0300080529000800000000EF
:100020000000000000000000000000009D0100082A
:100030005504000800000000F9010008B52300087D
:1000400077020008770200087702000877020008AC
:1000500077020008770200087D050008A90500085E
:10006000B1050008F5050008390600087702000808
:1000700091030008770200089D030008770200083A
:10008000A9030008B50300087702000877020008FA
:100090007702000877020008770200087D06000852
:1000A000770200087702000877020008770200084C
:1000B000770200087702000877020008770200083C
:1000C000770200087702000877020008770200082C
:1000D000770200087702000877020008770200081C
:1000E00083050008770200087702000877020008FD
:1000F00077020008FD240008770200087702000854
:1001000077020008770200087702000877020008EB
:1001100077020008770200087702000877020008DB
:100120007702000877020008C10300087702000880
:1001300077020008770200087702000877020008BB
:1001400077020008770200087702000877020008AB
:100150007702000877020008CD0300087702000844
:10016000770200087702000877020008770200088B
:1001700077020008770200087702000800000000FC
:100180007702000877020008DFF80CD000F0ECF8E6
:100190000048004745290008385100202C4B1968B9
:1001A0000868B0E8F04F80F30988BFF36F8F4FF015
:1001B000000080F3118870470000000008480068C4
:1001C000006880F308884FF0000080F3148862B65E
:1001D00061B6BFF34F8FBFF36F8F00DF00BF00BF6B
:1001E00008ED00E0DFF80C00016841F470010160E7
:1001F000704700BF88ED00E0EFF30980BFF36F8F19
:10020000134B1A681EF0100F08BF20ED108A20E96A
:10021000F04F106009B44FF0500080F31188BFF325
:100220004F8FBFF36F8F03F02BFB4FF0000080F375
:10023000118809BC19680868B0E8F04F1EF0100F6B
:1002400008BFB0EC108A80F30988BFF36F8F704746
:1002500020000020EFF3058070470000064880472B
:1002600006480047FEE7FEE7FEE7FEE7FEE7FEE79B
:10027000FEE7FEE7FEE7FEE7E1240008890100084B
:100280002DE9F05F0546002092469B4688460646CB
:10029000814640241BE0284641464746224600F05E
:1002A00053F853465A46C01A914110D31146184686
:1002B000224600F03AF82D1A67EB01084F46224615
:1002C0000120002100F031F817EB00094E41201EFB
:1002D000A4F10104DFDC484631462A464346BDE826
:1002E000F09F40EA01039B0703D009E008C9121FF1
:1002F00008C0042AFAD203E011F8013B00F8013BE0
:10030000521EF9D27047D2B201E000F8012B491E0B
:10031000FBD270470022F6E710B513460A460446A2
:100320001946FFF7F0FF204610BD202A04DB203AD3
:1003300000FA02F1002070479140C2F1200320FA38
:1003400003F3194390407047202A04DB203A21FA36
:1003500002F00021704721FA02F3D040C2F12002DE
:100360009140084319467047064C074D06E0E06887
:1003700040F0010394E8070098471034AC42F6D3EC
:10038000FFF706FF5843000878430008FEE7000027
:10039000014800F0F9B9000060030020014800F0B6
:1003A000F3B90000C0030020014800F0EDB90000DF
:1003B000A0020020014800F0E7B90000000300207F
:1003C000014800F0E1B90000E0010020014800F020
:1003D000DBB900004002002001681823CAB2103ABD
:1003E000B2FBF3F2054B6FF30901032A9B5CC36573
:1003F00000D9091D816508467047000018430008B0
:1004000010B5014600208B698A6A4FF0C07453B161
:10041000B3F5005F15D072B1012A0CD0022A0AD0C0
:10042000032A09D104E01AB1012A06D0022A03D115
:10043000C96AC90100D5012010BDC96AA142FAD01C
:1004400010BD002AF7D0012AF2D0022AF3D0032AE5
:10045000F3D010BD704700002DE9F041044621B1F2
:100460004FF40060E060C000A060E0690025002853
:1004700061D028462368402619683A4A1140D4E9D9
:1004800002273A43024342F4007008431860206890
:100490000768012000F0B2FA206807602068466013
:1004A00020684668012000F0A9FA206846602068AC
:1004B00085602068C560216888694FF641721040E8
:1004C00040F08000886120688669012000F096FA7B
:1004D000206886612068C5612068C569012000F038
:1004E0008DFA2068C561226802F5805290691E4924
:1004F00008401E4901439161206800F580508569DC
:10050000012000F07BFA206800F5805085612068AA
:10051000174900F580500160206800F5805005689B
:10052000012000F06BFA206800F580500560A0699A
:10053000012803D009E04FF480609BE7206800F5B4
:100540008050C1690B4A1143C16160690A498288C0
:100550000A640278D0F8010042EA00204864BDE84D
:10056000F08100000F8120FF233FDEF8040020020D
:100570008020C1024000010000800240012000F004
:100580009DBC10B54FF4806000F098FC4FF4006003
:1005900000F094FC4FF4805000F090FCBDE8104057
:1005A0004FF4005000F08ABC022000F087BC00002D
:1005B00010B5042000F082FC0D4C2068400715D5D2
:1005C000012000F01BFA0420206008202060102089
:1005D00020602020206080202060400020604000BB
:1005E0002060BDE81040042000F0FABB10BD000000
:1005F000143C014010B5082000F060FC0D4C206850
:10060000000715D5012000F0F9F90420206008202A
:10061000206010202060202020608020206040008A
:10062000206040002060BDE81040082000F0D8BBEA
:1006300010BD0000143C014010B5102000F03EFC3D
:100640000D4C2068C00615D5012000F0D7F9042014
:100650002060082020601020206020202060802062
:1006600020604000206040002060BDE81040102065
:1006700000F0B6BB10BD0000143C01402DE9F05F56
:10068000202000F01BFC802000F018FC4FF4807448
:10069000204600F013FC6500284600F00FFCDFF850
:1006A000E0B0DBF800004FF0200680064FF0800736
:1006B0004FF004084FF008094FF0100A13D501203D
:1006C00000F09CF9CBF80080CBF80090CBF800A0AC
:1006D000CBF80060CBF80070CBF80040CBF80050AE
:1006E000202000F07DFBDBF80000000613D5012080
:1006F00000F084F9CBF80080CBF80090CBF800A094
:10070000CBF80060CBF80070CBF80040CBF800507D
:10071000802000F065FBDBF80000C00513D5012048
:1007200000F06CF9CBF80080CBF80090CBF800A07B
:10073000CBF80060CBF80070CBF80040CBF800504D
:10074000204600F04DFBDBF80000800515D50120A8
:1007500000F054F9CBF80080CBF80090CBF800A063
:10076000CBF80060CBF80070CBF800402846CBF8FF
:100770000050BDE8F05F00F033BBBDE8F09F000023
:10078000143C0140704700002DE9F84304464FF047
:100790000009CDF8009063484FF41651A56D00682C
:1007A000B0FBF1F72E6894F85C10082000FA01F114
:1007B00031420FD021680A6852070BD50A6822F02F
:1007C00004020A6094F85C108840A860606D40F0F4
:1007D0000100606594F85C104FF0010808FA01F020
:1007E000304208D021684969090604D5A860606DC7
:1007F00040F00200606594F85C10042088403042AC
:1008000008D021680968890704D5A860606D40F0A8
:100810000400606594F85C1010208840304218D0C5
:1008200021680968090714D5A86020680168490390
:1008300004D50068000308D5A16C07E00168C9056C
:1008400003D4016821F008010160216C09B1204640
:10085000884794F85C1020208840304231D02168CD
:100860000968C9062DD5A86094F8350005282068C8
:10087000016806D0490347D5006800031DD4616CA8
:100880001CE021F0160101602068416921F080011F
:100890004161206C08B9A06C20B12068016821F08A
:1008A0000801016094F85C103F208840A86084F83B
:1008B000349084F83580216D1FE0E16B09B120464A
:1008C0008847606D00282BD0606DC00714D00520CC
:1008D00084F835002068016821F00101016000986A
:1008E000401C0090B84203D820680068C007F6D1C9
:1008F00084F8349084F83580E16C002910D001B080
:100900002046BDE8F04308470168C905D5D4016811
:1009100021F01001016084F8349084F83580CCE730
:10092000BDE8F8831C0000202DE9F041044600F0EA
:10093000BFFB06465CB1002584F83450022084F8E1
:1009400035002068016821F0010101600DE00120FF
:10095000BDE8F08100F0ACFB801B052805D9202004
:100960006065032084F83500F2E720680068C0075E
:10097000F0D12268116820480140D4E901031843EE
:10098000D4E903363343184363691843A369184312
:10099000E3691843236A18430843616A042903D1B1
:1009A000D4E90B1319430843106020684069666A54
:1009B00020F0070130460E43012704280CD1A06A1D
:1009C0000643E06A40B12046FFF71AFD20B14020FF
:1009D000606584F83570BAE7206846612046FFF705
:1009E000FBFC94F85C203F2191408160656584F8B0
:1009F00035700020ACE700003F8010F070B5044671
:100A000000F056FB0546601C02D004480078044400
:100A100000F04EFB401BA042FAD370BD1000002036
:100A20002DE9FC474FF000060400B146009603D0C4
:100A300094F8440018B107E00120BDE8FC8784F871
:100A40004560204600F0E2F86648016841F48041C4
:100A50000160006800F4804001906348016821F45F
:100A6000000101600168226A11430160206800F5FD
:100A70008050016841F00101016000F019FB05465A
:100A80004FF4FA7709E000BF00F012FB401BB842B8
:100A900003D9032004F8440F67E0206800F5805074
:100AA0000068C007F0D12068006920F01C0500F044
:100AB00073FC4E494E4A0144914202D245F008056A
:100AC00016E04C494C4A0144914202D245F00C05D3
:100AD0000EE04A494A4A0144914209D3494908442F
:100AE0004949884202D245F0040501E045F010056D
:100AF000206805614FF400420021204600F034F9DF
:100B00000125A8BBFF20FFF779FF606888B300F0DC
:100B1000CFFA804641F288376A460121204600F02C
:100B2000E1F800F0C5FAA0EB0800B84217D8009829
:100B30004007F1D54FF480520021204600F014F90F
:100B4000B0B900F0B5FA80466A460121204600F0AF
:100B5000C9F800F0ADFAA0EB0800B8420AD90121AB
:100B60002046FFF779FC04F8445F0320667064E7D1
:100B700024E018E000988006E6D56A461F2120464A
:100B800000F0B0F8D0B90098C10603D54FF4006169
:100B9000E16000E0E660400701D5A66019E04FF48F
:100BA0008040A06015E0E068A168C00840EA5100FC
:100BB00082B20021204600F0D7F830B10121204652
:100BC000FFF74AFC84F8445036E740F6FF70FFF721
:100BD00015FF49462046FFF73FFC84F844500020AB
:100BE0002BE70000443802400438014000D3CEFE19
:100BF000C0E1E40040F1E9FD40787D0100796CFC42
:100C0000005A6202001F0AFA80F0FA02F0B587B0BB
:100C1000044614216846FFF77DFB2D492068884271
:100C200053D12C480024016841F000710160016833
:100C300001F000710591016841F080610160016877
:100C400001F080610591016841F000610160016877
:100C500001F000610591016841F004010160016843
:100C600001F004010591016841F001010160016892
:100C700001F001010591016841F002010160006885
:100C8000022500F0020005903220CDE9000502AAFD
:100C900003260B2782E8D00069460F4800F01AF9B6
:100CA0008620CDE9000502AA694682E8D0000B48FB
:100CB00000F010F94FF46050CDE9000502AA694632
:100CC00082E8D000064800F005F907B0F0BD00004A
:100CD000008002403038024000080240000002401C
:100CE000000402402DE9F047044690F84400914684
:100CF00082281DD0822084F84400226810694FF6B3
:100D0000FF7500F01C03208A05EAC02018434FF449
:100D1000F86303EA8111014321F0020040F001056C
:100D2000156100F0C5F9064601274FF4803810E040
:100D30000220BDE8F08700BF00F0BAF9801B4045F3
:100D400005D304F8447F002060700320F1E7206899
:100D50000569E807F0D12068406981B2C9F8001040
:100D600084F844700020E4E72DE9F041044690F84F
:100D7000440042281ED0422084F8440023681869A9
:100D80004FF6FF7600F01C05208A06EAC0202843B3
:100D90004FF4F86505EA8111014390B241F0030573
:100DA00058612068056100F083F9064601274FF479
:100DB000803810E00220BDE8F08100BF00F078F933
:100DC000801B404505D304F8447F00206070032059
:100DD000F1E720680569E807F0D184F84470EAE794
:100DE0002DE9F04104285ED008285CD010285AD0A4
:100DF000202858D0802856D04FF48076B04252D068
:100E0000B0F5007F4FD0294D294F01280ED0022880
:100E100015D02915274A284C88421AD1104600F0CF
:100E200035F901283FD10022802137E001212846F1
:100E300000F02CF9012836D10022202107E0022100
:100E4000284600F023F901282DD100220821384638
:100E500025E04FF40061884209D10C46104600F0AD
:100E600015F901281FD100222146284617E04FF42A
:100E70008051884207D1104600F008F9012812D1AC
:100E800000223146E3E74FF4005188420BD110466F
:100E900000F0FCF8012806D1002240212046BDE8E0
:100EA000F04100F0FFB8BDE8F0810000000C024006
:100EB000000002400008024000100240044910B542
:100EC0000A68024202D00860FFF78AFF10BD0000E6
:100ED000143C01402DE9F84F00224FF00108032592
:100EE0004FF00F0E0B6808FA02F42340A3426ED1B4
:100EF0004E68012E05D0022E03D0112E01D0122EE5
:100F000012D186684FEA420C05FA0CF7BE43CF684F
:100F100007FA0CF7374387604668A6430C79C4F399
:100F20000014944034434460C668570005FA07FC37
:100F30008C6826EA0C06BC403443C4604C68022C22
:100F400001D0122C13D1D40800EB8404A346D4F8AA
:100F5000209054074FEAD46A0EFA0AF629EA0609E5
:100F60000E6906FA0AF646EA0906CBF8206006681A
:100F70000C7926EA0C0604F00304BC4034430460F8
:100F80004C68E40065D5364C266846F480462660F9
:100F9000246822F0030604F480440094314C344465
:100FA000A446D4F808489607370F0EFA07F6B4435C
:100FB0002D4EB04201D1002624E02C4EB04201D18A
:100FC00001261FE02A4EB04202D102261AE040E07C
:100FD000284EB04201D1032614E0274EB04201D181
:100FE00004260FE0254EB04201D105260AE0244E2A
:100FF000B04201D1062605E0224EB04201D10726BB
:1010000000E00826BE402643CCF808681E4E34682F
:101010004F689C43FF0300D51C4334601A4C241DC9
:1010200026684F689E43BF0300D51E432660164EB8
:10103000083634684F689C43FF0200D51C43346077
:10104000114E0C3634684F689C43BF0200D51C43D8
:101050003460521C102AFFF445AFBDE8F88F000041
:1010600044380240003001400000024000040240C9
:1010700000080240000C0240001002400014024030
:1010800000180240001C0240003C0140006908407A
:1010900000D001207047426931EA020200D1090400
:1010A000816170470AB1816170470904FBE7000064
:1010B00001488068704700001000002002488168E5
:1010C0000278114481607047100000200B4810B571
:1010D000016841F400710160016841F480610160C0
:1010E000016841F480710160032000F089F800205C
:1010F00000F006F800F03EF8002010BD003C024071
:1011000010B5014688B000222D2000F059F82D209E
:1011100000F048F813480024016841F48071016030
:10112000006805A900F480700690684600F014F984
:1011300000F038F90C494000B0FBF1F10C480B4AC3
:10114000491E026040F2E732C0E90324C0E90114FD
:1011500000F070FB10B1012008B010BD044800F091
:1011600099FBF9E74038024040420F000020004060
:10117000200400200A4808B5016841F4804101605C
:10118000006800F4804000900548001F016841F0AD
:1011900080510160006800F08050009008BD0000A0
:1011A00044380240002809DB00F01F020121914071
:1011B0004009800000F1E020C0F8001170470000F5
:1011C000F0B40E4B1B680C46C3F30223C3F10705B2
:1011D000042D00D90425191D072901D2002300E0A0
:1011E000DB1E012606FA05F1491E214099409E406A
:1011F000761E16403143F0BC01F085BB0CED00E0DB
:10120000064900F0070208684FF6FF03184040EA5D
:101210000220034A10430860704700000CED00E014
:101220000000FA052DE9F0470E46050065D0DFF80D
:101230001481D8F80000F7B200F00F00B04207D2D6
:1012400088F80070D8F8000000F00F00B04254D1C8
:1012500028683D4C810712D5400703D5206840F42B
:10126000E05020602878000703D5206840F46040F3
:1012700020602068A96820F0F000084320602878EA
:10128000C0072DD0304968680839012812D00228DB
:1012900013D0032811D00968890700292DDA2168A5
:1012A00021F0030101432160FFF702FF814641F273
:1012B000883A0EE009688903EFE709688901ECE7DD
:1012C000FFF7F6FEA0EB0901514502D90320BDE866
:1012D000F0872068696800F00C00B0EB810FEFD157
:1012E000D8F80010404601F00F01B14207D907704D
:1012F000006800F00F00B04201D00120E7E7287835
:10130000400705D52068E96820F4E05008432060D4
:101310002878000706D52068296920F4604040EA53
:10132000C100206000F05EF82168084AC1F3031193
:10133000515CC8400649086006480068FFF7E0FEB7
:101340000020C4E7003C0240083802402043000867
:101350001C000020140000200F2202600C4A1368B9
:1013600003F003034360136803F0F0038360136822
:1013700003F4E053C36012684FF4E05303EAD2026F
:1013800002610448006800F00F0008607047000028
:1013900008380240003C02400148006870470000E5
:1013A0001C0000200448054900680968044AC1F38C
:1013B0008221515CC84070471C0000200838024060
:1013C000304300080448054900680968044AC1F32D
:1013D0004231515CC84070471C0000200838024070
:1013E00030430008154810B5006810F00C0214488E
:1013F00013D04110042A0FD0082A0ED10F4C241FFD
:101400002268236802F03F025B0207D52068C0F320
:101410008810A0FB010106E0084610BD2168C1F359
:101420008811A1FB00010023FEF72AFF2168C1F308
:101430000141491C4900B0FBF1F010BD08380240E1
:101440000024F4002DE9F84F04006ED02078DFF876
:101450003C93C007A9F104054AD009F104000168D2
:10146000C1F38101012908D00068C0F3810002287E
:101470000AD1D9F80000400206D52868800337D584
:1014800060680028E1D033E06068B0F5803F10D09C
:10149000B0F5A02F286810D020F48030286028688C
:1014A00020F4802028606068A8B1FFF701FE06469E
:1014B0000DE0286840F48030F4E740F48020286094
:1014C000F7E700BFFFF7F4FD801B642873D8286896
:1014D0008003F7D50CE0FFF7EBFD064605E000BF03
:1014E000FFF7E6FD801B6428F0D828688003F7D456
:1014F0002078DFF89C8280074FF0000A3ED5A34891
:10150000001D016811F00C0F08D00068C0F38100C5
:1015100002280BD1D9F80000400207D428688007C0
:1015200016D5E068012800D112E02BE1E068B8B1DF
:101530000120C8F80000FFF7BBFD064605E000BF2C
:10154000FFF7B6FD801B0228C0D828688007F7D5B2
:101550002868216920F0F80040EAC10028600DE009
:10156000C8F800A0FFF7A4FD064604E0FFF7A0FDC1
:10157000801B02281FD828688007F7D4207800072E
:1015800022D5824E83486169703671B101210160B4
:10159000FFF78EFD074604E0FFF78AFDC01B022817
:1015A00009D830688007F7D50EE0C0F800A0FFF733
:1015B0007FFD074605E082E0FFF77AFDC01B0228A9
:1015C0007DD830688007F7D42078400768D5DFF8E9
:1015D000BCB100270BF13C0BDBF80000C0000BD4C2
:1015E000DBF8001041F08051CBF80010DBF8000070
:1015F000012700F080500090674E3068C00510D47D
:10160000306840F480703060FFF752FD009005E0D4
:10161000FFF74EFD0099401A022850D83068C005E7
:10162000F6D55A4EA0686C3601280FD005283068D0
:1016300010D020F001003060306820F004003060ED
:10164000A068B8B1FFF734FD00900FE0306840F0BB
:101650000100F4E740F004003060F7E7FFF728FDF1
:101660000099411A41F28830814266D8306880077B
:10167000F4D50EE0FFF71CFD009007E0FFF718FD22
:101680000099411A41F28830814256D8306880076B
:10169000F4D42FB1DBF8001021F08051CBF800100A
:1016A000A069C8B33949091D0968C1F3810102293C
:1016B0004AD00228504607D0C8F8600000E03CE05D
:1016C000FFF7F6FC04463BE04746C8F86000FFF72A
:1016D000EFFC064605E000BFFFF7EAFC801B02288E
:1016E0002BD828688001F7D4D4E907010843A16A00
:1016F0002A4A490802EB0141626A41EA8211084321
:1017000094F82C1040EA0161C9F8001001203866F5
:10171000FFF7CEFC044606E036E000BFFFF7C8FC4A
:10172000001B022809D828688001F7D52CE000BFEB
:10173000FFF7BEFC001B022802D90320BDE8F88F8A
:1017400028688001F4D41FE00128F7D0D9F8000000
:10175000E26900F48001914214D1226A00F03F0155
:1017600091420FD147F6C071626A0140914209D19E
:10177000A26A00F44031914204D1E16A00F0706045
:10178000884201D00120D9E70020D7E70438024081
:1017900000004742800E4742007000400000FFFFFB
:1017A0007047704770B590F83C20012A32D0012470
:1017B00080F83C40022280F83D2003685A689D680A
:1017C00022F070060A6832435A60134B02689A424C
:1017D00014D0B2F1804F11D0104B9A420ED0104B62
:1017E0009A420BD00F4B9A4208D00F4B9A4205D029
:1017F0000E4B9A4202D00E4B9A4204D1496825F012
:1018000080031943916080F83D40002180F83C102E
:10181000084670BD022070BD000001400004004079
:1018200000080040000C004000040140004001405E
:101830000018004010B5040003D094F83D0010B12A
:1018400007E0012010BD002084F83C00204600F095
:101850000DF8022084F83D00211D206800F054FEA0
:10186000012084F83D00002010BD000008B500688C
:101870000649884208D10648016841F0020101602A
:10188000006800F00200009008BD00000004004065
:10189000403802400168CA6842F00102CA6000682C
:1018A000816801F00701062903D0016841F00101B8
:1018B00001600020704770B5044690F83C00012894
:1018C00017D0012584F83C50022084F83D002068A0
:1018D000826822F0770222F47F42826008685028F2
:1018E00030D00DDC20284DD005DC98B310283BD13A
:1018F00048E0022070BD302844D0402834D139E07F
:10190000602828D0702806D0B0F5805F2CD0B0F5C4
:10191000005F29D10AE0CB68D1E90121206800F0FD
:1019200064FE2068816841F0770109E0CB68D1E965
:101930000121206800F059FE2068816841F480414F
:10194000816011E0CA684968206800F023FF5021D7
:10195000206807E016E0CA684968206800F02BFF9D
:101960006021206800F04BFE84F83D50002084F890
:101970003C0070BDCA684968206800F00BFF402138
:101980002068EFE7226801461046EBE7704770B524
:101990000446006801694FF00005C943890715D462
:1019A000C168C943890711D4E91E0161012020776C
:1019B000206880698007204602D0FFF7E7FF04E037
:1019C00000F0C0F8204600F042F925772068016950
:1019D000C943490717D4C168C943490713D46FF0F5
:1019E00004010161022020772068806910F4407FA3
:1019F000204602D0FFF7CAFF04E000F0A3F820461B
:101A000000F025F9257720680169C943090716D434
:101A1000C168C943090712D46FF0080101610420AD
:101A200020772068C0698007204602D0FFF7AEFF0C
:101A300004E000F087F8204600F009F925772068D7
:101A40000169C943C90617D4C168C943C90613D47B
:101A50006FF010010161082020772068C06910F440
:101A6000407F204602D0FFF791FF04E000F06AF8C3
:101A7000204600F0ECF8257720680169C943C907C2
:101A800008D1C168C943C90704D1891E0161204634
:101A900000F00CF920680169C943090609D4C1683E
:101AA000C943090605D46FF0800101612046FFF7A4
:101AB00077FE20680169C943490609D4C168C94352
:101AC000490605D46FF040010161204600F0F8F8A6
:101AD00020680169C94389060BD4C168C9438906D6
:101AE00007D46FF0200101612046BDE87040FFF788
:101AF00058BE70BD10B586B0044614216846FEF786
:101B000009FC0D492068884214D10C48016841F055
:101B1000020101600068012100F002000590102020
:101B200000900220CDE90101039004906946044829
:101B3000FFF7D0F906B010BD000400403038024075
:101B400000040240704770B5044690F83C000D4612
:101B500001280DD0012684F83C60022084F83D0065
:101B600042B1042A18D0082A2AD00C2A4DD139E0D3
:101B7000022070BD206800F04BFD2068816941F0B3
:101B8000080181612068816921F004018161206878
:101B900081692A69114311E0206800F069FD20681D
:101BA000816941F4006181612068816921F480616B
:101BB0008161206881692A6941EA0221816124E00A
:101BC000206800F08BFD2068C16941F00801C16107
:101BD0002068C16921F00401C1612068C1692A69D6
:101BE000114311E0206800F0ADFD2068C16941F4A7
:101BF0000061C1612068C16921F48061C161206810
:101C0000C1692A6941EA0221C16184F83D6000206E
:101C100084F83C0070BD10B5040003D094F83D007A
:101C200010B107E0012010BD002084F83C002046E0
:101C300000F00CF8022084F83D00211D206800F01F
:101C400063FC012084F83D00002010BD7047704700
:101C500010B504460068002200F0BAFC114841F2B9
:101C6000111221689310814202D00F48814209D19C
:101C7000086A104206D1086A184203D1486C20F461
:101C8000004048642068016A114206D1016A194285
:101C900003D1016821F001010160012084F83D00B9
:101CA000002010BD0000014000040140006803490D
:101CB000884201D1FFF702BA7047000000200040BF
:101CC000704770B5040004D094F83900002510B1B5
:101CD00006E0012070BD84F83850204600F022F85C
:101CE000242084F839002068C16821F40051C160C3
:101CF000204600F073FD2068016921F490410161E4
:101D00002068416921F02A0141612068C16841F4DD
:101D10000051C160E563202084F8390084F83A005E
:101D2000002070BD2DE9F04F87B0044614216846AD
:101D3000FEF7F0FA9148DFF840820221256803227D
:101D400007238E0607154FF040094FF0000C45455C
:101D500059D1E2466546DFF824C20CF1140CDCF8D8
:101D6000008048F01008CCF80080DCF800C00CF0CF
:101D7000100CCDF814C0D0F800C04CF0020CC0F824
:101D800000C0006800F002000590C0208DE823002C
:101D900069467B48CDE90323FFF79CF8DFF8E8812B
:101DA00078494046C8F80010C0E90165C0E903570A
:101DB000C8F81450C8F81850C8F81C50C8F820507B
:101DC000C8F82450FEF7B0FD08B1FEF7DBFC6D4803
:101DD0006E4DC4F834807830C8F8384085E8410248
:101DE000C5E903A7C5F814A0C5F818A0C5F81CA03C
:101DF000C5F820A02846C5F824A0B5E02563AC634B
:101E000007B0BDE8F08FDFF88881DFF870B1DFF848
:101E100084E10BF1100B454550D1DBF80080E24620
:101E2000654648F40038CBF80080DBF800C00CF4BD
:101E3000003CCDF814C0D0F800C04CF0080CC0F83D
:101E400000C0006800F00800059060208DE82300C5
:101E500069467046CDE90323FFF73CF8DFF83C8183
:101E60004D494046C8F80010C0E90165C0E9035774
:101E7000C8F81450C8F81850C8F81C50C8F82050BA
:101E8000C8F82450FEF750FD08B1FEF77BFC42482D
:101E9000434DC4F834801830C8F8384085E8410212
:101EA000C5E903A7C5F814A0C5F818A0C5F81CA07B
:101EB000C5F820A02846C5F824A055E0DFF8E48046
:101EC00045459DD1DBF80080E246654648F4802810
:101ED000CBF80080DBF800C00CF4802CCDF814C0E7
:101EE000D0F800C04CF0080CC0F800C0006800F04A
:101EF000080005904FF440708DE823006946704655
:101F0000CDE90323FEF7E6FF2349DFF89C80603923
:101F10004046C8F80010C0E90165C0E90357C8F899
:101F20001450C8F81850C8F81C50C8F82050C8F809
:101F30002450FEF7F9FC08B1FEF724FC16481B4DAF
:101F4000C4F834803038C8F8384085E84102C5E923
:101F500003A7C5F814A0C5F818A0C5F81CA0C5F8BB
:101F600020A02846C5F824A0FEF7DEFC00283FF498
:101F700045AFFEF707FC41E7001001403038024052
:101F80000004024040640240E001002040020020C2
:101F900000440040000C024088600240A002002083
:101FA000000300200048004060030020C003002020
:101FB000FEE70000214808B5016841F48001016096
:101FC000016801F480010091016841F40011016091
:101FD0000068002200F40010009011460C20FFF76A
:101FE000EFF80C20FFF7DEF8002211460E20FFF775
:101FF000E7F80E20FFF7D6F8002211461020FFF771
:10200000DFF81020FFF7CEF8002211461120FFF76D
:10201000D7F81120FFF7C6F8002211463A20FFF743
:10202000CFF83A20FFF7BEF8002211464620FFF70E
:10203000C7F8BDE808404620FFF7B4B83038024082
:102040000E480D4901600121416001824269002171
:102050001170436980225A704369E1229A70426983
:10206000D17042691171426951718161C1614FF44E
:1020700000010162FEF7D4BC0080024098000020FD
:102080002DE9F04786B014216846FEF743F96E4803
:102090000024016841F010010160016801F01001A5
:1020A0000591016841F004010160016801F004013B
:1020B0000591016841F080010160016801F0800133
:1020C0000591016841F001010160016801F0010121
:1020D0000591016841F002010160016801F002010F
:1020E0000591016841F0080101600068574D00F05A
:1020F000080005900122FF212846FEF7D3FFDFF8F4
:10210000509148F22818012241464846FEF7CAFF7E
:10211000DFF840A10122D1025046FEF7C3FF0022A2
:102120004FF470415046FEF7BDFFFF20009001269E
:10213000CDE90164694628460394FEF7CBFE464F7D
:102140004FF47050CDE900070225694602954348D7
:10215000FEF7C0FECDF80080CDE90164694648462F
:102160000394FEF7B7FE0420CDE90004DFF8F08009
:10217000694640460294FEF7ADFE4FF47840009069
:10218000CDE90164694650460394FEF7A3FE03209F
:10219000CDE90007694602955046FEF79BFE314E99
:1021A0009C20CDE90006694602955046FEF792FE56
:1021B00008208DE8310069464046FEF78BFE4FF45B
:1021C0004870CDE90006694602954046FEF782FE5A
:1021D000002201210620FEF7F3FF0620FEF7E2FFB2
:1021E000002201210720FEF7EBFF0720FEF7DAFFB0
:1021F000002202210820FEF7E3FF0820FEF7D2FFAD
:10220000002202210920FEF7DBFF0920FEF7CAFFAA
:10221000002202210A20FEF7D3FF0A20FEF7C2FFA8
:10222000002202211720FEF7CBFF1720FEF7BAFF8E
:10223000002201212820FEF7C3FF2820FEF7B2FF6D
:1022400006B0BDE8F08700003038024000100240C0
:1022500000000240000C0240000011100008024083
:10226000000402400000311010B58EB00024079425
:10227000089409940A940B941C2168460C94FEF768
:1022800049F800F0F1F81A48184944F62062016054
:1022900018490968B1FBF2F1491EC0E9011440F286
:1022A0003451C0E903148461FFF7C4FA4FF480503D
:1022B000079007A90E48FFF7FEFA0D48FFF7ABFCA1
:1022C0000B940BA90A480C94FFF76CFA6020CDE937
:1022D0000004022002900022694604940448FFF79B
:1022E00032FC0348FFF706FC0EB010BD00040040AE
:1022F000E00000201C000020FEE77047054D4FF471
:102300008054FA2000F080FB21462846FEF7C3FEE9
:10231000F7E70000000C0240012000F075FBFBE72E
:10232000214DDFF88880224C4FF480794FF4007AF9
:1023300004212846FEF7AAFE064608212846FEF795
:10234000A5FE46EA400610212846FEF79FFE46EA13
:10235000800680212846FEF799FE46EAC00708213C
:1023600046464046FEF792FE47EA001720213046D7
:10237000FEF78CFE47EA401749463046FEF786FED8
:1023800047EA801751463046FEF780FE47EAC01004
:10239000C1B261702078814202D0217000F0D8FB78
:1023A0000A2000F031FBC3E7000C024000040240A9
:1023B0000000002010B5502080F31188BFF34F8F2C
:1023C000BFF36F8F01F0D0FD18B104494FF080507A
:1023D0000860002080F3118810BD000004ED00E0CB
:1023E00030B593B030216846FDF794FF14210CA856
:1023F000FDF790FF1A480025016841F08051016007
:10240000006800F0805011901648016841F4804146
:1024100001600068022400F48040119001200090C7
:10242000000401908001CDE90640082008904FF497
:10243000A870CDE9090407200B906846FFF702F861
:102440000CA90F2081E831004FF4A0500F90E0025A
:10245000109005210CA8FEF7E5FE13B030BD00007A
:10246000403802400070004070B5194C2068194A8D
:1024700010F00C01184804D05510042903D0082985
:1024800003D002601BE0056019E01149091F0B68C9
:10249000C3F380560B6803F03F0316B1B5FBF3F2AC
:1024A00001E0B2FBF3F20B680968C3F388135A43E7
:1024B000C1F30141491C4900B2FBF1F101602168FF
:1024C000064AC1F30311515C0268CA40026070BD44
:1024D000083802400024F4001C00002020430008BB
:1024E0000548016841F47001016003494FF0006044
:1024F000803908607047000088ED00E00148FFF770
:1025000046BA000020040020F0B50268254C264D94
:10251000264E274F274B4FF0804CA04209D06045F4
:1025200007D0A84205D0B04203D0B84201D09842AB
:1025300004D122F0700E4A6842EA0E02A0421BD07B
:10254000604519D0A84217D0B04215D0B84213D078
:10255000984211D0184DA8420ED0184DA8420BD069
:10256000174DA84208D0174DA84205D0164DA842D5
:1025700002D0164DA84203D122F44075CA682A43FE
:102580004D6922F080022A4302608A68C2620A68AA
:102590008262A04201D0984201D109690163012100
:1025A0004161F0BD0000014000040040000800400F
:1025B000000C004000040140004001400044014084
:1025C0000048014000180040001C0040002000406E
:1025D00010B501F01F030121046A99408C43046285
:1025E000016A9A401143016210BD10B5846842EA45
:1025F000032224F47F440A432243826010BD826890
:1026000022F070020A4342F0070181607047000027
:10261000F0B5026A22F001020262036A426884692C
:10262000124E24F073050C682C4323F002058B68CE
:102630002B430D4DA84201D0B04205D123F008072D
:10264000CB683B4323F00403A84201D0B04205D13C
:102650004D6922F4407215438A692A4342608461BD
:10266000496841630362F0BD00000140000401407D
:10267000F0B5026A22F010020262026A43688469BD
:102680000D6824F4E64444EA05248D6822F0200213
:1026900042EA05120F4D104EA84201D0B04206D1B9
:1026A000CF6822F0800242EA071222F04002A842DC
:1026B00001D0B04207D14D6923F4406343EA85035A
:1026C0008D6943EA850343608461496881630262DE
:1026D000F0BD00000000014000040140F0B5026AB6
:1026E00022F480720262026A4368C46922F40072B2
:1026F00024F073050C68124E2C438D6842EA0522C3
:102700000E4DA84201D0B04206D1CF6822F400623B
:1027100042EA072222F48062A84201D0B04207D1E7
:102720004D6923F4405343EA05138D6943EA0513C9
:102730004360C4614968C1630262F0BD00000140AA
:102740000004014030B5026A22F480520262046A39
:102750004268C3690D6823F4E64343EA05238D68A4
:1027600024F4005444EA0534084DA84202D0084D30
:10277000A84204D14D6922F4804242EA85124260A7
:10278000C36149680164046230BD0000000001407B
:102790000004014010B5036A046A24F001040462D5
:1027A000846924F0F00444EA021423F00A020A4384
:1027B0008461026210BD10B5036A23F01003036246
:1027C0008369046A23F4704343EA023224F0A003CD
:1027D00043EA01118261016210BD00002DE9F04160
:1027E000044600680169E26821F440511143016127
:1027F0002169A068E26908436169114308432168BF
:10280000CA6849F20C639A430243CA60206841696E
:10281000A26921F4407111434161E06919276425DF
:102820003226B0F5004F354A354920684FF0000890
:1028300006D0884201D0904236D1FEF7C3FD35E084
:10284000884201D0904202D1FEF7BCFD01E0FEF7C4
:10285000A9FD61684A18A0FB070148EB0803FDF7D2
:102860000FFD0146B0FBF5F00201B1FBF5F06FF092
:102870001803584301EB800006EBC000B0FBF5F0F5
:1028800000F0F80002EB4002B1FBF5F0584301EB19
:10289000800006EBC000B0FBF5F000F007002168F7
:1028A00010448860BDE8F081FEF77CFD61688B0F05
:1028B0008A00A0FB0701FDF7E3FC0146B0FBF5F041
:1028C0006FF01802504301EB800006EB0010B0FBE4
:1028D000F5F000F0F002B1FBF5F002EB0012B1FBF5
:1028E000F5F06FF01803584301EB800006EB001081
:1028F000B0FBF5F000F00F00D1E70000001401403C
:1029000000100140FEE70907090E002804DB00F172
:10291000E02080F80014704700F00F0000F1E02084
:1029200080F8141D704702E008C8121F08C1002A71
:10293000FAD170477047002001E001C1121F002A40
:10294000FBD17047FEF7C2FBFFF74AFDFFF798FB8C
:10295000FFF730FB244823494FF4E13500240160A0
:10296000C0E901540C26C460C0E904468461C46116
:10297000FFF7A7F91C481D4940300160C0E9015428
:10298000C460C0E904468461C461FFF79AF916483F
:10299000174980300160C0E90154C460C0E90446B1
:1029A0008461C461FFF78DF9FFF75EFCFFF748FB18
:1029B00000F044F80F4A00210F4800F077F80F4C60
:1029C0000C4A0021606024320D4800F06FF8094A7B
:1029D000A060483200210B4800F068F8E06000F089
:1029E00047F8FEE7001001402001002000440040AD
:1029F00000480040AC4200081923000800000020F5
:102A0000FD2200082123000810B5EFF3058179B9F4
:102A1000EFF3108111B9EFF3118119B1064909687B
:102A2000022905D0002408B100F076FE204610BD32
:102A30006FF00504FAE7000070000020EFF3058056
:102A400068B9EFF310820949086812B9EFF31182EF
:102A50000AB1022803D028B14FF0FF3070476FF061
:102A600005007047012008600020704770000020BA
:102A700010B5EFF3058070B9EFF310820A490868CA
:102A800012B9EFF311820AB1022804D0012805D04F
:102A90004FF0FF3010BD6FF0050010BD0220086040
:102AA00000F0A2FE002010BD700000202DE9FF41C3
:102AB0004FEA01034FF00005EFF30581039599BB41
:102AC000EFF3108111B9EFF3118119B11F490968B2
:102AD000022938D040B38026182100244AB3176851
:102AE00007B13C4697691FB139467F1E382F02D285
:102AF0001779FF0703D0002004B0BDE8F0815769C3
:102B000007B1BE08D2F808C0BCF1000F0DD0D568DF
:102B10005C2D18D312693AB137B18DE806103246F0
:102B2000214601F0E2F903900DE0D7685FB9126920
:102B30004AB903AACDE90012B2B2214601F0A8F9C0
:102B4000012800D003950398D6E70000700000200C
:102B50002DE9F0472D482E4EDFF8B89040782E4DE5
:102B60002E4C002748F228114FF4006838B14FF47A
:102B7000004A012818D0022829D0FF2842D101227A
:102B80003046FEF78FFA012241464846FEF78AFAA0
:102B90000122FB212846FEF785FA00211F48FFF796
:102BA00057F8206847632DE000211C48FFF750F8D4
:102BB00020684763012251463046FEF773FA01222E
:102BC0001A212846FEF76EFA0022212117E021681B
:102BD00040F23450C862E0602168632048630021FD
:102BE0000E48FFF735F8012251463046FEF75AFAF3
:102BF00001221B212846FEF755FA002220212846F3
:102C0000FEF750FA0020BDE8F08700000000002029
:102C100000000240000C024000100240E0000020D2
:102C20002DE9F041134C0F46054666692068001DEA
:102C300000F042FC681C07D137B12168BDE8F041C3
:102C40000D48091D00F088BC20683544B542456038
:102C5000216805D2A068BDE8F041091D00F064BC00
:102C60006068091D00F060FC206B854200D225637E
:102C7000BDE8F08120000020500900202DE9F0413E
:102C8000054600F075FC2D4C2069401C2061206831
:102C90002B4F10B1E06930B32BE02560206901288B
:102CA00027D1002606EB860007EB800000F02EFC03
:102CB000761C382EF6D3234800F028FC2148143027
:102CC00000F024FC1F48283000F020FC1D483C3058
:102CD00000F01CFC1B48503000F018FC19486060E4
:102CE0001430A06005E02068E96AC06A884200D814
:102CF0002560E06A401CE0626864E86AA169884275
:102D000000D9A06100EB800007EB8000291D00F0D6
:102D100023FC00F04DFCE06900280CD02068E96A33
:102D2000C06A884207D208494FF080500860BFF35C
:102D30004F8FBFF36F8FBDE8F081000020000020AF
:102D4000A00400200009002004ED00E038B500F0E8
:102D50000FFC104CA068C8B90F4800F0D7FB0E4814
:102D6000143000F0D3FB0C482060143060600A4B34
:102D700000202833009003F1500210210A2000F0B7
:102D80002BFEA06010B105A100F090FCBDE838401A
:102D900000F00EBC5C00002064090020546D7251EC
:102DA0000000000030B4026C0B46002A0BD0C16852
:102DB0001144C1608468A14201D30168C16030BC84
:102DC0001846FDF78EBA30BC70472DE9F041856B8F
:102DD000174604460026026C82B1C7B1E068FDF7D1
:102DE00080FAE168206C091AE1602268914202D2FF
:102DF000A168081AE060022F16D017E02068A8B971
:102E0000A06801F015F906460020A0600EE0606899
:102E1000FDF767FA216C606808446060A168884229
:102E200004D32068606001E005B16D1E6D1CA563D0
:102E30003046BDE8F08110B5044690F8590058B10D
:102E400001280CD002280FD0502080F31188BFF346
:102E50004F8FBFF36F8FFEE7206B00F0BDFB204666
:102E6000BDE8104000F0B8BB10BD000010484FF4A2
:102E70007051420706D0C01D0D4920F00700411ACD
:102E8000C1F570510B4A00230144C2E9000308391F
:102E9000103A21F0070111604B600B600B1AC0E97A
:102EA000001393604FF000405360D0607047000003
:102EB0003411002084000020144E154CA6F29C47CB
:102EC0004FF08058DFF84C9012E000BF00F050FB4C
:102ED000F068C568281D00F0EFFA2069401E2061E7
:102EE000E068401EE06000F063FB2846FFF7A3FFA8
:102EF000E0680028EAD138680128F9D9C9F80080CB
:102F0000BFF34F8FBFF36F8FF2E700003C09002043
:102F10002000002004ED00E070B51D46049C51B176
:102F2000C4F80020C4E90F010121204600F088FD0B
:102F300084F84C5070BD2460F4E700002DE9F05F88
:102F40008846DDE90B941546834691009A460A9E11
:102F5000A522206BFDF7D7F96FF00301206B01EB81
:102F60008501084420F00707780707D0502080F338
:102F70001188BFF34F8FBFF36F8FFEE70025B8F1C5
:102F8000000F0FD05FF00000221818F8001082F830
:102F9000341018F8001011B1401C1028F4D384F834
:102FA000435001E084F83450382E00D33726E662CF
:102FB000C4E91365201D00F0B4FA04F1180000F014
:102FC000B0FA2461C6F138006462A061656584F8D6
:102FD000585052465946384600F058FA2060B9F128
:102FE000000F01D0C9F80040BDE8F09F30B511498D
:102FF00000E011460A688242FBD34B685C188442A9
:1030000003D1406818444860084643681C1894423D
:1030100009D1084C103C2468A24209D052681A44D5
:1030200042600A6812680260814200D0086030BDC8
:103030000460F9E78400002070B5002441600B4D66
:103040000061914206D8D11A8269914206D2011DCF
:10305000686807E09A4203D2994201D3012403E051
:10306000011D286800F060FA204670BD5C00002059
:1030700010B5044600F07CFAA06B28B15FF00004A4
:1030800000F096FA204610BD0124F9E730B589B06A
:103090003C4D6EE00498002806DADDE90601059A49
:1030A00090470498002864DB069C606910B1201DDD
:1030B00000F002FA03A800F0D7F8024604980A28A4
:1030C00057D2DFE800F00505052D334A05052D33FD
:1030D00094F8280040F0010084F828000599A069C0
:1030E000059B01442046FFF7A7FF68B3216A2046ED
:1030F000884794F8280040073BD5002000900598A9
:10310000A169002342181946204601F09BF8D8B95E
:10311000502080F31188BFF34F8FBFF36F8FFEE70E
:1031200014F8280F20F00100207022E094F8280005
:1031300040F0010084F828000598A06128B18118AA
:1031400013462046FFF778FF13E0502080F31188E4
:10315000BFF34F8FBFF36F8FFEE794F8280081070E
:1031600003D4204600F038FA03E020F0010084F890
:103170002800002204A9A86800F0B4FD002889D125
:1031800009B030BD5C0000202DE9FC410F4605462A
:1031900000F06EFB01A800F067F80446019818B132
:1031A00000F0BEFFBDE8FC81254EAFB1706800683D
:1031B000D0B30027291B3A46B06800F08BFA00F024
:1031C000AFFF0028EED11F494FF080500860BFF3D9
:1031D0004F8FBFF36F8FE5E7A542EBD800F0A0FF5C
:1031E00030682746C068C468201D00F065F994F86F
:1031F0002800410719D5A0692B4641193A462046B7
:10320000FFF71AFFA8B100200346014600902A46A6
:10321000204601F017F860B9502080F31188BFF301
:103220004F8FBFF36F8FFEE707E020F0010084F8B7
:103230002800216A20468847B4E70127BAE7000042
:103240005C00002004ED00E006484168096829B1EF
:103250004168C968C9684968016370474FF0FF3128
:10326000FAE700002000002070B5054600F076FE69
:10327000064E04463069844203D200F009F801206A
:1032800000E0002028602046346170BD5C00002012
:10329000F8B5194D20E0C068C4680668201D00F02C
:1032A0000BF9216A2046884794F82800400713D577
:1032B000A0693044B04206D924616060211D2868AD
:1032C00000F032F908E00020034601460090324643
:1032D000204600F0B7FF38B1286801680029DAD12C
:1032E0006968C5E90010F8BD502080F31188BFF36C
:1032F0004F8FBFF36F8FFEE75C00002008484068E7
:10330000401C4FF0500080F3118804D0BFF34F8F62
:10331000BFF36F8FFEE7BFF34F8FBFF36F8FFEE7F3
:103320008C000020074C2068016841B1C068002172
:10333000D0F80000FFF728FFFFF7A8FEF3E7012110
:103340000020F7E75C0000202DE9F041044600F082
:103350000FF994F9455004F1240609E0606A48B178
:10336000304600F0A5FE08B100F004FA6D1E6DB203
:10337000002DF3DC4FF0FF3684F8456000F018F9BB
:1033800000F0F6F894F9445004F1100709E02069C0
:1033900048B1384600F08CFE08B100F0EBF96D1E24
:1033A0006DB2002DF3DC84F84460BDE8F04100F01C
:1033B000FFB800002DE9F0410546002700F058FA5B
:1033C000314E306808B9FFF751FDF06805424BD126
:1033D000C5B3083568070ED005F00700C0F1080036
:1033E0000544680707D0502080F31188BFF34F8F42
:1033F000BFF36F8FFEE72DB37068854234D8224843
:10340000103001460C6801E020460C466168A94274
:1034100002D221680029F7D131688C4224D0076894
:103420002168016060680837411B10290FD96019B5
:10343000420708D0502080F31188BFF34F8FBFF3AD
:103440006F8FFEE710E041606560FFF7CFFD6168B8
:103450007068401A7060B268904200D2B060F06844
:1034600001430020C4E9000100F05AFE780707D0AC
:10347000502080F31188BFF34F8FBFF36F8FFEE7AB
:103480003846BDE8F08100007400002010B5031F2D
:103490004FF080741C601B1F21F001011960191F7F
:1034A000044B0B6014390A60091F6FF002024438A4
:1034B0000A6010BDFD320008D0E9013201699A604E
:1034C000D0E901235A604A68824201D182684A6089
:1034D000002202610868401E08600868704700000A
:1034E000034B036003F15C000860802010607047AC
:1034F0007C0A0020044B036003F15C0008604FF479
:103500008070106070470000D80C002000F10801A6
:103510004FF0FF32C0E90112C1600161002101607A
:10352000704700210161704730B50B685A1C02D00A
:1035300000F1080202E0026904E0224654682568AE
:103540009D42FAD953684B6099608A605160086166
:103550000168491C016030BD42684A6093688B6015
:1035600093685960916008610168491C0160704767
:10357000502080F31188BFF34F8FBFF36F8F0A493C
:103580004868401C486001280CD10848006810F0C9
:10359000FF0F07D0502080F31188BFF34F8FBFF388
:1035A0006F8FFEE7704700008C00002004ED00E004
:1035B0000849486828B1401E486001D180F311884D
:1035C0007047502080F31188BFF34F8FBFF36F8F88
:1035D000FEE700008C00002070B5002827D0144DB5
:1035E000A0F108046168E868014207D1502080F327
:1035F0001188BFF34F8FBFF36F8FFEE722683AB198
:10360000502080F31188BFF34F8FBFF36F8FFEE719
:103610008143616000F02CF9606869680844686063
:103620002046FFF7E3FCBDE8704000F079BD70BDB7
:10363000740000204FF0E020002101618161054904
:103640004FF47A720968B1FBF2F1491E416107211A
:10365000016170471C00002010B5FCF7FBFD11490B
:1036600010280ED300F1E02090F8F0030A78904281
:1036700007D2502080F31188BFF34F8FBFF36F8FB5
:10368000FEE709480068896800F4E060884207D9CD
:10369000502080F31188BFF34F8FBFF36F8FFEE789
:1036A00010BD00008C0000200CED00E010B5084BB0
:1036B000002200BF53F832401CB1521C082AF9D333
:1036C00010BD43F8321003EBC201486010BD00008A
:1036D0006004002070B515460E460446FFF748FF0B
:1036E00094F944100020491C01D184F8440094F955
:1036F0004510491C01D184F84500FFF759FFA06B24
:1037000028B92A46314604F1240000F051F8204639
:10371000BDE87040FFF718BE10B5020014D00F4886
:10372000806B38B1502080F31188BFF34F8FBFF307
:103730006F8FFEE700F09CF800211046FFF770FA4B
:1037400000F0EEFC002807D105494FF080500860DA
:10375000BFF34F8FBFF36F8F10BD0000200000201C
:1037600004ED00E002498A6A0260496941607047DD
:1037700020000020014901204862704720000020FD
:1037800010B50C4650B1094909681831FFF7CCFE55
:103790002046BDE810400121FFF742BA502080F3D7
:1037A0001188BFF34F8FBFF36F8FFEE7200000201B
:1037B00070B514460D4668B10A4909681831FFF71B
:1037C000CBFE0CB14FF0FF3521462846BDE87040D6
:1037D000FFF726BA502080F31188BFF34F8FBFF355
:1037E0006F8FFEE72000002030B587B000240394DF
:1037F00005AA04A903A80494FFF772FEDDE90301FA
:103800000094CDE90110002315A11748059A00F096
:103810006CFB164D002868631FD000F0E3FC012804
:1038200009D0401C19D1502080F31188BFF34F8F6D
:10383000BFF36F8FFEE7502080F31188BFF34F8FE7
:10384000BFF36F8F4FF0FF3028630120E8616C6198
:1038500007B0BDE8304000F045B807B030BD00000B
:1038600049444C4500000000B92E0008200000200B
:103870000248816B491C81637047000020000020D2
:10388000164810B5816B11B10121416210BD0021B4
:1038900041628169124A01E0B9B1491E01EB81031D
:1038A00052F82330002BF7D001EB810302EB8302A7
:1038B00002F1080453685B685360A34201D15B685E
:1038C0005360DA680260816110BD502080F3118876
:1038D000BFF34F8FBFF36F8FFEE700002000002083
:1038E000A00400201CB537480168374A914207D12F
:1038F000502080F31188BFF34F8FBFF36F8FFEE727
:1039000000683149491E884207D1502080F3118850
:10391000BFF34F8FBFF36F8FFEE72C4908780190FC
:10392000FF20087008788DF800009DF800009DF8D1
:10393000002000F0F000904207D0502080F3118862
:10394000BFF34F8FBFF36F8FFEE79DF80000204B52
:1039500000F0500018700720986005E09DF80020E6
:1039600052008DF80020401E9DF800201206F5D46C
:103970009860032807D0502080F31188BFF34F8F41
:10398000BFF36F8FFEE74FF44070986001980870A6
:103990000C482030016841F470010160016841F079
:1039A00070410160FFF746FE00205860FCF71AFCEA
:1039B0000848016841F040410160FCF7FFFB00202E
:1039C0001CBD000000ED00E071C20F4100E400E00A
:1039D0008C00002034EF00E038B5049D18B153B1DD
:1039E000CAB181B120E0502080F31188BFF34F8F1E
:1039F000BFF36F8FFEE7502080F31188BFF34F8F26
:103A0000BFF36F8FFEE7502080F31188BFF34F8F15
:103A1000BFF36F8FFEE739B1502080F31188BFF3F9
:103A20004F8FBFF36F8FFEE750241C46012384F8AD
:103A300046302B460094FFF76FFA204638BD000051
:103A400070B50D46040025D0FFF792FDD4E90F2094
:103A5000216802FB0011A1600021A163216861605F
:103A60000A46D4E90F01401E00FB0121E160214616
:103A70004FF0FF3001F8440F487004F110008DB191
:103A8000FFF744FD04F12400FFF740FDFFF790FD30
:103A9000012070BD502080F31188BFF34F8FBFF31A
:103AA0006F8FFEE721690029F0D000F001FB0028AC
:103AB000ECD004494FF080500860BFF34F8FBFF344
:103AC0006F8FE3E704ED00E02DE9FF4782B01D466C
:103AD0008A464FF00008040003D0BAF1000F08D066
:103AE00011E0502080F31188BFF34F8FBFF36F8F29
:103AF000FEE7206C38B1502080F31188BFF34F8F60
:103B0000BFF36F8FFEE7022D0AD1E06B012807D0CB
:103B1000502080F31188BFF34F8FBFF36F8FFEE704
:103B200000F00EFA3F4F4FF000094FF0805648B9B1
:103B3000049838B1502080F31188BFF34F8FBFF342
:103B40006F8FFEE7FFF714FDA06BE16B884207D390
:103B5000022D05D00498D0B1B8F1000F1AD01EE0A4
:103B60002A4651462046FFF730F9616A19B104F13F
:103B7000240000F09DFA20B13E60BFF34F8FBFF3E9
:103B80006F8FFFF715FD012006B0BDE8F087FFF746
:103B90000FFD22E06846FFF7E5FD4FF00108FFF753
:103BA00007FDFFF765FEFFF7E3FC94F94400401CB6
:103BB00001D184F8449094F94500401C01D184F867
:103BC0004590FFF7F5FC04A9684600F027F930B1ED
:103BD0002046FFF7B9FB00F0A3FA0020D4E7FFF777
:103BE000C7FCA06BE16B884213D1FFF7E1FC04F145
:103BF00010000499FFF7C4FD2046FFF7A5FB00F075
:103C00008FFA00289ED13E60BFF34F8FBFF36F8FB6
:103C100098E7FFF7CDFC2046FFF796FB00F080FA0F
:103C200090E7000004ED00E02DE9F0471F469046C4
:103C30008946040003D0B9F1000F08D011E05020EC
:103C400080F31188BFF34F8FBFF36F8FFEE7206CB7
:103C500038B1502080F31188BFF34F8FBFF36F8FBF
:103C6000FEE7022F0AD1E06B012807D0502080F335
:103C70001188BFF34F8FBFF36F8FFEE7FFF7ECFCA8
:103C80005020EFF3118680F31188BFF34F8FBFF3FD
:103C90006F8FA06BE16B884206D3022F04D0002007
:103CA00086F31188BDE8F08794F945503A464946B5
:103CB0002046FFF78AF8681C04D06D1C84F8455034
:103CC0000120EDE7606A0028FAD004F1240000F03A
:103CD000EFF90028F4D0B8F1000FF1D00121C8F8B5
:103CE0000010EDE72DE9F747002683B08A4604006F
:103CF00003D0BAF1000F08D011E0502080F31188F2
:103D0000BFF34F8FBFF36F8FFEE7206C38B15020A9
:103D100080F31188BFF34F8FBFF36F8FFEE700F082
:103D20000FF9DFF8F4804FF000094FF0805748B9E1
:103D3000059838B1502080F31188BFF34F8FBFF33F
:103D40006F8FFEE7FFF714FCA56BC5B15146204607
:103D5000FFF728F86D1EA563206950B104F110002B
:103D600000F0A6F928B1C8F80070BFF34F8FBFF379
:103D70006F8FFFF71DFC012006B0BDE8F0870598A6
:103D800008B11EB106E0FFF713FC27E06846FFF715
:103D9000E9FC0126FFF70CFCFFF76AFDFFF7E8FBE3
:103DA00094F94400401C01D184F8449094F94500F2
:103DB000401C01D184F84590FFF7FAFB05A968463D
:103DC00000F02CF8002820460AD0FFF7BDFA00F0DA
:103DD000A7F92046FFF74CF90028B3D00020CBE725
:103DE000FFF746F990B104F124000599FFF7C8FCEC
:103DF0002046FFF7A9FA00F093F90028A2D1C8F8ED
:103E00000070BFF34F8FBFF36F8F9BE72046FFF724
:103E10009BFA00F085F995E704ED00E02DE9F0410B
:103E20000C46050011D0C4B1FFF7A2FB174B5A692D
:103E30006E682068911B471C17D02F689B6A9F42B1
:103E400019D0964217D8012410E0502080F3118831
:103E5000BFF34F8FBFF36F8FFEE7502080F31188C1
:103E6000BFF34F8FBFF36F8FFEE70024FFF7A0FB78
:103E70002046BDE8F081884205D9401A20602846D6
:103E8000FFF770FCF1E700202060DCE72000002055
:103E90002DE9FF5F8346DDE90E87994616468A467F
:103EA0009000FFF787FA05001CD05C20FFF782FA2C
:103EB000040014D00020256384F85900CDE90240A5
:103EC000CDE900874B46324651465846FFF736F853
:103ED0002046FEF7D3FE012004B0BDE8F09F28463F
:103EE000FFF77AFB4FF0FF30F6E7F0B585B0DDE97C
:103EF0000B640A9DA6B1DCB15C27009726630226FD
:103F000084F85960002604AFCDE90246CDE9005798
:103F1000FFF714F82046FEF7B1FE049805B0F0BD97
:103F2000502080F31188BFF34F8FBFF36F8FFEE7F0
:103F3000502080F31188BFF34F8FBFF36F8FFEE7E0
:103F40000548C16919B1806B18B100207047012084
:103F5000704702207047000020000020014840699F
:103F600070470000200000202DE9F0412E4C002772
:103F7000A06B40B1206A401C2062606A00B101273A
:103F80003846BDE8F0816669761C666113D16068C9
:103F9000006838B1502080F31188BFF34F8FBFF312
:103FA0006F8FFEE76068A1686160A060A06A401C36
:103FB000A062FFF749F9206BDFF87080864209D3D1
:103FC0006068006880B16068C068C56868688642DB
:103FD0000DD220632068C06A00EB800158F82100F0
:103FE0000128CAD90127C8E74FF0FF30F1E7281DA3
:103FF000FFF762FAA86A18B105F11800FFF75CFA3A
:10400000E86AA169884200D9A06100EB800108EB51
:104010008100291DFFF7A0FAE86A2168C96A884271
:10402000CED30127CCE7000020000020A004002010
:1040300070B504004FF0000133D01B4D2868844256
:1040400007D0502080F31188BFF34F8FBFF36F8FDD
:10405000FEE7206D38B1401E2065E36CE26A9A42AB
:104060001FD040B11DE0502080F31188BFF34F8F67
:10407000BFF36F8FFEE7201DFFF71EFAE06CE062D2
:10408000C0F13800A061E06AA969884200D9A8613E
:10409000064900EB800001EB8000211DFFF75CFA70
:1040A0000121084670BD000020000020A00400206F
:1040B00070B5C068C46854B104F118000646FFF733
:1040C000FBF9144DA86B50B13146134815E0502050
:1040D00080F31188BFF34F8FBFF36F8FFEE7201D72
:1040E000FFF7EAF9E06AA969884200D9A8610B499B
:1040F00000EB800001EB8000211DFFF72DFAE06A44
:104100002968C96A884202D90120686270BD00200E
:1041100070BD00002000002028090020A00400201D
:104120002DE9F0472C4D00242746A86B38B1FFF746
:104130001FFAA86B401EA863A86B40B146E0502050
:1041400080F31188BFF34F8FBFF36F8FFEE72969AC
:10415000224E0120D1B3A6F5916980463068E0B1C6
:10416000F068C46804F11800FFF7A6F9201DFFF7F6
:10417000A3F9E06AA969884200D9A86100EB80012F
:1041800009EB8100211DFFF7E7F9E06A2968C96A98
:104190008842E3D3C5F82480E0E70CB1FFF754F878
:1041A0002C6A4CB14FEA0806FFF7DEFE00B16E62E2
:1041B000641EF9D100202862686A38B108490127D5
:1041C00038070860BFF34F8FBFF36F8FFFF7F0F929
:1041D0003846BDE8F08700002000002028090020B4
:1041E00004ED00E010B586B0FEF7B0FD114CA068FC
:1041F000B8B100200390049005AA04A903A8FFF712
:1042000079F9DDE9032102208DE8070000230AA1E6
:104210000B48059AFFF769FEE06010B106B0012077
:1042200010BD502080F31188BFF34F8FBFF36F8F05
:10423000FEE700005C000020546D7220537663009E
:10424000253300082DE9FF411E46134602000A9D52
:104250004FF0000016D0144CA768002F0FD0CDE906
:1042600000130292062917DAFFF76AFE02284FF0C0
:1042700000030FD000226946A068FFF725FC04B0B8
:10428000BDE8F081502080F31188BFF34F8FBFF35A
:104290006F8FFEE72A46EEE700233246694638462E
:1042A000FFF7C2FCEBE700005C0000204C43000875
:1042B00000000000000000000000000000000000FE
:1042C00000020000180000000000000000000000D4
:1042D000444300080000000000000000000000004F
:1042E00000000000000200000800000000000000C4
:1042F000000000003843000800000000000000003B
:1043000000000000000000000002000008000000A3
:104310000000000000000000000610160006101645
:104320000000000000000000010203040607080965
:1043300000000000010203044B6565705374617452
:1043400065000000426C696E6B0000006465666188
:10435000756C745461736B00784300080000002092
:10436000980000002629000810440008980000204A
:10437000A0500000362900080000000000000000E6
:10438000000000000000000001000000100000001C
:10439000000000000024F400000000000000000005
:1043A000000000000000000000000000000000000D
:1043B00000000000000000000000000000000000FD
:1043C00000000000000000000000000000000000ED
:1043D00000000000000000000000000000000000DD
:1043E00000000000000000000000000000000000CD
:1043F00000000000000000000000000000000000BD
:104400000000000000000000AAAAAAAA0000000004
:040000050800018965
:00000001FF
