:020000040800F2
:1000000060BC00205D0200084B2600087123000838
:10001000492600086B040008152B000800000000AA
:100020000000000000000000000000009D0100082A
:100030004905000800000000F901000859260008E1
:1000400077020008770200087702000877020008AC
:10005000770200087702000877020008770200089C
:10006000770200087702000877020008770200088C
:100070006D04000879040008850400089104000854
:100080009D040008A9040008770200087702000810
:10009000770200087702000877020008770200085C
:1000A000770200087702000877020008770200084C
:1000B000770200087702000877020008770200083C
:1000C000770200087702000877020008770200082C
:1000D000770200087702000877020008770200081C
:1000E000770200087702000877020008770200080C
:1000F0007702000829270008770200087702000825
:1001000077020008770200087702000877020008EB
:1001100077020008770200087702000877020008DB
:100120007702000877020008B5040008770200088B
:10013000770200089D050008770200087702000892
:1001400077020008770200087702000877020008AB
:100150007702000877020008C1040008770200084F
:10016000770200087702000877020008770200088B
:1001700077020008770200087702000800000000FC
:100180007702000877020008DFF80CD000F030F9A1
:10019000004800474D6B000860BC00202C4B1968DC
:1001A0000868B0E8F04F80F30988BFF36F8F4FF015
:1001B000000080F3118870470000000008480068C4
:1001C000006880F308884FF0000080F3148862B65E
:1001D00061B6BFF34F8FBFF36F8F00DF00BF00BF6B
:1001E00008ED00E0DFF80C00016841F470010160E7
:1001F000704700BF88ED00E0EFF30980BFF36F8F19
:10020000134B1A681EF0100F08BF20ED108A20E96A
:10021000F04F106009B44FF0500080F31188BFF325
:100220004F8FBFF36F8F0FF071FC4FF0000080F322
:10023000118809BC19680868B0E8F04F1EF0100F6B
:1002400008BFB0EC108A80F30988BFF36F8F704746
:1002500030000020EFF3058070470000064880471B
:1002600006480047FEE7FEE7FEE7FEE7FEE7FEE79B
:10027000FEE7FEE7FEE7FEE70D270008890100081C
:100280002DE9F05F0546002092469B4688460646CB
:10029000814640241BE0284641464746224600F05E
:1002A00097F853465A46C01A914110D31146184642
:1002B000224600F07EF82D1A67EB01084F462246D1
:1002C0000120002100F075F817EB00094E41201EB7
:1002D000A4F10104DFDC484631462A464346BDE826
:1002E000F09F00000649074A0868504343F239026C
:1002F00010440860400870470149086070470000DA
:10030000880100206D4EC64110B5431A934209D2B0
:100310008318881803E010F8011D03F8011D521E10
:10032000F9D210BD40EA01039B0703D009E008C9D8
:10033000121F08C0042AFAD203E011F8013B00F8AA
:10034000013B521EF9D210BDD2B201E000F8012BE0
:10035000491EFBD270470022F6E710B513460A4645
:1003600004461946FFF7F0FF204610BD30B504469D
:100370000020034600E05B1C934203D2E05CCD5CAE
:10038000401BF8D030BD30B50B460146002020227E
:10039000012409E021FA02F59D4205D303FA02F592
:1003A000491B04FA02F52844151EA2F10102F1DCF2
:1003B00030BD202A04DB203A00FA02F10020704709
:1003C0009140C2F1200320FA03F319439040704793
:1003D000202A04DB203A21FA02F00021704721FA9A
:1003E00002F3D040C2F12002914008431946704701
:1003F000064C074D06E0E06840F0010394E8070072
:1004000098471034AC42F6D3FFF7C2FEF40C010853
:10041000140D010870B58C1810F8015B15F0070376
:1004200001D110F8013B2A1106D110F8012B03E08D
:1004300010F8016B01F8016B5B1EF9D12B0705D495
:100440000023521E0DD401F8013BFAE710F8013BDE
:10045000CB1A921C03E013F8015B01F8015B521EFA
:10046000F9D5A142D8D3002070BDFEE7014800F0C5
:100470002FB9000010050020014800F029B9000044
:10048000D0020020014800F023B9000070050020D0
:10049000014800F01DB9000030030020014800F0C1
:1004A00017B9000050040020014800F011B9000005
:1004B000B0040020014800F00BB9000090030020B8
:1004C000014800F005B90000F0030020016818237E
:1004D000CAB2103AB2FBF3F2054B6FF30901032ADB
:1004E0009B5CC36500D9091D816508467047000003
:1004F000100A010810B5014600208B698A6A4FF086
:10050000C07453B1B3F5005F15D072B1012A0CD09D
:10051000022A0AD0032A09D104E01AB1012A06D01E
:10052000022A03D1C96AC90100D5012010BDC96AD8
:10053000A142FAD010BD002AF7D0012AF2D0022A37
:10054000F3D0032AF3D010BD70470000064908B568
:1005500009684FF4FA52B1FBF2F14143009100BF38
:10056000491E0091FBD208BD2C00002038B504467E
:10057000006800F58050816941F480118161206834
:1005800000F58050806900900120FFF7DFFF2068B0
:10059000009900F58050816138BD0000014800F0ED
:1005A00036BB0000B03600202DE9F041044621B1F1
:1005B0004FF40060E060C000A060E0690025002802
:1005C00061D028462368402619683A4A1140D4E988
:1005D00002273A43024342F400700843186020683F
:1005E0000768012000F0AEF92068076020684660C7
:1005F00020684668012000F0A5F920684660206860
:1006000085602068C560216888694FF64172104096
:1006100040F08000886120688669012000F092F92E
:10062000206886612068C5612068C569012000F0E6
:1006300089F92068C561226802F5805290691E49D7
:1006400008401E4901439161206800F5805085698A
:10065000012000F077F9206800F58050856120685E
:10066000174900F580500160206800F5805005684A
:10067000012000F067F9206800F580500560A0694E
:10068000012803D009E04FF480609BE7206800F563
:100690008050C1690B4A1143C16160690A4982886F
:1006A0000A640278D0F8010042EA00204864BDE8FC
:1006B000F08100000F8120FF233FDEF804002002BC
:1006C0008020C1024000010000800240704700000D
:1006D0002DE9F84304464FF00009CDF80090634837
:1006E0004FF41651A56D0068B0FBF1F72E6894F831
:1006F0005C10082000FA01F131420FD021680A682D
:1007000052070BD50A6822F004020A6094F85C10C4
:100710008840A860606D40F00100606594F85C104E
:100720004FF0010808FA01F0304208D02168496909
:10073000090604D5A860606D40F00200606594F879
:100740005C1004208840304208D02168096889077D
:1007500004D5A860606D40F00400606594F85C10FA
:1007600010208840304218D021680968090714D544
:10077000A86020680168490304D50068000308D513
:10078000A16C07E00168C90503D4016821F00801E4
:100790000160216C09B12046884794F85C10202044
:1007A0008840304231D021680968C9062DD5A8603B
:1007B00094F8350005282068016806D0490347D51C
:1007C000006800031DD4616C1CE021F0160101607B
:1007D0002068416921F080014161206C08B9A06C5A
:1007E00020B12068016821F00801016094F85C10D4
:1007F0003F208840A86084F8349084F83580216DCB
:100800001FE0E16B09B120468847606D00282BD0BE
:10081000606DC00714D0052084F835002068016899
:1008200021F0010101600098401C0090B84203D8FB
:1008300020680068C007F6D184F8349084F83580C9
:10084000E16C002910D001B02046BDE8F043084714
:100850000168C905D5D4016821F01001016084F850
:10086000349084F83580CCE7BDE8F8832C00002074
:100870002DE9F041044600F0E1FD06465CB100259B
:1008800084F83450022084F835002068016821F093
:10089000010101600DE00120BDE8F08100F0CEFD16
:1008A000801B052805D920206065032084F83500C9
:1008B000F2E720680068C007F0D12268116820487C
:1008C0000140D4E901031843D4E903363343184304
:1008D00063691843A3691843E3691843236A1843FB
:1008E0000843616A042903D1D4E90B13194308436F
:1008F000106020684069666A20F0070130460E43A8
:10090000012704280CD1A06A0643E06A40B12046C2
:10091000FFF7F0FD20B14020606584F83570BAE73C
:10092000206846612046FFF7D1FD94F85C203F2106
:1009300091408160656584F835700020ACE7000067
:100940003F8010F070B5044600F078FD0546601C4D
:1009500002D004480078044400F070FD401BA0421F
:10096000FAD370BD200000202DE9F041054690F833
:1009700045000C46012875D0012685F84560022007
:1009800085F84400002C70D02A6811684148014065
:10099000D4E900031843D4E902373B431843AB685A
:1009A00018432369184363691843EB681843A36924
:1009B0001843E3691843236A1843636A1843A36A18
:1009C000184308431060286807680120FFF7BAFF42
:1009D00028680760D4E90B010843D4E90D121143DC
:1009E0000843E16B0843216C0843616C0843A16C28
:1009F000084329684860286847680120FFF7A2FF7C
:100A0000286847602968E06C88602968206DC860A4
:100A10002A6891694FF641700140D4E916031843E2
:100A2000B4F85470236E43EA07431843636E1843C7
:100A3000A36E184308439061286887690120FFF777
:100A400081FF28688761D4E91B0108432968C861D0
:100A50002868C4690120FFF775FF2868C46114E0A5
:100A600000E002E00220BDE8F0812968086820F477
:100A70009042D5E9020318431043086028680468CF
:100A80000120FFF75FFF2868046005F8446F00202D
:100A90006870E8E70F8120FF2DE9F04390F84540AA
:100AA0000025012C0DD04FF0010C80F845C0022428
:100AB00080F8444044F2F4574FF000495E1E8162D2
:100AC00017E00220BDE8F08301EB4514C4F8009064
:100AD000C5EBC51808EB480802EB8808C4E90178A3
:100AE000B54204D204F12008C4F80C8000E0E160B3
:100AF0006D1C9D42E8D3026802F58052D16080F8F7
:100B000044C0002180F845100846DBE72DE9F0439A
:100B1000914690F845200024012A0AD0012680F849
:100B20004560022280F844204FF4801C5D1EC162A3
:100B30001BE00220BDE8F08301EB4412C2F800C0C4
:100B4000C4EBC41707EB470809EB88079760C76930
:100B50001FB9176847F440071760AC4203D202F18F
:100B60002007D76000E0D160641C9C42E4D3026897
:100B700002F58052116180F84460002180F8451030
:100B80000846D7E7704730B590F845100023012993
:100B900008D0012280F84520022180F8441000246A
:100BA000816A1AE0022030BD0D685B1CC5F3012587
:100BB000022D0AD00D6815F4407F09D04163836B84
:100BC0005B1C8363012B12D012E08263016302E09D
:100BD000856B6D1C8563C96881620D68002D01DB22
:100BE000042BE1D300F8442F4470012030BD016391
:100BF0000B68C3F30D431B1FC363036B9B68036444
:100C0000C96840F8281F02774477002030BD70B5CE
:100C10000446006800F5805041694FF00005490620
:100C20004FF0010608D5204600F0DAF9206840218F
:100C300000F58050416109E04069C0070AD02046B4
:100C400000F0DCFA206800F58050466184F84460CA
:100C500084F8455020684FF4803100F580504161A0
:100C6000206800F58050406900040CD52046FFF74D
:100C700089FF20684FF4004100F58050416184F8FD
:100C8000446084F8455070BD2DE9FC474FF00006E4
:100C90000400B146009603D094F8440018B107E070
:100CA0000120BDE8FC8784F84560204600F0E2F8AA
:100CB0006648016841F480410160006800F48040AA
:100CC00001906348016821F4000101600168226A13
:100CD00011430160206800F58050016841F0010176
:100CE000016000F0ABFB05464FF4FA7709E000BF66
:100CF00000F0A4FB401BB84203D9032004F8440FC2
:100D000067E0206800F580500068C007F0D12068D7
:100D1000006920F01C0500F005FD4E494E4A0144D3
:100D2000914202D245F0080516E04C494C4A014474
:100D3000914202D245F00C050EE04A494A4A01446C
:100D4000914209D3494908444949884202D245F0B1
:100D5000040501E045F01005206805614FF40042EC
:100D60000021204600F04CFA0125A8BBFF20FFF728
:100D7000E9FD606888B300F061FB804641F2883786
:100D80006A460121204600F0E9F800F057FBA0EB8D
:100D90000800B84217D800984007F1D54FF48052A8
:100DA0000021204600F02CFAB0B900F047FB804645
:100DB0006A460121204600F0D1F800F03FFBA0EB8D
:100DC0000800B8420AD901212046FFF7EDFB04F8DC
:100DD000445F0320667064E724E018E00098800612
:100DE000E6D56A461F21204600F0B8F8D0B9009831
:100DF000C10603D54FF40061E16000E0E660400702
:100E000001D5A66019E04FF48040A06015E0E068CD
:100E1000A168C00840EA510082B20021204600F0DB
:100E2000EFF930B101212046FFF7BEFB84F84450B2
:100E300036E740F6FF70FFF785FD49462046FFF78D
:100E4000B3FB84F8445000202BE7000044380240F4
:100E50000438014000D3CEFEC0E1E40040F1E9FDDA
:100E600040787D0100796CFC005A6202001F0AFA8A
:100E700080F0FA02F0B587B0044614216846FFF707
:100E80006AFA3149206888425BD130480024016801
:100E900041F000710160016801F000710591016885
:100EA00041F080610160016801F080610591016895
:100EB00041F000610160016801F000610591016885
:100EC00041F004010160016801F00401059101682D
:100ED00041F001010160016801F001010591016823
:100EE00041F0020101600068022500F00200059057
:100EF0003220CDE9000502AA03260B2782E8D000A4
:100F00006946134800F0B8F98620CDE9000502AA29
:100F1000694682E8D0000F4800F0AEF94FF4605007
:100F2000CDE9000502AA694682E8D0000A4800F02F
:100F3000A3F9002211463D2000F008FB3D2000F0FF
:100F4000F7FA07B0F0BD00000080024030380240E0
:100F50000008024000000240000402402DE9F04772
:100F6000044690F84400914682281DD0822084F8DF
:100F70004400226810694FF6FF7500F01C03208AB8
:100F800005EAC02018434FF4F86303EA81110143D6
:100F900021F0020040F00105156100F04FFA06460D
:100FA00001274FF4803810E00220BDE8F08700BF31
:100FB00000F044FA801B404505D304F8447F00202C
:100FC00060700320F1E720680569E807F0D1206828
:100FD000406981B2C9F8001084F844700020E4E749
:100FE0000148006807F01CB804000020F8B504466A
:100FF00090F84500012839D0012584F84550022099
:1010000084F8440020680026016841F0080101606E
:101010002068006800902846FFF798FA2168009839
:1010200008602068016841F00401016020680068E0
:1010300000900120FFF78AFA216800980860204696
:10104000FFF794FA206800F58050816941F400515F
:101050008161206800F58050816941F00201816161
:1010600084F8445084F845600020F8BD0220F8BDA3
:10107000F8B5044690F84500012839D0012584F8D8
:101080004550022084F84400206800F580508169B2
:1010900021F400518161206800F58050816921F0C0
:1010A0000201816120680026016821F004010160CD
:1010B0002068006800900120FFF748FA2168009836
:1010C00008602046FFF752FA2068016821F0080105
:1010D00001602068006800900120FFF737FA21685E
:1010E0000098086084F8445084F845600020F8BDFA
:1010F0000220F8BDF0B590F845200023012A11D058
:10110000012780F84570022280F84420002459B15C
:10111000C66A3268002A0ADA122100F8441F4470B5
:101120000120F0BD0220F0BD00F8447FF7E740F257
:10113000F455A9420BD9B1FBF5FCB1FBF5F205FB67
:101140001C1CBCF1000F00D0521C012A43D1326894
:1011500042F040523260C26AC1F30C015160C16A70
:101160000A6842F000420A60C16AC968C16234E09C
:10117000D6F800C02CF0405CC6F800C033B9C66A8F
:10118000D6F800C04CF0805CC6F800C0C66A756036
:10119000561EB34214D1C66AD6F800C04CF0005CAB
:1011A000C6F800C0C2F10106C6EBC61606EB46063D
:1011B000D0F82CC001EB8606C6F30C06CCF8046010
:1011C000C66AD6F800C04CF0004CC6F800C0C66A2B
:1011D0005B1CF668C6629342CAD3016801F5805170
:1011E0004A69520705D504224A61016801F5805118
:1011F0004C6000F8447F44700020F0BD7047000050
:101200002DE9F041044690F8440042281ED04220C7
:1012100084F84400236818694FF6FF7600F01C0537
:10122000208A06EAC02028434FF4F86505EA8111B8
:10123000014390B241F0030558612068056100F058
:10124000FDF8064601274FF4803810E00220BDE883
:10125000F08100BF00F0F2F8801B404505D304F890
:10126000447F002060700320F1E720680569E807EB
:10127000F0D184F84470EAE72DE9F84F00224FF0EE
:10128000010803254FF00F0E0B6808FA02F4234003
:10129000A3426ED14E68012E05D0022E03D0112E2E
:1012A00001D0122E12D186684FEA420C05FA0CF7D3
:1012B000BE43CF6807FA0CF7374387604668A643FA
:1012C0000C79C4F30014944034434460C66857005A
:1012D00005FA07FC8C6826EA0C06BC403443C4605F
:1012E0004C68022C01D0122C13D1D40800EB8404DA
:1012F000A346D4F8209054074FEAD46A0EFA0AF6AF
:1013000029EA06090E6906FA0AF646EA0906CBF842
:10131000206006680C7926EA0C0604F00304BC4041
:10132000344304604C68E40065D5364C266846F4C6
:1013300080462660246822F0030604F4804400946A
:10134000314C3444A446D4F808489607370F0EFAB7
:1013500007F6B4432D4EB04201D1002624E02C4EB6
:10136000B04201D101261FE02A4EB04202D102262E
:101370001AE040E0284EB04201D1032614E0274E87
:10138000B04201D104260FE0254EB04201D105261E
:101390000AE0244EB04201D1062605E0224EB042BA
:1013A00001D1072600E00826BE402643CCF8086895
:1013B0001E4E34684F689C43FF0300D51C433460C5
:1013C0001A4C241D26684F689E43BF0300D51E4358
:1013D0002660164E083634684F689C43FF0200D5DD
:1013E0001C433460114E0C3634684F689C43BF0276
:1013F00000D51C433460521C102AFFF445AFBDE8F1
:10140000F88F0000443802400030014000000240E4
:101410000004024000080240000C0240001002409C
:101420000014024000180240001C0240003C014031
:101430000AB1816170470904FBE700000148806838
:1014400070470000200000200248816802781144A3
:1014500081607047200000200B4810B5016841F4FE
:1014600000710160016841F480610160016841F42C
:1014700080710160032000F089F8002000F006F878
:1014800000F03EF8002010BD003C024010B50146BF
:1014900088B000222D2000F059F82D2000F048F8E7
:1014A00013480024016841F480710160006805A9B7
:1014B00000F480700690684600F014F900F038F9E6
:1014C0000C494000B0FBF1F10C480B4A491E026088
:1014D00040F2E732C0E90324C0E9011400F070FBD8
:1014E00010B1012008B010BD044800F099FBF9E7E5
:1014F0004038024040420F0000200040D00500204C
:101500000A4808B5016841F480410160006800F4B0
:10151000804000900548001F016841F08051016043
:10152000006800F08050009008BD00004438024080
:10153000002809DB00F01F020121914040098000D2
:1015400000F1E020C0F8001170470000F0B40E4B2D
:101550001B680C46C3F30223C3F10705042D00D911
:101560000425191D072901D2002300E0DB1E0126F6
:1015700006FA05F1491E214099409E40761E16400C
:101580003143F0BC01F0D8BA0CED00E0064900F0A0
:10159000070208684FF6FF03184040EA0220034A9A
:1015A00010430860704700000CED00E00000FA05F1
:1015B0002DE9F0470E46050065D0DFF81481D8F814
:1015C0000000F7B200F00F00B04207D288F80070B8
:1015D000D8F8000000F00F00B04254D128683D4C0C
:1015E000810712D5400703D5206840F4E050206001
:1015F0002878000703D5206840F460402060206808
:10160000A96820F0F000084320602878C0072DD09A
:10161000304968680839012812D0022813D00328FD
:1016200011D00968890700292DDA216821F003010A
:1016300001432160FFF702FF814641F2883A0EE044
:1016400009688903EFE709688901ECE7FFF7F6FE0F
:10165000A0EB0901514502D90320BDE8F0872068BD
:10166000696800F00C00B0EB810FEFD1D8F80010E2
:10167000404601F00F01B14207D90770006800F041
:101680000F00B04201D00120E7E72878400705D5D8
:101690002068E96820F4E0500843206028780007BB
:1016A00006D52068296920F4604040EAC100206026
:1016B00000F05EF82168084AC1F30311515CC8408C
:1016C0000649086006480068FFF7E0FE0020C4E70E
:1016D000003C024008380240180A01082C00002093
:1016E000240000200F2202600C4A136803F0030359
:1016F0004360136803F0F0038360136803F4E0535E
:10170000C36012684FF4E05303EAD2020261044856
:10171000006800F00F0008607047000008380240C1
:10172000003C024001480068704700002C00002087
:101730000448054900680968044AC1F38221515CE4
:10174000C84070472C00002008380240280A0108D1
:101750000448054900680968044AC1F34231515CF4
:10176000C84070472C00002008380240280A0108B1
:10177000154810B5006810F00C02144813D0411041
:10178000042A0FD0082A0ED10F4C241F2268236888
:1017900002F03F025B0207D52068C0F38810A0FB6F
:1017A000010106E0084610BD2168C1F38811A1FBC4
:1017B00000010023FEF764FD2168C1F30141491CCB
:1017C0004900B0FBF1F010BD083802400024F400DD
:1017D0002DE9F84F04006ED02078DFF83C93C00765
:1017E000A9F104054AD009F104000168C1F381019F
:1017F000012908D00068C0F3810002280AD1D9F875
:101800000000400206D52868800337D560680028AC
:10181000E1D033E06068B0F5803F10D0B0F5A02F84
:10182000286810D020F480302860286820F48020B8
:1018300028606068A8B1FFF701FE06460DE0286841
:1018400040F48030F4E740F480202860F7E700BFE0
:10185000FFF7F4FD801B642873D828688003F7D550
:101860000CE0FFF7EBFD064605E000BFFFF7E6FDE5
:10187000801B6428F0D828688003F7D42078DFF82C
:101880009C8280074FF0000A3ED5A348001D0168E6
:1018900011F00C0F08D00068C0F3810002280BD1B2
:1018A000D9F80000400207D42868800716D5E06800
:1018B000012800D112E02BE1E068B8B10120C8F89E
:1018C0000000FFF7BBFD064605E000BFFFF7B6FDD1
:1018D000801B0228C0D828688007F7D528682169AE
:1018E00020F0F80040EAC10028600DE0C8F800A030
:1018F000FFF7A4FD064604E0FFF7A0FD801B0228C9
:101900001FD828688007F7D42078000722D5824E98
:1019100083486169703671B101210160FFF78EFD66
:10192000074604E0FFF78AFDC01B022809D830688B
:101930008007F7D50EE0C0F800A0FFF77FFD07464F
:1019400005E082E0FFF77AFDC01B02287DD83068F1
:101950008007F7D42078400768D5DFF8BCB10027AE
:101960000BF13C0BDBF80000C0000BD4DBF80010DF
:1019700041F08051CBF80010DBF80000012700F0A7
:1019800080500090674E3068C00510D4306840F435
:1019900080703060FFF752FD009005E0FFF74EFDCC
:1019A0000099401A022850D83068C005F6D55A4E22
:1019B000A0686C3601280FD00528306810D020F0C0
:1019C00001003060306820F004003060A068B8B1D9
:1019D000FFF734FD00900FE0306840F00100F4E7BD
:1019E00040F004003060F7E7FFF728FD0099411A46
:1019F00041F28830814266D830688007F4D50EE025
:101A0000FFF71CFD009007E0FFF718FD0099411A51
:101A100041F28830814256D830688007F4D42FB123
:101A2000DBF8001021F08051CBF80010A069C8B39A
:101A30003949091D0968C1F3810102294AD00228E8
:101A4000504607D0C8F8600000E03CE0FFF7F6FC25
:101A500004463BE04746C8F86000FFF7EFFC064647
:101A600005E000BFFFF7EAFC801B02282BD828689E
:101A70008001F7D4D4E907010843A16A2A4A49083A
:101A800002EB0141626A41EA8211084394F82C108A
:101A900040EA0161C9F8001001203866FFF7CEFC6A
:101AA000044606E036E000BFFFF7C8FC001B022832
:101AB00009D828688001F7D52CE000BFFFF7BEFCED
:101AC000001B022802D90320BDE8F88F2868800196
:101AD000F4D41FE00128F7D0D9F80000E26900F43F
:101AE0008001914214D1226A00F03F0191420FD14E
:101AF00047F6C071626A0140914209D1A26A00F4BE
:101B00004031914204D1E16A00F07060884201D016
:101B10000120D9E70020D7E70438024000004742FF
:101B2000800E4742007000400000FFFF7047704782
:101B300070B590F83C20012A32D0012480F83C4056
:101B4000022280F83D2003685A689D6822F07006E2
:101B50000A6832435A60134B02689A4214D0B2F1B9
:101B6000804F11D0104B9A420ED0104B9A420BD09E
:101B70000F4B9A4208D00F4B9A4205D00E4B9A4217
:101B800002D00E4B9A4204D1496825F080031943D4
:101B9000916080F83D40002180F83C10084670BDFF
:101BA000022070BD00000140000400400008004019
:101BB000000C0040000401400040014000180040BB
:101BC00010B5040003D094F83D0010B107E00120E7
:101BD00010BD002084F83C00204600F00DF80220E3
:101BE00084F83D00211D206800F0A4FD012084F848
:101BF0003D00002010BD000008B50068064988427D
:101C000008D10648016841F002010160006800F057
:101C10000200009008BD000000040040403802406F
:101C20000168CA6842F00102CA600068816801F078
:101C30000701062903D0016841F00101016000207D
:101C4000704770B5044690F83C00012817D0012574
:101C500084F83C50022084F83D002068826822F01D
:101C6000770222F47F4282600868502830D00DDC71
:101C700020284DD005DC98B310283BD148E0022045
:101C800070BD302844D0402834D139E0602828D0B5
:101C9000702806D0B0F5805F2CD0B0F5005F29D158
:101CA0000AE0CB68D1E90121206800F0A7FD206897
:101CB000816841F0770109E0CB68D1E90121206812
:101CC00000F09CFD2068816841F48041816011E052
:101CD000CA684968206800F065FE5021206807E066
:101CE00016E0CA684968206800F06DFE602120682F
:101CF00000F08EFD84F83D50002084F83C0070BD5B
:101D0000CA684968206800F04DFE40212068EFE76E
:101D1000226801461046EBE7704770B5044600683C
:101D200001694FF00005C943890715D4C168C9434B
:101D3000890711D4E91E016101202077206880699C
:101D40008007204602D0FFF7E7FF04E000F0C0F86C
:101D5000204600F042F9257720680169C943490708
:101D600017D4C168C943490713D46FF00401016156
:101D7000022020772068806910F4407F204602D03E
:101D8000FFF7CAFF04E000F0A3F8204600F025F9B1
:101D9000257720680169C943090716D4C168C9437A
:101DA000090712D46FF00801016104202077206830
:101DB000C0698007204602D0FFF7AEFF04E000F0C4
:101DC00087F8204600F009F9257720680169C943A2
:101DD000C90617D4C168C943C90613D46FF01001EE
:101DE0000161082020772068C06910F4407F2046F8
:101DF00002D0FFF791FF04E000F06AF8204600F0FF
:101E0000ECF8257720680169C943C90708D1C16882
:101E1000C943C90704D1891E0161204600F0DEF8DC
:101E200020680169C943090609D4C168C943090684
:101E300005D46FF0800101612046FFF777FE20682E
:101E40000169C943490609D4C168C943490605D493
:101E50006FF040010161204600F0CAF82068016976
:101E6000C94389060BD4C168C943890607D46FF0FA
:101E7000200101612046BDE87040FFF758BE70BDEB
:101E800010B586B0044614216846FEF764FA0D4981
:101E90002068884214D10C480021026842F00202F6
:101EA0000260006800F002000590102000900220FF
:101EB000CDE90101CDE9031069460448FFF7DCF9DB
:101EC00006B010BD0004004030380240000402405B
:101ED000704770B5044690F83C000D4601280DD0BF
:101EE000012684F83C60022084F83D0042B1042AB7
:101EF00018D0082A2AD00C2A4DD139E0022070BD12
:101F0000206800F08DFC2068816941F00801816142
:101F10002068816921F004018161206881692A6952
:101F2000114311E0206800F0ABFC2068816941F4A6
:101F3000006181612068816921F48061816120688C
:101F400081692A6941EA0221816124E0206800F068
:101F5000CDFC2068C16941F00801C1612068C169F8
:101F600021F00401C1612068C1692A69114311E0AF
:101F7000206800F0EFFC2068C16941F40061C16194
:101F80002068C16921F48061C1612068C1692A6942
:101F900041EA0221C16184F83D60002084F83C00E0
:101FA00070BD10B5040003D094F83D0010B107E0F7
:101FB000012010BD002084F83C00204600F00CF801
:101FC000022084F83D00211D206800F0B3FB0120B1
:101FD00084F83D00002010BD704770470068034939
:101FE000884201D1FFF730BA70470000002000405E
:101FF000704770B5040004D094F83900002510B182
:1020000006E0012070BD84F83850204600F022F828
:10201000242084F839002068C16821F40051C1608F
:10202000204600F0E3FC2068016921F49041016141
:102030002068416921F02A0141612068C16841F4AA
:102040000051C160E563202084F8390084F83A002B
:10205000002070BD2DE9F04F87B00446142168467A
:10206000FEF779F9B148DFF8C082103802212768FD
:10207000AE4B03228D0606154FF040094FF0000CC1
:10208000474552D1E0466746D3F800C04CF4002CD7
:10209000C3F800C01B6803F400230593036843F0F2
:1020A00004030360006800F0040005909002CDE98D
:1020B00000010120CDE902020820049069469C48F5
:1020C000FFF7DAF8DFF870A29A4950468AE8A200D2
:1020D000C0E90376CAF81470CAF81870CAF81C7000
:1020E000CAF82070CAF82470FEF7C2FB08B1FEF7E8
:1020F000EDFA9048914FC4F834A03030CAF8384017
:1021000087E82102C7E90386C7F81480C7F818805A
:10211000C7F81C80C7F820803846C7F82480FAE04A
:102120002763BC6307B0BDE8F08FDFF814824FF07F
:10213000070A47454CD17D4BE0461B1D6746D3F847
:1021400000C04CF0100CC3F800C01B6803F0100373
:102150000593036843F002030360006800F0020087
:102160000590C0208DE88300CDE9032A69467548B3
:10217000FFF782F8DFF8D4A1734950468AE8A2003D
:10218000C0E90376CAF81470CAF81870CAF81C704F
:10219000CAF82070CAF82470FEF76AFB08B1FEF78F
:1021A00095FA69486A4FC4F834A07830CAF83840C4
:1021B00087E82102C7E90386C7F81480C7F81880AA
:1021C000C7F81C80C7F820803846C7F82480A2E0F2
:1021D000DFF88081DFF880B147454BD1E0466746A4
:1021E000D3F800C04CF4003CC3F800C01B6803F4F3
:1021F00000330593036843F008030360006800F0B0
:102200000800059060208DE88300CDE9032A694627
:102210005846FFF731F8DFF844A1464950464831A7
:102220008AE8A200C0E90376CAF81470CAF81870E8
:10223000CAF81C70CAF82070CAF82470FEF718FBA0
:1022400008B1FEF743FA3B48454FC4F834A060306C
:10225000CAF8384087E82102C7E90386C7F8148026
:10226000C7F81880C7F81C80C7F820803846C7F820
:10227000248050E0DFF8EC8047457FF453AFE04620
:102280006746D3F800C04CF4802CC3F800C01B682C
:1022900003F480230593036843F008030360006898
:1022A00000F0080005904FF440708DE88300CDE900
:1022B000032A69465846FEF7DFFFDFF8ACA01D4948
:1022C000504618398AE8A200C0E90376CAF81470AB
:1022D000CAF81870CAF81C70CAF82070CAF82470BE
:1022E000FEF7C6FA08B1FEF7F1F912481F4FC4F81D
:1022F00034A01830CAF8384087E82102C7E90386BD
:10230000C7F81480C7F81880C7F81C80C7F8208069
:102310003846C7F82480FEF7ABFA00283FF400AF38
:10232000FEF7D4F9FCE60000004C004040380240C3
:102330000008024040600240D0020020300300202C
:10234000001001400004024040640240900300205D
:10235000F003002000440040000C02405004002024
:10236000B004002000480040100500207005002047
:10237000FEE70000294808B5016841F480010160CA
:10238000016801F480010091016841F400110160CD
:102390000068002200F40010009011460C20FFF7A6
:1023A000D5F80C20FFF7C4F8002211460D20FFF7E6
:1023B000CDF80D20FFF7BCF8002211460E20FFF7E4
:1023C000C5F80E20FFF7B4F8002211460F20FFF7E2
:1023D000BDF80F20FFF7ACF8002211461020FFF7E0
:1023E000B5F81020FFF7A4F8002211461120FFF7DE
:1023F000ADF81120FFF79CF8002211463A20FFF7B4
:10240000A5F83A20FFF794F8002211464620FFF77E
:102410009DF8BDE808404620FFF78AB830380240F2
:102420002DE9F04387B014216846FDF794FF334847
:102430000024016841F010010160016801F0100101
:102440000591016841F004010160016801F0040197
:102450000591016841F080010160016801F080018F
:102460000591016841F001010160016801F001017D
:102470000591016841F002010160016801F002016B
:102480000591016841F0080101600068DFF8708083
:1024900000F008000590012204214046FEF7C8FF25
:1024A000DFF860904FF47047002239464846FEF747
:1024B000BFFF042601250096CDE901546946404638
:1024C0000394FEF7D9FE10480095CDE90104694652
:1024D0000E48FEF7D1FECDE9006469460C4802942F
:1024E000FEF7CAFE0097CDE90154694648460394B9
:1024F000FEF7C2FE07B0BDE8F083000030380240AE
:1025000000100240000C02400000121000000240C7
:10251000000402403EB5002108460CF025F924498C
:102520000020254A0860091D214B0860091D083359
:102530000860CDE900021F4902911A1F111F1F48B0
:1025400004F090FF1D4805F0A9F91C4C94F83100E7
:102550004007204602D505F0B9FA01E005F0A4F9DC
:102560001749164805F0F4F901210022084605F044
:10257000FFFC0F49091F08601031C1E900400F48F6
:1025800024213830FDF7E7FE0C480EA13830024612
:1025900001604FF4806141611021816104490B4861
:1025A0000C3105F075FDBDE83E40044801F018BF50
:1025B0000C00002039E9000819540008F836002002
:1025C0003D5500084C696E6B54687200F954000860
:1025D00010B58EB000240794089409940A940B94C3
:1025E0001C2168460C94FDF7B6FE16481449C0E954
:1025F00000144FF6FF71C0E9024104618461FFF7E6
:10260000DFFA4FF48050079007A90E48FFF719FB37
:102610000C48FFF7C6FC0B940BA90A480C94FFF773
:1026200087FA6020CDE9000402940022694605483B
:102630000494FFF74EFC0348FFF722FC0EB010BDD8
:102640000004004090010020FEE77047FFF762FFA2
:10265000012005F08BFAFBE710B5502080F31188BC
:10266000BFF34F8FBFF36F8F0DF0E2FF18B1044936
:102670004FF080500860002080F3118810BD0000EA
:1026800004ED00E030B593B030216846FDF763FEFD
:1026900014210CA8FDF75FFE1A480025016841F0DF
:1026A00080510160006800F0805011901648016868
:1026B00041F4804101600068022400F480401190E0
:1026C00001200090000401908001CDE9064008201F
:1026D00008904FF4A870CDE9090407200B906846D4
:1026E000FFF776F80CA90F2081E831004FF4A050D5
:1026F0000F90E002109005210CA8FEF759FF13B0CF
:1027000030BD0000403802400070004005480168BC
:1027100041F47001016003494FF0006080390860A6
:102720007047000088ED00E00148FFF7F6BA0000AE
:10273000D0050020F0B50268254C264D264E274FC7
:10274000274B4FF0804CA04209D0604507D0A842EB
:1027500005D0B04203D0B84201D0984204D122F053
:10276000700E4A6842EA0E02A0421BD0604519D0A2
:10277000A84217D0B04215D0B84213D0984211D019
:10278000184DA8420ED0184DA8420BD0174DA842A4
:1027900008D0174DA84205D0164DA84202D0164DBC
:1027A000A84203D122F44075CA682A434D6922F039
:1027B00080022A4302608A68C2620A688262A0427A
:1027C00001D0984201D10969016301214161F0BD45
:1027D000000001400004004000080040000C0040E0
:1027E0000004014000400140004401400048014015
:1027F00000180040001C00400020004010B5846814
:1028000042EA032224F47F440A432243826010BD3B
:10281000826822F070020A4342F00701816070472B
:10282000F0B5026A22F001020262036A426884691A
:10283000124E24F073050C682C4323F002058B68BC
:102840002B430D4DA84201D0B04205D123F008071B
:10285000CB683B4323F00403A84201D0B04205D12A
:102860004D6922F4407215438A692A4342608461AB
:10287000496841630362F0BD00000140000401406B
:10288000F0B5026A22F010020262026A43688469AB
:102890000D6824F4E64444EA05248D6822F0200201
:1028A00042EA05120F4D104EA84201D0B04206D1A7
:1028B000CF6822F0800242EA071222F04002A842CA
:1028C00001D0B04207D14D6923F4406343EA850348
:1028D0008D6943EA850343608461496881630262CC
:1028E000F0BD00000000014000040140F0B5026AA4
:1028F00022F480720262026A4368C46922F40072A0
:1029000024F073050C68124E2C438D6842EA0522B0
:102910000E4DA84201D0B04206D1CF6822F4006229
:1029200042EA072222F48062A84201D0B04207D1D5
:102930004D6923F4405343EA05138D6943EA0513B7
:102940004360C4614968C1630262F0BD0000014098
:102950000004014030B5026A22F480520262046A27
:102960004268C3690D6823F4E64343EA05238D6892
:1029700024F4005444EA0534084DA84202D0084D1E
:10298000A84204D14D6922F4804242EA8512426095
:10299000C36149680164046230BD00000000014069
:1029A0000004014010B5036A046A24F001040462C3
:1029B000846924F0F00444EA021423F00A020A4372
:1029C0008461026210BD10B5036A23F01003036234
:1029D0008369046A23F4704343EA023224F0A003BB
:1029E00043EA01118261016210BD00002DE9F0414E
:1029F000044600680169E26821F440511143016115
:102A00002169A068E26908436169114308432168AC
:102A1000CA6849F20C639A430243CA60206841695C
:102A2000A26921F4407111434161E06919276425CD
:102A30003226B0F5004F354A354920684FF000087E
:102A400006D0884201D0904236D1FEF781FE35E0B3
:102A5000884201D0904202D1FEF77AFE01E0FEF7F3
:102A600067FE61684A18A0FB070148EB0803FDF701
:102A700007FC0146B0FBF5F00201B1FBF5F06FF089
:102A80001803584301EB800006EBC000B0FBF5F0E3
:102A900000F0F80002EB4002B1FBF5F0584301EB07
:102AA000800006EBC000B0FBF5F000F007002168E5
:102AB00010448860BDE8F081FEF73AFE61688B0F34
:102AC0008A00A0FB0701FDF7DBFB0146B0FBF5F038
:102AD0006FF01802504301EB800006EB0010B0FBD2
:102AE000F5F000F0F002B1FBF5F002EB0012B1FBE3
:102AF000F5F06FF01803584301EB800006EB00106F
:102B0000B0FBF5F000F00F00D1E700000014014029
:102B100000100140FEE700000FB4054B10B503A9FB
:102B2000044A029800F028F810BC5DF814FB00007D
:102B3000ED5500088C0100200907090E002804DB70
:102B400000F1E02080F80014704700F00F0000F161
:102B5000E02080F8141D704702E008C8121F08C169
:102B6000002AFAD170477047002001E001C1121F0E
:102B7000002AFBD1704700002DE9FF4F8BB09A4629
:102B80000F460546002606E025280BD052460D9933
:102B900090476D1C761C28780028F5D10FB0304680
:102BA000BDE8F08F0024A0460122604900E0044304
:102BB00015F8013F203B02FA03F00842F7D12878CC
:102BC0002E2817D115F8010F44F004042A280ED03E
:102BD0006FF02F022878A0F1300109290AD808EBFC
:102BE000880102EB410100EB01086D1CF2E757F888
:102BF000048B6D1C287869283ED006DC0028CDD0D7
:102C000063280BD0642804D136E0732810D07528CF
:102C10004BD052460D999047761C85E017F8040B6F
:102C20008DF8000000208DF80100E946012003E046
:102C300057F8049B4FF0FF3061074FF0000401D4B8
:102C40000AE0641C44450DDA8442FADB19F80410EA
:102C50000029F6D106E0641C8442FCDB19F804105C
:102C60000029F8D1264404E019F8010B52460D99C9
:102C70009047641EF8D257E001CF4FF00A0B0028AE
:102C800002DA40422D2102E0210504D52B218DF8E6
:102C90002410012103E0E10705D02021F7E70DF121
:102CA000200908910CE00021F9E701CF4FF00A0B51
:102CB000F9E75946FDF767FB01F1300209F8012DEC
:102CC0000028F6D1ADEB090000F1200B600701D41C
:102CD0004FF00108D84502DDA8EB0B0000E0002012
:102CE0008046002406E009A85246005D0D999047F1
:102CF000641C761C08988442F5DB04E030205246C0
:102D00000D999047761CB8F10001A8F10108F5DC97
:102D100005E019F8010B52460D999047761CBBF15E
:102D20000001ABF1010BF4DC6D1C34E70928010054
:102D300058B1426A002A0FD05379082B0CD1096888
:102D4000D269914208D100F0C3BA04A340F28B3299
:102D500010A114A0FFF7E0BE704700002E2E2F4DEB
:102D60006964646C6577617265732F546869726415
:102D70005F50617274792F4C7749502F7372632FB3
:102D8000636F72652F697076342F646863702E6389
:102D9000000000006E6574696620213D204E554C90
:102DA0004C000000417373657274696F6E202225B8
:102DB0007322206661696C6564206174206C696EA1
:102DC0006520256420696E2025730A002DE9FC41E9
:102DD00005001AD06C6AECB100236382A16A4FF03F
:102DE0003C07B1F1FF3F4FF480364FF001024FF640
:102DF000FF7019D01E31B1FBF7F1B14200D301468B
:102E00000904090CA1820ED00EE02DA340F2154258
:102E100039A103E02AA340F217423EA143A0FFF7E5
:102E20007BFEBDE8FC81A282E16AB1F1FF3F0CD0DC
:102E30001E31B1FBF7F1B14200D301460904090C80
:102E4000618100D162816189E181216BB1F1FF3F34
:102E50000CD01E31B1FBF7F1B14200D30146090499
:102E6000090CA18100D1A281A18921826289A18955
:102E70008A4201D301B16381E17909B1206A08E096
:102E8000217F7F2901D8FF2003E0C02901D36FF003
:102E90007F400090606A019028B9E069009908407D
:102EA00040F0807001900A21204601F091FA01ABB8
:102EB0006A4604F11C01284604F0C0FCB1E700009A
:102EC0002E2E2F4D6964646C6577617265732F5483
:102ED000686972645F50617274792F4C7749502F22
:102EE0007372632F636F72652F697076342F646815
:102EF00063702E6300000000646863705F62696E37
:102F0000643A206E6574696620213D204E554C4C14
:102F100000000000646863705F62696E643A206458
:102F200068637020213D204E554C4C004173736501
:102F30007274696F6E2022257322206661696C6548
:102F400064206174206C696E6520256420696E20A0
:102F500025730A0070B5446A05460821204601F031
:102F600037FA002204F11C01284601F005FFA07980
:102F7000FF2801D2401CA0714FF4FA7140F2E730F3
:102F8000B0FBF1F0208170BD70B5294804684CE0B9
:102F9000606AA0B3417991B3818A69B1418A491CC1
:102FA00089B24182828A914206D1204601F046F8D8
:102FB000204601F015FA37E0018A19B14A1E028253
:102FC000012906D0C189D1B14A1EC281012917D079
:102FD0002AE0656A20466979012905D00A2903D0CB
:102FE000052901D004291FD100F0ACFEA88A698A06
:102FF000401A022818DB00EBD0704008288213E04A
:10300000656A20466979012903D00A2901D005297A
:103010000AD101F071F8A889698A401A022803DBF5
:1030200000EBD0704008E8812468002CB0D170BD5E
:10303000000100202DE9F047994616460D4607008D
:103040001BD0002D1ED04FF49A744FF420722146ED
:10305000362005F0D3F8B0F100081BD0B8F80A000C
:10306000A246504506D232A340F271723EA14EA054
:10307000FFF752FD032E12D10EE02DA340F269722C
:1030800053A103E02AA340F26A7259A146A0FFF7B8
:1030900043FD0020BDE8F0876879032808D1A879AE
:1030A0005B4C08B1606802E0FDF71CF960602860C5
:1030B000D8F8044051462046FDF74DF90120207014
:1030C000607097F83000A070286803F029FD6060F8
:1030D000082E0AD0042E08D0072E06D0032E06D1C3
:1030E0006879052801D0042801D17868E0600020C3
:1030F00039182218401C91F82A1080B2117706283E
:10310000F6D34448C4F8EC0004F1F0010123352261
:103110000C46002000F0C4FA3246214600F00CFBB9
:10312000B9F1000F01D0A9F800004046B2E7000055
:103130002E2E2F4D6964646C6577617265732F5410
:10314000686972645F50617274792F4C7749502FAF
:103150007372632F636F72652F697076342F6468A2
:1031600063702E6300000000646863705F637265C3
:103170006174655F6D73673A20636865636B207483
:10318000686174206669727374207062756620636A
:10319000616E20686F6C6420737472756374206450
:1031A0006863705F6D736700417373657274696FF4
:1031B0006E2022257322206661696C65642061742B
:1031C000206C696E6520256420696E2025730A00D5
:1031D000646863705F6372656174655F6D73673A9D
:1031E000206E6574696620213D204E554C4C0000D0
:1031F000646863705F6372656174655F6D73673A7D
:10320000206468637020213D204E554C4C00000026
:10321000640100206382536310B50B4C20780028B2
:1032200005D10AA3FF2217A11FA0FFF775FC207884
:10323000401E10F0FF00207004D1A0680BF0F2FFD8
:103240000020A06010BD0000640100202E2E2F4D34
:103250006964646C6577617265732F546869726420
:103260005F50617274792F4C7749502F7372632FBE
:10327000636F72652F697076342F646863702E6394
:1032800000000000646863705F7063625F7265666F
:10329000636F756E7428293A20726566636F756E68
:1032A00074206572726F7200417373657274696F16
:1032B0006E2022257322206661696C65642061742A
:1032C000206C696E6520256420696E2025730A00D4
:1032D000FEB5446A06460C21204601F079F802AB9F
:1032E000042221463046FFF7A5FE050028D0696874
:1032F0000423F03132220F46BDF8080000F0D0F967
:10330000ADF80800E06903F00BFC02463946BDF851
:10331000080000F06FFAADF808002A46394600F0C0
:1033200039FB0F484323CDE900600F480D4A294679
:1033300080680CF06FF80646284605F075FB01E042
:103340004FF0FF36A079FF2801D2401CA07142F651
:1033500003104FF4FA71B0FBF1F020813046FEBD4E
:10336000880B01088C0B0108640100202DE9FE4F39
:10337000446A07464FF0000906212046C4F81C9015
:1033800001F026F802AB012221463846FFF752FE33
:1033900006003BD071680223F0318A463922554637
:1033A000BDF8080000F07CF9ADF808003A8D294618
:1033B00000F08CFAADF8080003233722294600F00C
:1033C0006FF9DFF88480ADF808000025514618F841
:1033D0000520BDF8080000F0AFF96D1CEDB2ADF8A6
:1033E0000800032DF2D33246514680B200F0D2FAE3
:1033F00016484323CDE900701348154A401E314654
:1034000080680CF007F8304605F00EFBA079FF2825
:1034100001D2401CA071C1B2062902D2012088400D
:1034200000E03C2000EB4001C1EBC0104FF6FF7103
:1034300001EAC0004FF4FA7100F2F310B0FBF1F0B2
:1034400020814846BDE8FE8F65010020880B0108F9
:103450008C0B010870B50B48002504680EE0606A0B
:1034600058B10189012903D9A1F10101018104E0C9
:1034700003D10581204601F055F82468002CEED1D7
:1034800070BD00000001002070B5446A0020154D99
:1034900020626062EA78144E0AB1F268A2622A7968
:1034A0000AB1326901E0A26A5208E2626A790AB19D
:1034B000726903E0A26AC2EBC202D2082263096900
:1034C000E161A97921B1B06903F02AFB20620120F2
:1034D000E071E879002803D0F06903F021FB606215
:1034E00070BD00007001002050B7002010B5154CD1
:1034F000207800281ED1A068002805D012A3E5225C
:103500001FA129A0FFF708FB0BF03AFEA060B0B1A5
:10351000417A442241F0200141722D490BF076FBA3
:1035200043222B49A0680BF00BFC00222949A0681C
:103530000BF034FE2078401C2070002010BD4FF0AE
:10354000FF3010BD640100202E2E2F4D6964646C85
:103550006577617265732F54686972645F50617238
:1035600074792F4C7749502F7372632F636F726594
:103570002F697076342F646863702E63000000003A
:10358000646863705F696E635F7063625F726566D3
:10359000636F756E7428293A206D656D6F7279209E
:1035A0006C65616B00000000417373657274696F34
:1035B0006E2022257322206661696C656420617427
:1035C000206C696E6520256420696E2025730A00D1
:1035D000880B01081D3F000870B5446A0546002CA1
:1035E00022D060790026042818D004DC00281BD0E3
:1035F000032804D112E0052810D00A280ED00C2888
:1036000006D90AA340F26D3216A11BA0FFF784FA77
:10361000A6712846BDE87040FFF7A8BEA6712846EF
:10362000BDE8704000F0FABB70BD00002E2E2F4D9B
:103630006964646C6577617265732F54686972643C
:103640005F50617274792F4C7749502F7372632FDA
:10365000636F72652F697076342F646863702E63B0
:1036600000000000696E76616C69642064686370B4
:103670002D3E737461746500417373657274696F74
:103680006E2022257322206661696C656420617456
:10369000206C696E6520256420696E2025730A0000
:1036A0002DE9F0411D4604462844801C17460E466D
:1036B000442806D907A340F29A52144914A0FFF7F0
:1036C0002BFA3755641CA0B23554401C80B2BDE8BB
:1036D000F08100002E2E2F4D6964646C6577617255
:1036E00065732F54686972645F50617274792F4CEE
:1036F0007749502F7372632F636F72652F697076ED
:10370000342F646863702E63000000006C0C0108A5
:10371000417373657274696F6E202225732220666F
:1037200061696C6564206174206C696E6520256434
:1037300020696E2025730A0070B515460E460446B2
:10374000442806D305A340F2A65212A11FA0FFF7FA
:10375000E3F93555641CA0B270BD00002E2E2F4D2C
:103760006964646C6577617265732F54686972640B
:103770005F50617274792F4C7749502F7372632FA9
:10378000636F72652F697076342F646863702E637F
:1037900000000000646863705F6F7074696F6E5F33
:1037A000627974653A206F7074696F6E735F6F75BC
:1037B000745F6C656E203C20444843505F4F50540A
:1037C000494F4E535F4C454E0000000041737365F6
:1037D0007274696F6E2022257322206661696C65A0
:1037E00064206174206C696E6520256420696E20F8
:1037F00025730A0070B50546001D14460E46442880
:1038000006D90BA340F2B75217A126A0FFF784F9FF
:10381000200E70556D1CA8B2210C3154401C80B292
:10382000210A3154401C80B23454401C80B270BD17
:103830002E2E2F4D6964646C6577617265732F5409
:10384000686972645F50617274792F4C7749502FA8
:103850007372632F636F72652F697076342F64689B
:1038600063702E6300000000646863705F6F7074A3
:10387000696F6E5F6C6F6E673A206F7074696F6E00
:10388000735F6F75745F6C656E202B2034203C3D38
:1038900020444843505F4F5054494F4E535F4C456E
:1038A0004E000000417373657274696F6E202225AB
:1038B0007322206661696C6564206174206C696E96
:1038C0006520256420696E2025730A0070B50446C2
:1038D000801C15460E46442806D907A340F2AE5276
:1038E00013A122A0FFF718F9280A3055641CA0B2D2
:1038F0003554401C80B270BD2E2E2F4D6964646C0F
:103900006577617265732F54686972645F50617284
:1039100074792F4C7749502F7372632F636F7265E0
:103920002F697076342F646863702E630000000086
:10393000646863705F6F7074696F6E5F73686F72D5
:10394000743A206F7074696F6E735F6F75745F6C1B
:10395000656E202B2032203C3D20444843505F4F71
:103960005054494F4E535F4C454E000041737365B0
:103970007274696F6E2022257322206661696C65FE
:1039800064206174206C696E6520256420696E2056
:1039900025730A00FF230B54401C80B2002302E071
:1039A0000B54401C80B24428FAD3F03081B2104648
:1039B00005F01EB92DE9F04F85B08246A1490020DF
:1039C0000490C8600861BAF80A002C2817D3BAF826
:1039D00008004FF0F00901F10C07564607E000BF60
:1039E000A9EB0201801A36681FFA81F980B236B15C
:1039F000728949464A45F3D90C460290F0E06FF0CF
:103A0000010005B0BDE8F08FA11C89B24FF0FF3571
:103A10000191A142F3D37189621C914203D90399A8
:103A20002144497803E0316809B1496809783428AC
:103A3000884634D007DC98B1012814D003281AD066
:103A4000332808D122E0352850D0362857D03A28DC
:103A50005DD03B2863D04FF00008002867D02DE0F0
:103A600000218846F9E7042903D077A340F22E62AB
:103A700011E00625F1E74FF00408042904D272A3EF
:103A800040F233627EA1B2E00725E6E7042904D0C4
:103A90006DA340F241627FA1A9E00325DDE7012982
:103AA00003D069A340F24F6225E0B9F1F00F04D0D2
:103AB00065A340F251627AA199E000256018801C4C
:103AC000B0F5803F9BD284B2B8F1000F7AD00020CD
:103AD0000090082D06D35CA34FF4CF6276A17BA0A3
:103AE000FFF71AF8785D002823D06BE0012904D095
:103AF00055A340F255627FA179E00125ADE7042985
:103B000003D051A340F25962C5E70225A5E7042975
:103B100003D04DA340F25D62BDE704259DE7042973
:103B200003D049A340F26162B5E7052595E794B259
:103B300048E04046B8F1040F00D304208346024613
:103B400069463046019B04F0E3FE58457FF457AFC9
:103B5000B8F1040F1ED95FEA887004D03AA340F28E
:103B6000816267A143E001207855009802F0D8FFF8
:103B70000146694840F82510A8F1040000F0FF084C
:103B800001980199001D80B28842FFF438AF6D1C86
:103B900001909EE7B8F1040F07D0B8F1010F08D0EB
:103BA00029A34FF4D2625DA121E0009802F0B8FF92
:103BB00001E09DF8000000900120785556480099DA
:103BC00040F825107089A04217D8211A8CB20299AA
:103BD000081A80B202908442BFF411AF366816B161
:103BE000706803900AE018A340F29D6250A137A0CC
:103BF000FEF792FF6FF0050003E73EB102988442A2
:103C000004D20398005DFF287FF4FEAE387848B1F7
:103C1000414800210068397001280ED0022804D0E4
:103C2000032808D004980028E6D0002004904FF024
:103C30002C096C20D1E6012004904FF06C09EC2097
:103C4000CBE60000640100202E2E2F4D6964646CC9
:103C50006577617265732F54686972645F50617231
:103C600074792F4C7749502F7372632F636F72658D
:103C70002F697076342F646863702E630000000033
:103C80006C656E203E3D206465636F64655F6C65A6
:103C90006E0000006C656E203D3D20340000000089
:103CA0006F7665726C6F616420696E2066696C6501
:103CB0002F736E616D650000636865636B206465DA
:103CC000636F64655F696478000000004173736529
:103CD0007274696F6E2022257322206661696C659B
:103CE00064206174206C696E6520256420696E20F3
:103CF00025730A006C656E203D3D203100000000F8
:103D00006465636F64655F6C656E202525203420D3
:103D10003D3D20300000000050B70020696E766104
:103D20006C6964206465636F64655F6C656E000038
:103D30006E657874207062756620776173206E7589
:103D40006C6C00002DE9FC47446A074604212046BC
:103D500000F03EFB01AB032221463846FFF76AF92B
:103D600006003BD071680223F031894639224D4666
:103D7000BDF80400FFF794FCADF804003A8D294625
:103D8000FFF7A4FDADF80400032337222946FFF70F
:103D900087FCDFF88080ADF804000025494618F85C
:103DA0000520BDF80400FFF7C7FC6D1CEDB2ADF8AF
:103DB0000400032DF2D33246494680B2FFF7EAFDF4
:103DC00014480097401E4323134A314680680BF085
:103DD00081FA0546304604F027FE01E04FF0FF353A
:103DE000A079FF2801D2401CA071C0B20A2804D2D9
:103DF0004FF47A7110FB01F001E042F2107080B2D2
:103E00004FF4FA7100F2F310B0FBF1F02081284674
:103E1000BDE8FC87650100208C0B01082DE9FC47FB
:103E2000446A07460321204600F0D2FA01AB032280
:103E300021463846FFF7FEF806004FD0716802238E
:103E4000F031894639224D46BDF80400FFF728FCC1
:103E5000ADF804004FF410722946FFF737FDADF8B6
:103E60000400042332222946FFF71AFCADF80400AF
:103E7000E06902F055FE02462946BDF80400FFF74E
:103E8000B9FCADF80400032337222946FFF708FCEC
:103E9000DFF88080ADF80400002500BF18F8052089
:103EA0004946BDF80400FFF747FC6D1CEDB2ADF8C4
:103EB0000400032DF2D33246494680B2FFF76AFD73
:103EC00014480097401E4323134A314680680BF084
:103ED00001FA0546304604F0A7FD01E04FF0FF353A
:103EE000A079FF2801D2401CA071C0B20A2804D2D8
:103EF0004FF47A7110FB01F001E042F2107080B2D1
:103F00004FF4FA7100F2F310B0FBF1F02081284673
:103F1000BDE8FC87650100208C0B01082DE9F0410C
:103F20004248516816464468656A002D79D0287960
:103F3000002876D070892C2873D30878022870D195
:103F4000002094F8302008E023180F1893F82A3046
:103F50003F7FBB4265D1401CC0B2824201D90628D6
:103F6000F2D3486802F0DCFD2968884259D129461D
:103F70003046FFF71FFD08BB2D494878F0B12D4AA8
:103F800077681079052804D0062821D0022836D079
:103F900047E06879012806D0032814D0042812D0FD
:103FA000052810D03DE039462046FFF76DFA94F819
:103FB0003100000703D52046FEF7CCFF31E0204654
:103FC000FEF704FF2DE039462046FFF75DFAF6E7DD
:103FD0006879032805D0012803D0042801D00528DA
:103FE0001FD10C21606A00F0F3F9134B20461A46EA
:103FF000114603F023FC2046FFF7B8F911E0687979
:1040000006280ED12546646A887850B100202081A8
:10401000906802F085FDA0613869E061284600F0F3
:10402000D7F83046BDE8F04104F0FEBC28800020FF
:104030007001002050B70020880B01082DE9FE43D5
:10404000446A0746002C51D0607900284ED0A06900
:1040500002900025A561E561256265622563E56240
:10406000A562A58265822582E581384600F04CFA7A
:1040700060B301AB072221463846FEF7DBFF06009E
:1040800024D071680423F03136228846BDF804003C
:10409000FFF706FBADF80400029802F041FD02466E
:1040A0004146BDF80400FFF7A5FBADF80400324619
:1040B0004146FFF76FFC0E480097432302AA3146A2
:1040C00080680BF007F9304604F0AEFC094B384627
:1040D0001A46114603F0B2FB0021204600F078F9A1
:1040E0002079002802D0FFF797F82571BDE8FE83FC
:1040F00064010020880B01082DE9FC47446A07464B
:104100000521204600F064F901AB03222146384620
:10411000FEF790FF06003CD071680223F03189461B
:1041200039224D46BDF80400FFF7BAFAADF8040095
:104130003A8D2946FFF7CAFBADF804000323372266
:104140002946FFF7ADFADFF88480ADF804000025BA
:10415000494618F80520BDF80400FFF7EDFA6D1C7C
:10416000EDB2ADF80400032DF2D33246494680B2D9
:10417000FFF710FC15480097401E432304F1180276
:10418000314680680BF0A6F80546304604F04CFC3A
:1041900001E04FF0FF35A079FF2801D2401CA0714B
:1041A000C0B20A2804D24FF4FA6110FB01F001E01A
:1041B00044F6206080B24FF4FA7100F2F310B0FBC5
:1041C000F1F020812846BDE8FC8700006501002051
:1041D0002DE9FE43070073D07C6A002C7CD00121BE
:1041E000204600F0F5F802AB032221463846FEF7E0
:1041F00021FF06007AD071680223F0318946392206
:104200004D46BDF80800FFF74BFAADF808003A8DAF
:104210002946FFF75BFBADF808000423322229464C
:10422000FFF73EFAADF80800E06902F079FC0246BB
:104230002946BDF80800FFF7DDFAADF808000423B1
:1042400036222946FFF72CFAADF80800A06902F0E3
:1042500067FC02462946BDF80800FFF7CBFAADF827
:104260000800032337222946FFF71AFADFF8BC803B
:10427000ADF80800002500BF18F805204946BDF834
:104280000800FFF759FA6D1CEDB2ADF80800032DD8
:10429000F2D33246494680B2FFF77CFB24484323E1
:1042A000CDE900702148234A401E314680680BF05A
:1042B000B1F80546304604F0B7FB19E000E00BE02A
:1042C0001DA340F277122AA130A0FEF725FC6FF063
:1042D0000F00BDE8FE8309E017A340F2791235A173
:1042E0002AA0FEF719FC6FF00500F2E74FF0FF354A
:1042F000A079FF2801D2401CA071C0B2062802D2CA
:104300000121814000E03C2101EB4100C0EBC110E4
:104310004FF6FF7101EAC0004FF4FA7100F2F3109A
:10432000B0FBF1F020812846D3E7000065010020B2
:10433000880B01088C0B01082E2E2F4D6964646CCC
:104340006577617265732F54686972645F5061723A
:1043500074792F4C7749502F7372632F636F726596
:104360002F697076342F646863702E63000000003C
:10437000646863705F73656C6563743A206E65741E
:10438000696620213D204E554C4C000041737365F9
:104390007274696F6E2022257322206661696C65D4
:1043A00064206174206C696E6520256420696E202C
:1043B00025730A00646863705F73656C6563743AA3
:1043C000206468637020213D204E554C4C00000055
:1043D00042798A4203D04171002181710181704785
:1043E00070B505006FF00F041AD095F83100C007C2
:1043F0001BD0288D6C6A4FF0FF36B0F5107F0DD3BF
:10440000002C1BD0207908B1FEF706FF342120468E
:10441000FBF7A1FFFFF76AF8002816D0304670BD01
:1044200014A340F2E72221A103E012A34FF43A7251
:1044300022A12BA0FEF770FB204670BD342002F0B5
:104440002BFD0400EAD06C62E0E70120207195F8B2
:104450003100400705D402212046FFF7B9FF0020B4
:1044600070BD2846FEF782FF0028F9D02846FFF7E6
:10447000E5FDD3E72E2E2F4D6964646C657761727C
:1044800065732F54686972645F50617274792F4C40
:104490007749502F7372632F636F72652F6970763F
:1044A000342F646863702E63000000006E657469C9
:1044B0006620213D204E554C4C0000006E6574690D
:1044C00066206973206E6F742075702C206F6C6489
:1044D000207374796C6520706F72743F0000000067
:1044E000417373657274696F6E2022257322206692
:1044F00061696C6564206174206C696E6520256457
:1045000020696E2025730A0040B1406A30B14079BD
:104510000A2805D0052803D0042801D000207047C0
:104520000120704710B5426A044651790C290BD01E
:10453000062909D001290BD0082918D0032926D132
:104540009079022820461ED3BDE81040FEF70EBF2A
:1045500090790528204603D8BDE81040FFF738BE03
:10456000FFF76CFD2046BDE81040FFF739BF90799A
:104570000128204603D8BDE81040FEF7EBBCBDE89B
:104580001040FEF723BCBDE81040FFF747BC10BD4C
:1045900070B505460C46880706D009A34FF4B672DD
:1045A00013A11BA0FEF7B8FA05F0CCF9A9680968B9
:1045B0002160A9680C60BDE8704005F0CFB900002B
:1045C0002E2E2F4D6964646C6577617265732F546C
:1045D000686972645F50617274792F4C7749502F0B
:1045E0007372632F636F72652F6D656D702E63003C
:1045F0006D656D705F667265653A206D656D2070E2
:10460000726F7065726C7920616C69676E656400A9
:10461000417373657274696F6E2022257322206660
:1046200061696C6564206174206C696E6520256425
:1046300020696E2025730A0070B5044605F082F9E2
:104640000546A0680468002C0FD021680160A0070F
:1046500006D008A34FF48C7212A11BA0FEF75CFADF
:10466000284605F07BF9204670BD284605F076F90E
:10467000002070BD2E2E2F4D6964646C65776172C9
:1046800065732F54686972645F50617274792F4C3E
:104690007749502F7372632F636F72652F6D656D4D
:1046A000702E63006D656D705F6D616C6C6F633A49
:1046B000206D656D702070726F7065726C7920610D
:1046C0006C69676E65640000417373657274696F2D
:1046D0006E2022257322206661696C6564206174F6
:1046E000206C696E6520256420696E2025730A00A0
:1046F00070B5094D0646002404EB440005EBC000EC
:10470000017D29B18068B04202D1204600F036F91F
:10471000641C0A2CF0DB70BD70B700202DE9F74F48
:1047200084B04FF00A0B00240646DA465F46D946AD
:1047300002940194CDF80040514904EB440001EB90
:10474000C008039098F814500A2F1DD0002D2AD0CD
:10475000012D08D0022D06D24AA340F2231257A100
:1047600066A0FEF7D9F99EB13168D8F804008142FD
:104770000ED1069820B1D8F808100698814207D1CA
:10478000204607B0BDE8F08F002DE1D127460AE0B2
:10479000012D16D0022D06D3B8F8120000998842D8
:1047A00001D3A2460090641C24B20A2CC4DB0598F5
:1047B00081074FF0FF30E4D40A2F16D018DA3C46B8
:1047C0003EE02F49039851F830000028B8F8120055
:1047D00005D002998842E6D3A1460290E3E7019909
:1047E0008842E0D3A3460190DDE70599C907C8D008
:1047F0005146BAF10A0F0EDA0C46214801EB44018A
:1048000050F8310080B11FA340F26D1245A13BA0CA
:10481000FEF782F908E05946BBF10A0F03DB49466F
:10482000B9F10A0FADDA0C460A2C06DB15A340F2EB
:104830007F1242A131A0FEF76FF9204600F09EF8EA
:104840000A2C06DB0FA340F283123CA12BA0FEF73B
:1048500063F90B4804EB440100EBC105287D30B13E
:1048600008A34FF4C2723AA124A0FEF755F90EB185
:1048700030686860002068820698A86080E70000C1
:1048800070B700202E2E2F4D6964646C65776172BD
:1048900065732F54686972645F50617274792F4C2C
:1048A0007749502F7372632F636F72652F6970762B
:1048B000342F6574686172702E63000073746174C4
:1048C00065203D3D204554484152505F535441546A
:1048D000455F50454E44494E47207C7C20737461AF
:1048E0007465203E3D204554484152505F53544129
:1048F00054455F535441424C450000004173736579
:104900007274696F6E2022257322206661696C655E
:1049100064206174206C696E6520256420696E20B6
:1049200025730A006172705F7461626C655B695D1A
:104930002E71203D3D204E554C4C000069203C20FE
:104940004152505F5441424C455F53495A45000023
:104950006172705F7461626C655B695D2E73746116
:104960007465203D3D204554484152505F535441A9
:1049700054455F454D5054590000000070B5074C38
:1049800000EB4005002654F8350018B104F04CF84F
:1049900044F8356004EBC500067570BD70B70020A3
:1049A0002DE9F04385B00D00074609D07C684FF42F
:1049B00080782088404542D1207906283FD109E0FF
:1049C00021A340F28A222EA131A0FEF7A5F805B05E
:1049D000BDE8F0836079042831D1608808282ED1A1
:1049E000D4F80E000490A169686820B1814202D118
:1049F0000126334601E00026022304F10802914615
:104A000004A9284600F0ACFBE088404503D0B0F58F
:104A1000007F14D10FE096B1022204ABCDE902323F
:104A2000291DCDE9001905F12A0319464A462846F1
:104A300000F096FA03E004A92846FEF779F9384613
:104A400003F0F2FFC3E700002E2E2F4D6964646C63
:104A50006577617265732F54686972645F50617223
:104A600074792F4C7749502F7372632F636F72657F
:104A70002F697076342F6574686172702E63000040
:104A80006E6574696620213D204E554C4C00000037
:104A9000417373657274696F6E20222573222066DC
:104AA00061696C6564206174206C696E65202564A1
:104AB00020696E2025730A00FEB515460E460400D7
:104AC00006D143A340F21E324FA153A0FEF724F8B3
:104AD00036B93FA340F21F3259A14FA0FEF71CF890
:104AE00035B93BA34FF4487258A14BA0FEF714F818
:104AF0002146286800F008FF08B1584B3FE02868BD
:104B0000C0F303110E2925D0A168636800EA0102F1
:104B10000B409A4208D080B2A0F57E41A93903D05B
:104B2000E068B0B304F10C054D4B4E481A7802EB27
:104B3000420100EBC1010F7D022F2ED38F68A742E7
:104B40002BD12F6849688F4227D13146204600F08B
:104B50008BF8FEBD01208DF8040000208DF80500C3
:104B60005E208DF80600687801AB00F07F008DF8BC
:104B70000700A8788DF80800E8788DF809004FF450
:104B80000060009004F12A023146204600F0C8FB84
:104B9000FEBDFFE76FF00300FAE7002202EB4201DF
:104BA00000EBC1010F7D022F08D38F68A74205D10A
:104BB0002F6849688F4201D11A70C6E7521CD2B2E1
:104BC0000A2AEBD332462946204600F0D5F8DFE723
:104BD0002E2E2F4D6964646C6577617265732F5456
:104BE000686972645F50617274792F4C7749502FF5
:104BF0007372632F636F72652F697076342F6574DB
:104C0000686172702E6300006E6574696620213DD4
:104C1000204E554C4C000000417373657274696FEF
:104C20006E2022257322206661696C6564206174A0
:104C3000206C696E6520256420696E2025730A004A
:104C40007120213D204E554C4C000000697061647C
:104C5000647220213D204E554C4C0000300A010862
:104C60007801002070B700202DE9F843064615466C
:104C700088461C4802EB450100EBC104207D022858
:104C800006D219A340F2EE2225A131A0FDF744FF80
:104C9000144A05EB4501207D02EBC1050C350228C5
:104CA00013D1608A0327B0F58E7F04D9211D3046C9
:104CB00000F010FA07E0B0F5877F06D32A46211DE1
:104CC000304600F00DFA00B927754FF400600090EF
:104CD0002B4606F12A024146304600F021FBBDE892
:104CE000F883000070B700202E2E2F4D6964646C8D
:104CF0006577617265732F54686972645F50617281
:104D000074792F4C7749502F7372632F636F7265DC
:104D10002F697076342F6574686172702E6300009D
:104D20006172705F7461626C655B6172705F69640F
:104D3000785D2E7374617465203E3D204554484172
:104D400052505F53544154455F535441424C4500C7
:104D5000417373657274696F6E2022257322206619
:104D600061696C6564206174206C696E65202564DE
:104D700020696E2025730A002DE9FC5F82462A30E7
:104D800001900E46086814464FF0FF374FF0000BB5
:104D9000514600F0B9FD80B93068C0F303110E2907
:104DA0000BD056B148B1524601213046FFF7B6FC50
:104DB000050005D540B2BDE8FC9F6FF00F00FAE793
:104DC0007F2D06D337A340F2C13244A147A0FDF79F
:104DD000A3FE05F0FF094F4909EB490801EBC8059F
:104DE000287D00280ED0012808D0022806D22DA345
:104DF00040F2CD3248A13DA0FDF78EFEBBF1000F81
:104E000006D104E001202875C5F808A000E034B9F7
:104E10003146504600F05EF90746002CCBD0287D85
:104E20003C4E02280ED346494FF4006005F10C03B6
:104E300081F80090009021465046019A00F070FAE7
:104E400007462DE001282BD1254640F2F13768892D
:104E50002989884207D1286828B112A33A4639A186
:104E600022A0FDF759FE287B400607D522464FF4C5
:104E700020710E2003F00EFC044605E02D68002D85
:104E8000E5D1204603F04EFF44B156F8380008B192
:104E900003F0CAFD46F83840002701E04FF0FF3725
:104EA000384688E72E2E2F4D6964646C65776172F1
:104EB00065732F54686972645F50617274792F4C06
:104EC0007749502F7372632F636F72652F69707605
:104ED000342F6574686172702E6300007479706598
:104EE000206F766572666C6F7700000041737365A2
:104EF0007274696F6E2022257322206661696C6569
:104F000064206174206C696E6520256420696E20C0
:104F100025730A0070B700206172705F7461626C63
:104F2000655B695D2E7374617465203D3D2050455D
:104F30004E44494E47206F7220535441424C450025
:104F4000780100206E6F207061636B65742071754D
:104F50006575657320616C6C6F7765642100000076
:104F60002DE9FF4F81B09846DDE90FA9DDF838B093
:104F700006004FF0000706D12CA340F2574239A19A
:104F80003CA0FDF7C9FD4FF420721C210E2003F058
:104F900035F9050046D068891C2806D223A340F2C3
:104FA00062423EA133A0FDF7B7FD6C68119801F095
:104FB000B9FDE08096F83000062806D01BA340F229
:104FC000694243492BA0FDF7A7FDD8F80010A16066
:104FD000B8F80400A081DAF80010C4F81210BAF88A
:104FE0000400E082DBF80000C4F80E00D9F80000ED
:104FF000A0614FF48070208008206080062020711E
:105000000420607140F60600DDE902230090294685
:10501000304600F085F9284603F006FD384605B015
:10502000BDE8F08F4FF0FF30F9E700002E2E2F4D36
:105030006964646C6577617265732F546869726422
:105040005F50617274792F4C7749502F7372632FC0
:10505000636F72652F697076342F65746861727042
:105060002E6300006E6574696620213D204E554C0C
:105070004C000000417373657274696F6E202225C5
:105080007322206661696C6564206174206C696EAE
:105090006520256420696E2025730A0063686563B6
:1050A0006B20746861742066697273742070627515
:1050B000662063616E20686F6C6420737472756320
:1050C00074206574686172705F686472000000002B
:1050D000B00C0108014A00F003B80000300A0108D2
:1050E0007FB5064D031D0124CDE90035CDE902143D
:1050F00026331946FFF734FF04B070BD360A0108A5
:1051000070B5164D002400BF04EB440005EBC0024F
:10511000117DF1B1508A401C80B25082B0F5967F6B
:105120000AD2012906D003290AD004290AD001296C
:105130000BD00EE0052808D32046FFF71FFC08E03F
:10514000042000E00220107503E0111D9068FFF7B5
:10515000C1FF641C0A2CD7DB70BD000070B70020B3
:10516000F8B5044690F830001F4616460D4606284E
:1051700006D020A340F2A9122CA135A0FDF7CCFC4B
:105180009DB1286888B1214600F0BEFB68B9287837
:10519000C0F303100E2808D0224639462846FFF7F0
:1051A000BDFA002804DA40B2F8BD6FF00F00F8BD78
:1051B00000EB40013048022300EBC10213759460FC
:1051C0003368D360B38813820023538250F8315080
:1051D00075B140F831304FF400600090334604F16F
:1051E0002A022946204600F09BF8284603F01CFCC2
:1051F0000020F8BD2E2E2F4D6964646C65776172B6
:1052000065732F54686972645F50617274792F4CB2
:105210007749502F7372632F636F72652F697076B1
:10522000342F6574686172702E6300006E65746956
:10523000662D3E6877616464725F6C656E203D3DEB
:10524000204554485F4857414444525F4C454E0006
:10525000417373657274696F6E2022257322206614
:1052600061696C6564206174206C696E65202564D9
:1052700020696E2025730A0070B700202DE9F041E7
:10528000044640890E270D460E283CD9E07B18B90C
:1052900095F83400401CE073606801788689CA077D
:1052A00014D0012905D006221C49FBF75FF848B14C
:1052B0000CE0417851B980785E2807D1607B40F0DE
:1052C000100002E0607B40F008006073082E03D0FD
:1052D000B6F5C16F17D10DE095F83100000712D572
:1052E0003946204603F06CFD68B92946204600F097
:1052F00053FC10E095F83100000704D539462046EC
:1053000003F05EFD18B1204603F08EFB03E0294652
:105310002046FFF745FB0020BDE8F081300A010878
:105320002DE9F04104461F4690460E46069801F0CE
:10533000F9FB05460E21304602F0FCFE18B16FF075
:105340000100BDE8F0817068858139680160B98825
:105350008180D8F80020C0F80620B8F804104181F8
:1053600094F83000062806D006A34FF4997213A1D2
:105370001FA0FDF7D1FB31462046A269BDE8F041F0
:10538000104700002E2E2F4D6964646C65776172A2
:1053900065732F54686972645F50617274792F4C21
:1053A0007749502F7372632F6E657469662F657429
:1053B0006865726E65742E63000000006E65746926
:1053C000662D3E6877616464725F6C656E206D75F2
:1053D0007374206265203620666F7220657468657C
:1053E000726E65745F6F75747075742100000000D3
:1053F000417373657274696F6E2022257322206673
:1054000061696C6564206174206C696E6520256437
:1054100020696E2025730A0010B5040006D10BA385
:1054200040F22E2210A114A0FDF776FB732084F821
:105430003200742084F83300194860611948A06173
:10544000204601F001FA002010BD00002E2E2F4C46
:105450005749502F5461726765742F65746865727F
:105460006E657469662E63006E6574696620213D01
:10547000204E554C4C000000417373657274696F87
:105480006E2022257322206661696C656420617438
:10549000206C696E6520256420696E2025730A00E2
:1054A000B94A00083D6A0008104E04464FF0FF3725
:1054B0003946306802F020FD0028F9D10C4804F08C
:1054C0009FFA204601F05AFA05000AD022692146C7
:1054D000904710B1284603F0A7FA054804F0A1FA56
:1054E000ECE7034804F09DFAE2E700000400002026
:1054F000B40000207047000008B50446002000906A
:105500006A4601210C48FBF729FD009800F00400D1
:105510000090216891F83120520704D438B1084630
:1055200002F070FA03E010B9084602F015FAC8203C
:1055300002F01CFBE4E70000B03600202DE9FC413E
:10554000002506460195009590F83100400742D5A8
:10555000254C606868B34FF4805200212046FBF769
:105560004FFEFBF76BFF4FF47A7701906A460121FB
:105570001D48FBF7F3FCFBF761FF0199401AB842A5
:1055800017D800988006F1D56A461F211648FBF708
:10559000E5FC0098C10603D54FF40061E16000E02E
:1055A000E560400701D5A5600DE04FF48040A060A4
:1055B00009E0E068A168C00840EA510082B2002119
:1055C0000948FBF71DFE00210748FBF7CDF9064807
:1055D000FBF70CFD02E00448FBF74AFD3046FFF7FD
:1055E00089FFBDE8FC810000B036002038B50446D4
:1055F0008DF8000069460320ABBE204638BD0A4640
:10560000032100F0F5B800002DE9FE4F8A46444919
:105610000446D1F8088098F800000007850E142D84
:1056200079D36089042876D360680078002872D026
:10563000082870D1486901F11407C0F303120E2A3B
:1056400069D08946096800F05FF9002863D1208994
:10565000082860D305F10E010E46204602F06AFDCF
:10566000002830D02089411989B2884253D84FF49C
:1056700020720E2002F0C2FD06004CD0718905F1A7
:105680000800814216D32A4641467068FAF73CFE6C
:105690002946304603F094FB002806D021A3B62209
:1056A0002EA13CA0FDF738FA04E02146304603F075
:1056B0003FF818B1304603F0B7F92CE0204603F06C
:1056C000B3F934460CE03146204603F079FB00285C
:1056D00006D014A3C72239A12EA0FDF71DFA1AE0A7
:1056E00029462046666802F025FDA0B96068396841
:1056F000FF22C160D9F81010016100213170718062
:105700000272418101228DE806040A46FF233946D0
:10571000204600F021FB2046BDE8FE4F03F084B98F
:10572000288000202E2E2F4D6964646C657761728D
:1057300065732F54686972645F50617274792F4C7D
:105740007749502F7372632F636F72652F6970767C
:10575000342F69636D702E630000000069636D7003
:105760005F696E7075743A206D6F76696E6720722E
:105770002D3E7061796C6F616420746F2069636D78
:105780007020686561646572206661696C65640A91
:1057900000000000417373657274696F6E202225EA
:1057A0007322206661696C6564206174206C696E87
:1057B0006520256420696E2025730A0069636D7079
:1057C0005F696E7075743A20726573746F72696E7A
:1057D00067206F726967696E616C20702D3E706121
:1057E000796C6F6164206661696C65640A00000011
:1057F0002DE9FF479146884606464FF42072242142
:10580000222002F0FBFC050031D06889242806D252
:1058100018A34FF4B47225A12FA0FDF77DF96C6891
:1058200077681C2284F8008084F801904FF000080B
:10583000A4F80480A4F80680686871680830FAF754
:1058400063FDF868039003A800F096FC60B1A4F82B
:1058500002800122CDF80080CDE90120FF2303AAB8
:105860000021284600F078FA284603F0DDF8BDE86C
:10587000FF8700002E2E2F4D6964646C657761727E
:1058800065732F54686972645F50617274792F4C2C
:105890007749502F7372632F636F72652F6970762B
:1058A000342F69636D702E630000000063686563C8
:1058B0006B207468617420666972737420706275FD
:1058C000662063616E20686F6C642069636D702070
:1058D0006D65737361676500417373657274696F99
:1058E0006E2022257322206661696C6564206174D4
:1058F000206C696E6520256420696E2025730A007E
:105900000A460B21FFF774BF421C12D088B191F8F0
:10591000312092070BD54B68834208D0896800EA92
:1059200001020B409A4202D10143491C01D00020E0
:1059300070470120704700002DE9F74F88B00446FA
:10594000099800251426008DAF1F1438C11700EBED
:105950005170C0F3CF00039060680690017801F0A9
:105960000F01052903D038460BB0BDE8F08F6189DF
:10597000142907D25BA34FF43F7269A16FA0FDF712
:10598000CBF8F0E7C08801F0CDF8C0F30C0100F4CB
:10599000005002910790208914381FFA80F88EE099
:1059A00003984FF6FF7101EAC0004146404500D917
:1059B000084604904FF4207214210E2002F01EFCC1
:1059C0005FEA000A7ED0BAF80A00142806D245A37E
:1059D0004FF4497263A159A0FDF79EF81422DAF83A
:1059E00004000699FAF790FCDAF804000590049F89
:1059F00035E06089811B8DB2B04206D239A340F2F6
:105A00002D3260A14DA0FDF787F8AF4200D23D4690
:105A10001DB3052001F0D4FC5FEA000957D060688F
:105A20004B463044CDE9000541222946002002F0D2
:105A30006BFD5FEA000B50D0204603F073F9554927
:105A4000C9E904145946504602F07AFD781B070450
:105A50003F0C06D000262468CBE724680026002FE0
:105A6000C7D1701986B20998008D14384045029844
:105A7000C0F30C0001DB079909B140F4005001F0BC
:105A800051F80599C8800498143080B201F04AF8A2
:105A900005994880059800214181099851460A9A44
:105AA00043699847504602F0BFFF0499A8EB0100F4
:105AB0001FFA80F8DDE90201084480B20290B8F1D3
:105AC000000F00E006E07FF46BAF00204CE750468B
:105AD00002F0AAFF4FF0FF3046E7484600F07CFB9B
