:020000040800F2
:10000000805100205D020008E72700089D240008B9
:10001000E52700088D030008D92F00080000000024
:100020000000000000000000000000009D0100082A
:100030007D04000800000000F9010008A128000864
:1000400077020008770200087702000877020008AC
:100050007702000877020008A5050008D10500080E
:10006000D90500081D06000861060008770200088F
:1000700091030008770200089D030008770200083A
:10008000A9030008B50300087702000877020008FA
:10009000770200087702000877020008A50600082A
:1000A000770200087702000877020008770200084C
:1000B00077020008E92900087702000877020008A3
:1000C000770200087702000877020008770200082C
:1000D00077020008B52F0008C12F0008CD2F0008B7
:1000E000AB050008770200087702000877020008D5
:1000F00077020008F5290008770200087702000857
:1001000077020008770200087702000877020008EB
:1001100077020008770200087702000877020008DB
:100120007702000877020008C10300087702000880
:1001300077020008770200087702000877020008BB
:1001400077020008770200087702000877020008AB
:100150007702000877020008CD0300087702000844
:10016000770200087702000877020008770200088B
:1001700077020008770200087702000800000000FC
:100180007702000877020008DFF80CD000F0ECF8E6
:1001900000480047CD320008805100202C4B1968E0
:1001A0000868B0E8F04F80F30988BFF36F8F4FF015
:1001B000000080F3118870470000000008480068C4
:1001C000006880F308884FF0000080F3148862B65E
:1001D00061B6BFF34F8FBFF36F8F00DF00BF00BF6B
:1001E00008ED00E0DFF80C00016841F470010160E7
:1001F000704700BF88ED00E0EFF30980BFF36F8F19
:10020000134B1A681EF0100F08BF20ED108A20E96A
:10021000F04F106009B44FF0500080F31188BFF325
:100220004F8FBFF36F8F04F0EFF94FF0000080F3B2
:10023000118809BC19680868B0E8F04F1EF0100F6B
:1002400008BFB0EC108A80F30988BFF36F8F704746
:1002500038000020EFF30580704700000648804713
:1002600006480047FEE7FEE7FEE7FEE7FEE7FEE79B
:10027000FEE7FEE7FEE7FEE7CD290008890100085A
:100280002DE9F05F0546002092469B4688460646CB
:10029000814640241BE0284641464746224600F05E
:1002A00053F853465A46C01A914110D31146184686
:1002B000224600F03AF82D1A67EB01084F46224615
:1002C0000120002100F031F817EB00094E41201EFB
:1002D000A4F10104DFDC484631462A464346BDE826
:1002E000F09F40EA01039B0703D009E008C9121FF1
:1002F00008C0042AFAD203E011F8013B00F8013BE0
:10030000521EF9D27047D2B201E000F8012B491E0B
:10031000FBD270470022F6E710B513460A460446A2
:100320001946FFF7F0FF204610BD202A04DB203AD3
:1003300000FA02F1002070479140C2F1200320FA38
:1003400003F3194390407047202A04DB203A21FA36
:1003500002F00021704721FA02F3D040C2F12002DE
:100360009140084319467047064C074D06E0E06887
:1003700040F0010394E8070098471034AC42F6D3EC
:10038000FFF706FFE453000804540008FEE70000EE
:10039000014800F01FBA0000A8030020014800F047
:1003A00019BA000008040020014800F013BA000048
:1003B000E8020020014800F00DBA000048030020C8
:1003C000014800F007BA000028020020014800F0B0
:1003D00001BA00008802002001681823CAB2103A4E
:1003E000B2FBF3F2054B6FF30901032A9B5CC36573
:1003F00000D9091D81650846704700009853000820
:1004000010B5014600208B698A6A4FF0C07453B161
:10041000B3F5005F15D072B1012A0CD0022A0AD0C0
:10042000032A09D104E01AB1012A06D0022A03D115
:10043000C96AC90100D5012010BDC96AA142FAD01C
:1004400010BD002AF7D0012AF2D0022AF3D0032AE5
:10045000F3D010BD30B50468256825F480252560EB
:10046000046863608368402B036803D09960006868
:10047000C26030BD9A600068C16030BD7047000046
:100480002DE9F041044621B14FF40060E060C00066
:10049000A060E0690025002861D028462368402636
:1004A00019683A4A1140D4E902273A43024342F418
:1004B00000700843186020680768012000F0FCFA0B
:1004C000206807602068466020684668012000F0C8
:1004D000F3FA20684660206885602068C56021685E
:1004E00088694FF64172104040F0800088612068B2
:1004F0008669012000F0E0FA206886612068C56105
:100500002068C569012000F0D7FA2068C56122681B
:1005100002F5805290691E4908401E4901439161CD
:10052000206800F580508569012000F0C5FA206838
:1005300000F5805085612068174900F58050016002
:10054000206800F580500568012000F0B5FA2068A9
:1005500000F580500560A069012803D009E04FF440
:1005600080609BE7206800F58050C1690B4A114309
:10057000C16160690A4982880A640278D0F8010082
:1005800042EA00204864BDE8F08100000F8120FFAE
:10059000233FDEF8040020028020C1024000010059
:1005A00000800240012000F0EDBC10B54FF48060E7
:1005B00000F0E8FC4FF4006000F0E4FC4FF48050E1
:1005C00000F0E0FCBDE810404FF4005000F0DABC51
:1005D000022000F0D7BC000010B5042000F0D2FCCF
:1005E0000D4C2068400715D5012000F065FA042065
:1005F00020600820206010202060202020608020C3
:1006000020604000206040002060BDE810400420D1
:1006100000F044BC10BD0000143C014010B508209F
:1006200000F0B0FC0D4C2068000715D5012000F04B
:1006300043FA042020600820206010202060202041
:100640002060802020604000206040002060BDE8E5
:100650001040082000F022BC10BD0000143C0140F6
:1006600010B5102000F08EFC0D4C2068C00615D58A
:10067000012000F021FA04202060082020601020D2
:10068000206020202060802020604000206040000A
:100690002060BDE81040102000F000BC10BD00003C
:1006A000143C01402DE9F05F202000F06BFC80201D
:1006B00000F068FC4FF48074204600F063FC650095
:1006C000284600F05FFCDFF8E0B0DBF800004FF0F8
:1006D000200680064FF080074FF004084FF008090D
:1006E0004FF0100A13D5012000F0E6F9CBF8008096
:1006F000CBF80090CBF800A0CBF80060CBF80070EE
:10070000CBF80040CBF80050202000F0C7FBDBF80E
:100710000000000613D5012000F0CEF9CBF80080D0
:10072000CBF80090CBF800A0CBF80060CBF80070BD
:10073000CBF80040CBF80050802000F0AFFBDBF896
:100740000000C00513D5012000F0B6F9CBF80080F9
:10075000CBF80090CBF800A0CBF80060CBF800708D
:10076000CBF80040CBF80050204600F097FBDBF8B8
:100770000000800515D5012000F09EF9CBF800801F
:10078000CBF80090CBF800A0CBF80060CBF800705D
:10079000CBF800402846CBF80050BDE8F05F00F0F1
:1007A0007DBBBDE8F09F0000143C0140704790F80D
:1007B0003510022903D080214165012070470521B1
:1007C00080F835100068016821F001010160002007
:1007D000704700002DE9F84304464FF00009CDF8BA
:1007E000009063484FF41651A56D0068B0FBF1F717
:1007F0002E6894F85C10082000FA01F131420FD005
:1008000021680A6852070BD50A6822F004020A60C0
:1008100094F85C108840A860606D40F0010060654D
:1008200094F85C104FF0010808FA01F0304208D04B
:1008300021684969090604D5A860606D40F002008E
:10084000606594F85C1004208840304208D021682C
:100850000968890704D5A860606D40F004006065F0
:1008600094F85C1010208840304218D02168096844
:10087000090714D5A86020680168490304D50068F9
:10088000000308D5A16C07E00168C90503D401681D
:1008900021F008010160216C09B12046884794F8D5
:1008A0005C1020208840304231D021680968C90698
:1008B0002DD5A86094F8350005282068016806D079
:1008C000490347D5006800031DD4616C1CE021F08A
:1008D000160101602068416921F080014161206CAE
:1008E00008B9A06C20B12068016821F008010160FE
:1008F00094F85C103F208840A86084F8349084F815
:100900003580216D1FE0E16B09B120468847606D9D
:1009100000282BD0606DC00714D0052084F8350066
:100920002068016821F0010101600098401C0090DE
:10093000B84203D820680068C007F6D184F8349024
:1009400084F83580E16C002910D001B02046BDE864
:10095000F04308470168C905D5D4016821F01001AA
:10096000016084F8349084F83580CCE7BDE8F883E2
:10097000340000202DE9F041044600F0FDFB06465E
:100980005CB1002584F83450022084F835002068DA
:10099000016821F0010101600DE00120BDE8F08156
:1009A00000F0EAFB801B052805D9202060650320A4
:1009B00084F83500F2E720680068C007F0D12268AB
:1009C000116820480140D4E901031843D4E90336F3
:1009D0003343184363691843A3691843E369184311
:1009E000236A18430843616A042903D1D4E90B132D
:1009F00019430843106020684069666A20F00701C7
:100A000030460E43012704280CD1A06A0643E06A51
:100A100040B12046FFF7F4FC20B14020606584F827
:100A20003570BAE7206846612046FFF7D5FC94F898
:100A30005C203F2191408160656584F8357000201D
:100A4000ACE700003F8010F02DE9F0410446866DD0
:100A500090F83400002501280DD0012084F83400DE
:100A600094F835700020012F07D084F83400022557
:100A70002846BDE8F0810220FBE7022784F83570A4
:100A800060652046FFF7E6FC94F85C103F20884044
:100A9000B0602068016841F016010160206C20B14F
:100AA0002068016841F0080101602068016841F098
:100AB00001010160DCE7000070B5044600F05CFB5A
:100AC0000546601C02D004480078044400F054FB42
:100AD000401BA042FAD370BD280000202DE9FC473E
:100AE0004FF000060400B146009603D094F844008D
:100AF00018B107E00120BDE8FC8784F84560204676
:100B000000F0E2F86648016841F480410160006845
:100B100000F4804001906348016821F40001016005
:100B20000168226A11430160206800F58050016865
:100B300041F00101016000F01FFB05464FF4FA7718
:100B400009E000BF00F018FB401BB84203D90320A6
:100B500004F8440F67E0206800F580500068C00783
:100B6000F0D12068006920F01C0500F079FC4E49A6
:100B70004E4A0144914202D245F0080516E04C4924
:100B80004C4A0144914202D245F00C050EE04A491C
:100B90004A4A0144914209D3494908444949884293
:100BA00002D245F0040501E045F01005206805611A
:100BB0004FF400420021204600F034F90125A8BB83
:100BC000FF20FFF779FF606888B300F0D5FA804610
:100BD00041F288376A460121204600F0E1F800F032
:100BE000CBFAA0EB0800B84217D800984007F1D51F
:100BF0004FF480520021204600F014F9B0B900F003
:100C0000BBFA80466A460121204600F0C9F800F090
:100C1000B3FAA0EB0800B8420AD901212046FFF739
:100C20002FFC04F8445F0320667064E724E018E0BA
:100C300000988006E6D56A461F21204600F0B0F8ED
:100C4000D0B90098C10603D54FF40061E16000E01F
:100C5000E660400701D5A66019E04FF48040A0602F
:100C600015E0E068A168C00840EA510082B20021A6
:100C7000204600F0D7F830B101212046FFF700FCF4
:100C800084F8445036E740F6FF70FFF715FF4946F9
:100C90002046FFF7F5FB84F8445000202BE70000C6
:100CA000443802400438014000D3CEFEC0E1E400E5
:100CB00040F1E9FD40787D0100796CFC005A620248
:100CC000001F0AFA80F0FA02F0B587B0044614213A
:100CD0006846FFF71FFB2D492068884253D12C48F6
:100CE0000024016841F000710160016801F00071A9
:100CF0000591016841F080610160016801F0806147
:100D00000591016841F000610160016801F0006136
:100D10000591016841F004010160016801F00401DE
:100D20000591016841F001010160016801F00101D4
:100D30000591016841F0020101600068022500F0A0
:100D4000020005903220CDE9000502AA03260B27F8
:100D500082E8D00069460F4800F020F98620CDE9EE
:100D6000000502AA694682E8D0000B4800F016F997
:100D70004FF46050CDE9000502AA694682E8D00030
:100D8000064800F00BF907B0F0BD000000800240FB
:100D900030380240000802400000024000040240D7
:100DA0002DE9F047044690F84400914682281DD072
:100DB000822084F84400226810694FF6FF7500F025
:100DC0001C03208A05EAC02018434FF4F86303EAA5
:100DD0008111014321F0020040F00105156100F08E
:100DE000CBF9064601274FF4803810E00220BDE819
:100DF000F08700BF00F0C0F9801B404505D304F820
:100E0000447F002060700320F1E720680569E8074F
:100E1000F0D12068406981B2C9F8001084F84470AC
:100E20000020E4E72DE9F041044690F84400422810
:100E30001ED0422084F84400236818694FF6FF76DC
:100E400000F01C05208A06EAC02028434FF4F8650C
:100E500005EA8111014390B241F003055861206811
:100E6000056100F089F9064601274FF4803810E04B
:100E70000220BDE8F08100BF00F07EF9801B4045F4
:100E800005D304F8447F002060700320F1E7206858
:100E90000569E807F0D184F84470EAE7F8B504285A
:100EA00036D0082834D0102832D0202830D08028DE
:100EB0002ED04FF48076B0422AD0B0F5007F27D0F4
:100EC0002B4D2C4F01280FD0022816D029152A4A65
:100ED0002A4C88421DD1104600F03CF9012817D158
:100EE00000228021204611E00121284600F032F93D
:100EF00001280DD10022202107E00221284600F020
:100F000029F9012804D100220821384600F02EF9E1
:100F1000F8BD4FF40061884209D10C46104600F03C
:100F200019F90128F4D1002221462846EEE74FF4B2
:100F30008051884207D1104600F00CF90128E7D112
:100F400000223146E1E74FF400518842E0D11046DB
:100F500000F000F90128DBD100224021204600F0FA
:100F600005F907486946C06803F0A4FDF8BD000014
:100F7000000C024000000240000802400010024045
:100F800000000020044910B50A68024202D008603F
:100F9000FFF784FF10BD0000143C01402DE9F84F1D
:100FA00000224FF0010803254FF00F0E0B6808FADE
:100FB00002F42340A3426ED14E68012E05D0022ECA
:100FC00003D0112E01D0122E12D186684FEA420CA6
:100FD00005FA0CF7BE43CF6807FA0CF73743876072
:100FE0004668A6430C79C4F300149440344344602B
:100FF000C668570005FA07FC8C6826EA0C06BC4058
:101000003443C4604C68022C01D0122C13D1D40894
:1010100000EB8404A346D4F8209054074FEAD46A26
:101020000EFA0AF629EA06090E6906FA0AF646EAEF
:101030000906CBF8206006680C7926EA0C0604F055
:101040000304BC40344304604C68E40065D5364C6E
:10105000266846F480462660246822F0030604F4DD
:1010600080440094314C3444A446D4F80848960790
:10107000370F0EFA07F6B4432D4EB04201D10026C9
:1010800024E02C4EB04201D101261FE02A4EB0428E
:1010900002D102261AE040E0284EB04201D10326D8
:1010A00014E0274EB04201D104260FE0254EB04295
:1010B00001D105260AE0244EB04201D1062605E002
:1010C000224EB04201D1072600E00826BE4026434A
:1010D000CCF808681E4E34684F689C43FF0300D567
:1010E0001C4334601A4C241D26684F689E43BF037E
:1010F00000D51E432660164E083634684F689C4360
:10110000FF0200D51C433460114E0C3634684F6822
:101110009C43BF0200D51C433460521C102AFFF4CC
:1011200045AFBDE8F88F0000443802400030014070
:10113000000002400004024000080240000C02408F
:10114000001002400014024000180240001C02403F
:10115000003C01400069084000D00120704742690E
:1011600031EA020200D10904816170470AB181614C
:1011700070470904FBE700000148806870470000E1
:10118000280000200248816802781144816070477D
:10119000280000200B4810B5016841F4007101607F
:1011A000016841F480610160016841F4807101606F
:1011B000032000F089F8002000F006F800F03EF867
:1011C000002010BD003C024010B5014688B000224E
:1011D0002D2000F059F82D2000F048F81348002485
:1011E000016841F480710160006805A900F4807015
:1011F0000690684600F014F900F038F90C494000F8
:10120000B0FBF1F10C480B4A491E026040F2E73294
:10121000C0E90324C0E9011400F070FB10B1012003
:1012200008B010BD044800F0A3FBF9E740380240C5
:1012300040420F0000200040680400200A4808B522
:10124000016841F480410160006800F48040009032
:101250000548001F016841F080510160006800F0FE
:101260008050009008BD000044380240002809DB8F
:1012700000F01F02012191404009800000F1E020B0
:10128000C0F8001170470000F0B40E4B1B680C460C
:10129000C3F30223C3F10705042D00D90425191D4A
:1012A000072901D2002300E0DB1E012606FA05F122
:1012B000491E214099409E40761E16403143F0BCA5
:1012C00001F08BBE0CED00E0064900F00702086853
:1012D0004FF6FF03184040EA0220034A104308601B
:1012E000704700000CED00E00000FA052DE9F04722
:1012F0000E46050065D0DFF81481D8F80000F7B27B
:1013000000F00F00B04207D288F80070D8F8000053
:1013100000F00F00B04254D128683D4C810712D52F
:10132000400703D5206840F4E0502060287800078B
:1013300003D5206840F4604020602068A96820F050
:10134000F000084320602878C0072DD03049686835
:101350000839012812D0022813D0032811D00968B7
:10136000890700292DDA216821F00301014321605A
:10137000FFF702FF814641F2883A0EE009688903CF
:10138000EFE709688901ECE7FFF7F6FEA0EB09013A
:10139000514502D90320BDE8F0872068696800F054
:1013A0000C00B0EB810FEFD1D8F80010404601F0EF
:1013B0000F01B14207D90770006800F00F00B0427A
:1013C00001D00120E7E72878400705D52068E968C3
:1013D00020F4E050084320602878000706D52068F4
:1013E000296920F4604040EAC100206000F05EF806
:1013F0002168084AC1F30311515CC84006490860DE
:1014000006480068FFF7E0FE0020C4E7003C024009
:1014100008380240A0530008340000202C000020AF
:101420000F2202600C4A136803F003034360136841
:1014300003F0F0038360136803F4E053C3601268A1
:101440004FF4E05303EAD20202610448006800F05E
:101450000F0008607047000008380240003C02405E
:101460000148006870470000340000200448054926
:1014700000680968044AC1F38221515CC840704782
:101480003400002008380240B053000804480549E1
:1014900000680968044AC1F34231515CC840704792
:1014A0003400002008380240B0530008154810B539
:1014B000006810F00C02144813D04110042A0FD019
:1014C000082A0ED10F4C241F2268236802F03F0225
:1014D0005B0207D52068C0F38810A0FB010106E07D
:1014E000084610BD2168C1F38811A1FB000100234B
:1014F000FEF7C6FE2168C1F30141491C4900B0FB5B
:10150000F1F010BD083802400024F4002DE9F84F36
:1015100004006ED02078DFF83C93C007A9F10405E1
:101520004AD009F104000168C1F38101012908D002
:101530000068C0F3810002280AD1D9F800004002F7
:1015400006D52868800337D560680028E1D033E0ED
:101550006068B0F5803F10D0B0F5A02F286810D09B
:1015600020F480302860286820F48020286060689B
:10157000A8B1FFF701FE06460DE0286840F4803070
:10158000F4E740F480202860F7E700BFFFF7F4FDA0
:10159000801B642873D828688003F7D50CE0FFF718
:1015A000EBFD064605E000BFFFF7E6FD801B642863
:1015B000F0D828688003F7D42078DFF89C82800771
:1015C0004FF0000A3ED5A348001D016811F00C0F32
:1015D00008D00068C0F3810002280BD1D9F80000C0
:1015E000400207D42868800716D5E068012800D19A
:1015F00012E02BE1E068B8B10120C8F80000FFF765
:10160000BBFD064605E000BFFFF7B6FD801B0228C4
:10161000C0D828688007F7D52868216920F0F8002D
:1016200040EAC10028600DE0C8F800A0FFF7A4FD63
:10163000064604E0FFF7A0FD801B02281FD828689B
:101640008007F7D42078000722D5824E834861694D
:10165000703671B101210160FFF78EFD074604E08D
:10166000FFF78AFDC01B022809D830688007F7D52C
:101670000EE0C0F800A0FFF77FFD074605E082E01E
:10168000FFF77AFDC01B02287DD830688007F7D4A9
:101690002078400768D5DFF8BCB100270BF13C0B80
:1016A000DBF80000C0000BD4DBF8001041F08051E3
:1016B000CBF80010DBF80000012700F0805000900C
:1016C000674E3068C00510D4306840F480703060D8
:1016D000FFF752FD009005E0FFF74EFD0099401A1C
:1016E000022850D83068C005F6D55A4EA0686C362E
:1016F00001280FD00528306810D020F0010030609C
:10170000306820F004003060A068B8B1FFF734FD05
:1017100000900FE0306840F00100F4E740F0040072
:101720003060F7E7FFF728FD0099411A41F2883051
:10173000814266D830688007F4D50EE0FFF71CFDC3
:10174000009007E0FFF718FD0099411A41F2883038
:10175000814256D830688007F4D42FB1DBF80010EE
:1017600021F08051CBF80010A069C8B33949091D98
:101770000968C1F3810102294AD00228504607D0E6
:10178000C8F8600000E03CE0FFF7F6FC04463BE0F0
:101790004746C8F86000FFF7EFFC064605E000BFCB
:1017A000FFF7EAFC801B02282BD828688001F7D4B9
:1017B000D4E907010843A16A2A4A490802EB01411A
:1017C000626A41EA8211084394F82C1040EA0161F0
:1017D000C9F8001001203866FFF7CEFC044606E089
:1017E00036E000BFFFF7C8FC001B022809D82868B4
:1017F0008001F7D52CE000BFFFF7BEFC001B0228DC
:1018000002D90320BDE8F88F28688001F4D41FE0D6
:101810000128F7D0D9F80000E26900F48001914274
:1018200014D1226A00F03F0191420FD147F6C071F6
:10183000626A0140914209D1A26A00F440319142AA
:1018400004D1E16A00F07060884201D00120D9E73C
:101850000020D7E70438024000004742800E47428C
:10186000007000400000FFFF7047704770B590F8AF
:101870003C20012A32D0012480F83C40022280F82A
:101880003D2003685A689D6822F070060A6832435A
:101890005A60134B02689A4214D0B2F1804F11D0B3
:1018A000104B9A420ED0104B9A420BD00F4B9A42DB
:1018B00008D00F4B9A4205D00E4B9A4202D00E4BE5
:1018C0009A4204D1496825F080031943916080F859
:1018D0003D40002180F83C10084670BD022070BDDC
:1018E000000001400004004000080040000C0040DF
:1018F00000040140004001400018004010B5040001
:1019000003D094F83D0010B107E0012010BD002085
:1019100084F83C00204600F00DF8022084F83D00D9
:10192000211D206801F06CF8012084F83D000020A2
:1019300010BD000008B500680B49884212D10B4861
:10194000016841F0020101600068002200F002001D
:10195000009011461D20FFF797FCBDE808401D20B0
:10196000FFF784BC08BD000000040040403802407E
:101970000168CA6842F00102CA600068816801F02B
:101980000701062903D0016841F001010160002030
:10199000704770B5044690F83C00012817D0012527
:1019A00084F83C50022084F83D002068826822F0D0
:1019B000770222F47F4282600868502830D00DDC24
:1019C00020284DD005DC98B310283BD148E00220F8
:1019D00070BD302844D0402834D139E0602828D068
:1019E000702806D0B0F5805F2CD0B0F5005F29D10B
:1019F0000AE0CB68D1E90121206801F072F8206883
:101A0000816841F0770109E0CB68D1E901212068C4
:101A100001F067F82068816841F48041816011E03D
:101A2000CA684968206801F031F95021206807E050
:101A300016E0CA684968206801F039F96021206819
:101A400001F059F884F83D50002084F83C0070BD46
:101A5000CA684968206801F019F940212068EFE759
:101A6000226801461046EBE7F0B40068234988423B
:101A700034D1234806692349002540F2E5530A681A
:101A800040F241440E2E32D2DFE806F0070A0D077D
:101A9000101316191C1F222A2A2DD362CB601AE0BC
:101AA00040F23F63F9E740F22163F6E740F2BD53AD
:101AB000F3E740F26353F0E740F21353EDE740F2EF
:101AC000B943EAE740F28743E7E740F26943E4E7D6
:101AD00040F29143E1E70169491C0161F0BC7047A4
:101AE000D462CC60F7E740F23453D362CB60056137
:101AF000F0BC0021034800F0E5B8000000040040FD
:101B000000000020F800002070B50446006801695C
:101B10004FF00005C943890715D4C168C943890737
:101B200011D4E91E016101202077206880698007B7
:101B3000204602D0FFF798FF04E000F0C1F82046ED
:101B400000F088F9257720680169C943490717D44F
:101B5000C168C943490713D46FF004010161022031
:101B600020772068806910F4407F204602D0FFF77C
:101B70007BFF04E000F0A4F8204600F06BF9257725
:101B800020680169C943090716D4C168C943090718
:101B900012D46FF008010161042020772068C06929
:101BA0008007204602D0FFF75FFF04E000F088F8CE
:101BB000204600F04FF9257720680169C943C9061E
:101BC00017D4C168C943C90613D46FF0100101616D
:101BD000082020772068C06910F4407F204602D09A
:101BE000FFF742FF04E000F06BF8204600F032F906
:101BF000257720680169C943C90708D1C168C9436D
:101C0000C90704D1891E0161204600F075F92068DA
:101C10000169C943090609D4C168C943090605D445
:101C20006FF0800101612046FFF71EFE2068016908
:101C3000C943490609D4C168C943490605D46FF0B0
:101C400040010161204600F061F920680169C94343
:101C500089060BD4C168C943890607D46FF02001F7
:101C600001612046BDE87040FFF7FFBD70BD000078
:101C700010B586B0044614216846FEF74BFB0D49AB
:101C80002068884214D10C48016841F002010160CB
:101C90000068012100F00200059010200090022051
:101CA000CDE901010390049069460448FFF776F9F5
:101CB00006B010BD0004004030380240000402406D
:101CC0007047000010B50268044631B1042908D0FD
:101CD00008292FD00C2908D130E0D06820F002006C
:101CE00002E0D06820F00400D0600022206800F0FC
:101CF000EBFE144841F2111321689A10814202D080
:101D00001148814209D1086A184206D1086A104276
:101D100003D1486C20F4004048642068016A1942ED
:101D200006D1016A114203D1016821F0010101606D
:101D3000002010BDD06820F00800D5E7D06820F062
:101D40001000D1E7000001400004014070B50446D6
:101D500090F83C000D4601280DD0012684F83C6027
:101D6000022084F83D0042B1042A18D0082A2AD063
:101D70000C2A4DD139E0022070BD206800F0C4FE6D
:101D80002068816941F0080181612068816921F042
:101D900004018161206881692A69114311E020688A
:101DA00000F0E2FE2068816941F4006181612068F1
:101DB000816921F480618161206881692A6941EA31
:101DC0000221816124E0206800F004FF2068C169DD
:101DD00041F00801C1612068C16921F00401C161BD
:101DE0002068C1692A69114311E0206800F026FFCC
:101DF0002068C16941F40061C1612068C16921F4B2
:101E00008061C1612068C1692A6941EA0221C1611A
:101E100084F83D60002084F83C0070BD10B50400DB
:101E200003D094F83D0010B107E0012010BD002060
:101E300084F83C00204600F00CF8022084F83D00B5
:101E4000211D206800F0DCFD012084F83D00002009
:101E500010BD70477047000010B5044600680122AD
:101E600000F032FE0B492068884202D00A498842BD
:101E700003D1416C41F4004141642068816801F064
:101E80000701062903D0016841F00101016000202B
:101E900010BD0000000001400004014010B50446E0
:101EA0000068002200F010FE114841F21112216872
:101EB0009310814202D00F48814209D1086A104232
:101EC00006D1086A184203D1486C20F400404864E7
:101ED0002068016A114206D1016A194203D10168E2
:101EE00021F001010160012084F83D00002010BDB7
:101EF000000001400004014000680349884201D10C
:101F0000FFF740B97047000000200040704770475D
:101F100070B5026804461068D168536910F00F0F5D
:101F200052D003F0010501F490762E435FD0C20732
:101F300005D0CA0503D5E26B42F00102E263420715
:101F400005D5DA0703D0E26B42F00202E2638207B2
:101F500005D5DA0703D0E26B42F00402E263020720
:101F600007D501F020022A4303D0E26B42F00802B9
:101F7000E263E26B002A33D0800604D5880602D5DE
:101F8000204600F006FF20684069E16BC0F3801036
:101F9000090700D428B3204600F0E4FE2068416918
:101FA00049061AD5416921F040014161606BA0B139
:101FB0001B490165606BFEF7FAFB002810D0606BCF
:101FC000016DBDE870400847830610D58B060ED51D
:101FD0002046BDE8704000F0DCBE2046FFF797FFCA
:101FE00070BD2046FFF793FF0020E06370BD03063D
:101FF00006D50B0604D52046BDE8704000F0A8BF0A
:102000004006F3D54806F1D5D168204621F04001BD
:10201000D160202184F8391000F03EFA70BD000034
:10202000D32C000870B5040004D094F839000025C2
:1020300010B106E0012070BD84F83850204600F051
:1020400023F8242084F839002068C16821F4005165
:10205000C160204600F0E8FE2068016921F490414B
:1020600001612068416921F02A0141612068C1684D
:1020700041F40051C160E563202084F8390084F800
:102080003A00002070BD00002DE9F04F87B00446F3
:1020900014216846FEF73EF9A148DFF8808202214C
:1020A0002568032207238E0607154FF040094FF0DD
:1020B000000C454561D1E2466546DFF864C20CF18B
:1020C000140CDCF8008048F01008CCF80080DCF834
:1020D00000C00CF0100CCDF814C0D0F800C04CF0CB
:1020E000020CC0F800C0006800F002000590C0209B
:1020F0008DE8230069468B48CDE90323FEF74EFFA8
:10210000DFF8288288494046C8F80010C0E9016518
:10211000C0E90357C8F81450C8F81850C8F81C5044
:10212000C8F82050C8F82450FEF724FC08B1FEF788
:102130003DFB7D487E4DC4F834807830C8F8384087
:1021400085E84102C5E903A7C5F814A0C5F818A0A1
:10215000C5F81CA0C5F820A02846C5F824A0FEF7A5
:1021600009FC08B1FEF722FB25630022012125208E
:10217000AC63FFF789F8252066E0DFF8B881DFF867
:10218000A0B1DFF8B4E10BF1100B454561D1DBF8EC
:102190000080E246654648F40038CBF80080DBF862
:1021A00000C00CF4003CCDF814C0D0F800C04CF0D6
:1021B000080CC0F800C0006800F00800059060201E
:1021C0008DE8230069467046CDE90323FEF7E6FE5D
:1021D000DFF86C8159494046C8F80010C0E9016534
:1021E000C0E90357C8F81450C8F81850C8F81C5074
:1021F000C8F82050C8F82450FEF7BCFB08B1FEF721
:10220000D5FA4E484F4DC4F834801830C8F83840DD
:1022100085E84102C5E903A7C5F814A0C5F818A0D0
:10222000C5F81CA0C5F820A02846C5F824A0FEF7D4
:10223000A1FB08B1FEF7BAFA25630022012126208E
:10224000AC63FFF721F82620FFF710F807B0BDE8D0
:10225000F08FDFF8F4804545F8D1DBF80080E246E6
:10226000654648F48028CBF80080DBF800C00CF409
:10227000802CCDF814C0D0F800C04CF0080CC0F889
:1022800000C0006800F0080005904FF440708DE831
:10229000230069467046CDE90323FEF77FFE2749F8
:1022A000DFF8A88060394046C8F80010C0E9016531
:1022B000C0E90357C8F81450C8F81850C8F81C50A3
:1022C000C8F82050C8F82450FEF754FB08B1FEF7B8
:1022D0006DFA1A481E4DC4F834803038C8F83840BA
:1022E00085E84102C5E903A7C5F814A0C5F818A000
:1022F000C5F81CA0C5F820A02846C5F824A0FEF704
:1023000039FB08B1FEF752FA25630022012127208C
:10231000AC63FEF7B9FF272096E7000000100140EC
:10232000303802400004024040640240280200208D
:102330008802002000440040000C024088600240F7
:10234000E80200204803002000480040A8030020C5
:102350000804002090F83A30202B22D1F9B1F2B1D4
:1023600090F83830012B1CD081628285C285002113
:10237000C163222280F83A2080F838100168CA68C8
:1023800042F48072CA6001684A6942F001024A61FF
:102390000068C16841F02001C16000207047012041
:1023A000704702207047000038B50068174988421E
:1023B00012D1012216491748FFF7CCFF144C1548DB
:1023C000A41ED030616841B1A2784254491C002556
:1023D00061600D2908D016DC38BDA178A629FBD193
:1023E00001700120606038BD017B86290BD18178A6
:1023F000552902D0712906D104E06946A06802F08F
:1024000059FB00E0C079656038BD00000010014054
:10241000020000203801002070B5044690F8390011
:10242000202830D169B362B394F8380001282AD04B
:10243000012084F838002162A284E2840025E5634B
:10244000212084F83900236B1048D863236B10488F
:102450001864236B0F48D864206B13460565266803
:10246000206B321DFEF7F0FA21686FF04000086023
:1024700084F838502068416941F0800141610020B2
:1024800070BD012070BD022070BD00002D2D000820
:102490005B2D0008E32C000870477047FEE7000042
:1024A000214808B5016841F480010160016801F428
:1024B00080010091016841F4001101600068002270
:1024C00000F40010009011460C20FEF7DDFE0C20F9
:1024D000FEF7CCFE002211460E20FEF7D5FE0E20A0
:1024E000FEF7C4FE002211461020FEF7CDFE10209C
:1024F000FEF7BCFE002211461120FEF7C5FE11209A
:10250000FEF7B4FE002211463A20FEF7BDFE3A2047
:10251000FEF7ACFE002211464620FEF7B5FEBDE8F0
:1025200008404620FEF7A2BE303802400E480D4952
:1025300001600121416001824269002111704369FB
:1025400080225A704369E1229A704269D1704269CF
:102550001171426951718161C1614FF400010162E1
:10256000FEF7BCBA00800240B00000202DE9F04721
:1025700086B014216846FDF7CDFE6E480024016840
:1025800041F010010160016801F01001059101683E
:1025900041F004010160016801F004010591016846
:1025A00041F080010160016801F08001059101683E
:1025B00041F001010160016801F00101059101682C
:1025C00041F002010160016801F00201059101681A
:1025D00041F0080101600068574D00F008000590C7
:1025E0000122FF212846FEF7C1FDDFF8509148F295
:1025F0002818012241464846FEF7B8FDDFF840A101
:102600000122D1025046FEF7B1FD00224FF4704185
:102610005046FEF7ABFDFF2000900126CDE9016496
:10262000694628460394FEF7B9FC464F4FF47050B4
:10263000CDE900070225694602954348FEF7AEFC46
:10264000CDF80080CDE90164694648460394FEF761
:10265000A5FC0420CDE90004DFF8F080694640467F
:102660000294FEF79BFC4FF478400090CDE90164A2
:10267000694650460394FEF791FC0320CDE900071C
:10268000694602955046FEF789FC314E9C20CDE903
:102690000006694602955046FEF780FC08208DE84A
:1026A000310069464046FEF779FC4FF44870CDE9A9
:1026B0000006694602954046FEF770FC00220121A3
:1026C0000620FEF7E1FD0620FEF7D0FD00220121E5
:1026D0000720FEF7D9FD0720FEF7C8FD00220221E2
:1026E0000820FEF7D1FD0820FEF7C0FD00220221E0
:1026F0000920FEF7C9FD0920FEF7B8FD00220221DE
:102700000A20FEF7C1FD0A20FEF7B0FD00220221DB
:102710001720FEF7B9FD1720FEF7A8FD00220121C2
:102720002820FEF7B1FD2820FEF7A0FD06B0BDE889
:10273000F0870000303802400010024000000240E4
:10274000000C02400000111000080240000402408A
:102750000000311010B58EB000240794089409943D
:102760000A940B941C2168460C94FDF7D3FD00F0ED
:10277000F1F81A48184944F62062016018490968BE
:10278000B1FBF2F1491EC0E9011440F23451C0E935
:1027900003148461FFF7B2F84FF48050079007A943
:1027A0000E48FFF7F6F80D48FFF738FB0B940BA91E
:1027B0000A480C94FFF75AF86020CDE90004022083
:1027C00002900022694604940448FFF7BFFA0348C8
:1027D000FFF74EFA0EB010BD00040040F8000020D4
:1027E00034000020FEE77047054D4FF48054FA2076
:1027F00000F0E6FD21462846FEF7B1FCF7E70000B1
:10280000000C0240012000F0DBFDFBE7214DDFF86A
:102810008880224C4FF480794FF4007A04212846B6
:10282000FEF798FC064608212846FEF793FC46EA88
:10283000400610212846FEF78DFC46EA80068021DE
:102840002846FEF787FC46EAC00708214646404670
:10285000FEF780FC47EA001720213046FEF77AFC9D
:1028600047EA401749463046FEF774FC47EA8017AE
:1028700051463046FEF76EFC47EAC010C1B26170A7
:102880002078814202D0217000F064FE0A2000F01E
:1028900097FDC3E7000C0240000402400000002046
:1028A00010B5502080F31188BFF34F8FBFF36F8FA7
:1028B00002F04CFB18B104494FF080500860002032
:1028C00080F3118810BD000004ED00E030B593B036
:1028D00030216846FDF71EFD14210CA8FDF71AFDF6
:1028E0001A480025016841F080510160006800F03D
:1028F000805011901648016841F4804101600068E1
:10290000022400F480401190012000900004019006
:102910008001CDE90640082008904FF4A870CDE969
:10292000090407200B906846FEF7F0FD0CA90F2064
:1029300081E831004FF4A0500F90E0021090052183
:102940000CA8FEF7D3FC13B030BD000040380240A5
:102950000070004070B5194C2068194A10F00C0145
:10296000184804D05510042903D0082903D0026068
:102970001BE0056019E01149091F0B68C3F380567D
:102980000B6803F03F0316B1B5FBF3F201E0B2FBB5
:10299000F3F20B680968C3F388135A43C1F301418A
:1029A000491C4900B2FBF1F101602168064AC1F3FC
:1029B0000311515C0268CA40026070BD08380240D1
:1029C0000024F40034000020A053000805480168EA
:1029D00041F47001016003494FF0006080390860E4
:1029E0007047000088ED00E00148FFF78DB8000057
:1029F000F80000200148FFF787B8000068040020B5
:102A0000F0B50268254C264D264E274F274B4FF038
:102A1000804CA04209D0604507D0A84205D0B04202
:102A200003D0B84201D0984204D122F0700E4A6817
:102A300042EA0E02A0421BD0604519D0A84217D02E
:102A4000B04215D0B84213D0984211D0184DA842C8
:102A50000ED0184DA8420BD0174DA84208D0174DE4
:102A6000A84205D0164DA84202D0164DA84203D167
:102A700022F44075CA682A434D6922F080022A4335
:102A800002608A68C2620A688262A04201D09842EB
:102A900001D10969016301214161F0BD00000140DC
:102AA0000004004000080040000C00400004014009
:102AB000004001400044014000480140001800402F
:102AC000001C00400020004010B501F01F03012150
:102AD000046A99408C430462016A9A40114301627E
:102AE00010BD10B5846842EA032224F47F440A43EF
:102AF0002243826010BD826822F070020A4342F0D5
:102B00000701816070470000F0B5026A22F00102FF
:102B10000262036A42688469124E24F073050C68ED
:102B20002C4323F002058B682B430D4DA84201D0A6
:102B3000B04205D123F00807CB683B4323F00403E0
:102B4000A84201D0B04205D14D6922F4407215432C
:102B50008A692A4342608461496841630362F0BD27
:102B60000000014000040140F0B5026A22F01002AA
:102B70000262026A436884690D6824F4E64444EA08
:102B800005248D6822F0200242EA05120F4D104EF6
:102B9000A84201D0B04206D1CF6822F0800242EABA
:102BA000071222F04002A84201D0B04207D14D697D
:102BB00023F4406343EA85038D6943EA8503436058
:102BC0008461496881630262F0BD00000000014039
:102BD00000040140F0B5026A22F480720262026AC7
:102BE0004368C46922F4007224F073050C68124E25
:102BF0002C438D6842EA05220E4DA84201D0B04216
:102C000006D1CF6822F4006242EA072222F48062F1
:102C1000A84201D0B04207D14D6923F4405343EAA2
:102C200005138D6943EA05134360C4614968C163B4
:102C30000262F0BD000001400004014030B5026AAC
:102C400022F480520262046A4268C3690D6823F468
:102C5000E64343EA05238D6824F4005444EA05342E
:102C6000084DA84202D0084DA84204D14D6922F473
:102C7000804242EA85124260C3614968016404628D
:102C800030BD0000000001400004014010B5036A9F
:102C9000046A24F001040462846924F0F00444EA24
:102CA000021423F00A020A438461026210BD10B5C7
:102CB000036A23F0100303628369046A23F47043F8
:102CC00043EA023224F0A00343EA01118261016267
:102CD00010BD10B5806B0021C185C184FFF717F9C5
:102CE00010BD70B5846B2068406994F83910C0F34A
:102CF000C0100025212904D118B1E584204600F038
:102D00003FF82068406994F83A10C0F380102229F7
:102D100004D118B1E585204600F024F8E06B40F0BE
:102D20001000E0632046FFF7F2F870BD10B50146D1
:102D3000806B09680968C9050CD40021C184016849
:102D40004A6922F080024A610068C16841F040018E
:102D5000C16010BDFFF7A0FB10BD10B5806BFFF781
:102D60009CFB10BD0168CA6822F49072CA600168B9
:102D70004A6922F001024A61202180F83A10704726
:102D80000168CA6822F0C002CA60202180F83910A8
:102D9000704710B590F83A10222901D0022010BDDA
:102DA0008168B1F5805F11D00169002901681FD0E9
:102DB000496801F07F03816A4A1C82620B70C18DF1
:102DC000491E0904090CC18518D02BE00269816AEB
:102DD000002A0268526805D0D2B20A80816A491C72
:102DE0008162ECE7C2F308020A80816A891CF7E776
:102DF0004A68816A4B1C83620A70E0E70168CA680E
:102E000022F02002CA600168CA6822F48072CA6097
:102E100001684A6922F001024A61202180F83A10D3
:102E2000FFF7C2FA002010BD2DE9F041044600680A
:102E30000169E26821F44051114301612169A068F0
:102E4000E26908436169114308432168CA6849F28D
:102E50000C639A430243CA6020684169A26921F465
:102E6000407111434161E069192764253226B0F5AC
:102E7000004F354A354920684FF0000806D0884297
:102E800001D0904236D1FEF701FB35E0884201D0F7
:102E9000904202D1FEF7FAFA01E0FEF7E7FA616824
:102EA0004A18A0FB070148EB0803FDF7E9F90146C2
:102EB000B0FBF5F00201B1FBF5F06FF018035843D9
:102EC00001EB800006EBC000B0FBF5F000F0F8006D
:102ED00002EB4002B1FBF5F0584301EB800006EB3A
:102EE000C000B0FBF5F000F00700216810448860D6
:102EF000BDE8F081FEF7BAFA61688B0F8A00A0FB8B
:102F00000701FDF7BDF90146B0FBF5F06FF01802BF
:102F1000504301EB800006EB0010B0FBF5F000F031
:102F2000F002B1FBF5F002EB0012B1FBF5F06FF02F
:102F30001803584301EB800006EB0010B0FBF5F0DE
:102F400000F00F00D1E70000001401400010014024
:102F500090F83910212901D0022070478168B1F51D
:102F6000805F016A0BD04A1C0262026809785160D6
:102F7000C18C491E0904090CC1840ED017E00988D0
:102F80000268C1F30801516001690029016A02D099
:102F9000491C0162ECE7891CFBE70168CA6822F062
:102FA0008002CA600068C16841F04001C160002031
:102FB000704700000148FEF7ABBF00003801002059
:102FC0000148FEF7A5BF0000780100200148FEF788
:102FD0009FBF0000B8010020FEE70907090E002886
:102FE00004DB00F1E02080F80014704700F00F00CF
:102FF00000F1E02080F8141D704702E008C8121F9D
:1030000008C1002AFAD170477047002001E001C1D1
:10301000121F002AFBD170472DE9F041040006D0B1
:10302000184E306884420AD10020BDE8F08150205B
:1030300080F31188BFF34F8FBFF36F8FFEE701F06E
:10304000CBF865697768B66801F0E6F8BD4201D053
:10305000B54201D10220E8E70B48854208D1A06AB9
:103060000028F7D194F858000128F3D00320DCE7BA
:1030700005481438854202D00DB10120D5E704205F
:10308000D3E7000038000020980900202DE9F05F08
:103090004FF0DF0B4FF0CA084FF036094FF0F90A36
:1030A0000025884C01F04CFF874E316A401A4FF0E2
:1030B000A60121704FF0100161704FF08101A170E5
:1030C000C1B2C0F30723E170C0F30742B0F55C6FF3
:1030D000237162714FEA1060A07177786DD8252F47
:1030E00068D2DFE807F0673C3C676767192024284F
:1030F00019202C30676767674F5459364F5459363B
:103100005F5F671367133C3C3C3C3C00E5712572F4
:1031100084F809B0AB271AE06227E771282739E065
:103120006572A5721BE0BF27E7712B2732E03527B8
:10313000E77139272EE09227E7713C272AE0CB2759
:10314000E771302726E02927E771342722E0A772AC
:1031500005E0E571257284F8099084F80AA0E5720B
:10316000022727731A4481310127114467730844E9
:10317000E1790844217A0844617A0844A17A084434
:10318000C01C6FE084F8079084F808A0C8E784F8B2
:10319000078006272772C3E7E571257284F8098046
:1031A0000627D4E72127E7715427277294276772EF
:1031B000FF27CCE7E5712572B2E7252F7FD2DFE844
:1031C00007F07E40407E7E7E19202226192A2E326C
:1031D0007E7E7E7E363A666C363A666C73737E13FC
:1031E0007E13404040404000E57125720127677220
:1031F000C02725E0B827E7711E271FE06572A5727A
:103200001FE0472708E08427E7712B2716E01427E3
:10321000E7712E2712E0AB27E77121270EE01E276A
:10322000E77125270AE0AE27E771272706E0D627B2
:10323000E771FA2702E02A27E77105272772DDE701
:10324000A772E57202271A4481312773114465730E
:103250000844E1790844217A0844617A0844A17A53
:103260000844801CA07386201649E0731022A1F147
:10327000E000FFF7D1F8142001F082F80021B068D7
:1032800001F002FD01287FF40DAFBDE8F09FE5716C
:1032900025722A2767720527D2E7E5712572D6279E
:1032A0006772FA27CCE70AE0FF27E7714FF03F0C7F
:1032B00084F808C04FF0AF0C84F809C0C0E7E5718E
:1032C00025729BE71802002000000020FDF762FF36
:1032D000FFF7FCFAFFF74AF9FFF7E2F830482F4909
:1032E0004FF4E13500240160C0E901540C26C460AC
:1032F000C0E904468461C461FEF794FE2848294968
:1033000040300160C0E90154C460C0E904468461F2
:10331000C461FEF787FE2248234980300160C0E97E
:103320000154C460C0E904468461C461FEF77AFEBA
:10333000FFF710FAFFF7FAF800F05CF8032200211B
:10334000012001F00DFA194CA06020B100231A46AB
:10335000194601F0A1FA03220021012001F000FA30
:10336000E06020B100231A46194601F095FA104A90
:103370000021104800F076F80D4A606124320021E7
:103380000D4800F06FF80A4AA061483200210B484E
:1033900000F068F8E06100F047F8FEE70010014037
:1033A0003801002000440040004800400000002098
:1033B0000853000805280008E92700080D28000820
:1033C00010B5EFF3058179B9EFF3108111B9EFF37F
:1033D000118119B106490968022905D0002408B1F4
:1033E00000F0CEFF204610BD6FF00504FAE70000A4
:1033F00088000020EFF3058068B9EFF310820949D7
:10340000086812B9EFF311820AB1022803D028B17B
:103410004FF0FF3070476FF00500704701200860E3
:10342000002070478800002010B5EFF3058070B9C8
:10343000EFF310820A49086812B9EFF311820AB15A
:10344000022804D0012805D04FF0FF3010BD6FF0E6
:10345000050010BD0220086001F08AF8002010BDB0
:10346000880000202DE9FF414FEA01034FF00005DD
:10347000EFF30581039599BBEFF3108111B9EFF3D9
:10348000118119B11F490968022938D040B380263B
:10349000182100244AB3176807B13C4697691FB149
:1034A00039467F1E382F02D21779FF0703D000203C
:1034B00004B0BDE8F081576907B1BE08D2F808C072
:1034C000BCF1000F0DD0D5685C2D18D312693AB14C
:1034D00037B18DE806103246214601F0F8FC039022
:1034E0000DE0D7685FB912694AB903AACDE90012A5
:1034F000B2B2214601F0BEFC012800D0039503982A
:10350000D6E700008800002070B50546EFF305807F
:10351000A0B9EFF3108010B9EFF3118018B10C4887
:10352000006802280AD065B12846FFF775FD042817
:103530000AD00024284600F049FF07E06FF0050498
:1035400004E06FF0030401E06FF00204204670BD58
:10355000880000202DE9F05FDFF8F4A2BE4CBD4EDC
:103560009AF801306327206848F2281E40F234554B
:1035700040F277514FF00009122B7CD012DC40F260
:10358000DB5240F2E73C40F2CF7B122B45D2DFE822
:1035900003F02845AEC873D1E6E6E6E69999999915
:1035A000F0F5EDEC1B2B67D009DCA3F11303082B1E
:1035B000ECD2DFE803F0B6B6B661616161B6222BEA
:1035C0007ED008DC1D2B7CD01F2B7BD0202B7AD00B
:1035D000212B22D1F7E0232BE5D0242B74D0FF2B15
:1035E000F7D1012271469D48FDF7C0FD0122D102AD
:1035F0009B48FDF7BBFD0122FB213046FDF7B6FDE0
:1036000000219548FEF74AFC2168C1F83490DAF8A9
:103610002400002801D0FFF777FF88E0DAF82400C3
:10362000554608B1FFF770FF00218B48FEF736FCC6
:1036300020684F46C0F834900122D1038748FDF737
:1036400095FD01221A213046FDF790FD002221212F
:103650003046FDF78BFD42F210742146A86801F058
:1036600013FB012863D17F48A62101700D21417011
:10367000AA21817001E054E0D0E000F11001CA7885
:103680000B7949791A4412FB01F1C1700A0A0B0C3B
:1036900002710E0E437186714FF00B0C80F807C05B
:1036A0001A44AA3107721144477287723144C772B3
:1036B0000B310173862141730D220146C03804E0AD
:1036C00097E05CE076E078E0ABE0FEF7A5FE21460F
:1036D000E86801F0D9FA012829D101F031FC28620B
:1036E000614A00216148FFF7BDFE68621FE00021CA
:1036F0005948FEF7D3FB2068C562E5602068476340
:1037000000215548FEF7A8FB0122D1035348FDF7DD
:103710002DFD01221B213046FDF728FD002220212E
:1037200002E0C562E5602CE03046FDF71FFD002099
:10373000BDE8F09FC562E560206847630021464808
:10374000FEF7ACFB0122D1034448FDF70FFD012237
:1037500029213046FDF70AFD00221221E4E7C2626A
:10376000E2600EE02068476332E022E01CE005E002
:10377000FFE7C0F82CC0C4F80CC002E05946C16293
:10378000E1602068476300213348FEF787FB012290
:10379000D1033248FDF7EAFC012231213046FDF722
:1037A000E5FC00220A21BFE7C0F82CC0C4F80CC019
:1037B000D8E75946C162E160D4E7C562E560216897
:1037C000C1F8349019E0C562E5602168C1F8349011
:1037D00000212148FEF762FB0122D1031F48FDF7BB
:1037E000C5FC012239213046FDF7C0FC0022022130
:1037F0009AE7C562E5602068476300211648FEF736
:103800004DFB0122D1031548FDF7B0FC01220A212E
:103810003046FDF7ABFC0022312185E7C562E5604B
:10382000A0E7C562E5602168C1F8349000210A482C
:10383000FEF734FB0122D1030848FDF797FC012273
:1038400022213046FDF792FC002219216CE700008E
:103850000000002000100240F8000020000002409C
:10386000000C0240F8010020745300088D3000085D
:103870002DE9F041134C0F46054666692068001D8E
:1038800000F04EFC681C07D137B12168BDE8F0415B
:103890000D48091D00F094BC20683544B5424560D0
:1038A000216805D2A068BDE8F041091D00F070BC98
:1038B0006068091D00F06CFC206B854200D2256316
:1038C000BDE8F08138000020980900202DE9F04182
:1038D000054600F081FC2D4C2069401C20612068C9
:1038E0002B4F10B1E06930B32BE02560206901282F
:1038F00027D1002606EB860007EB800000F03AFC9B
:10390000761C382EF6D3234800F034FC21481430BE
:1039100000F030FC1F48283000F02CFC1D483C30E3
:1039200000F028FC1B48503000F024FC194860606F
:103930001430A06005E02068E96AC06A884200D8B7
:103940002560E06A401CE0626864E86AA169884218
:1039500000D9A06100EB800007EB8000291D00F07A
:103960002FFC00F059FCE06900280CD02068E96ABF
:10397000C06A884207D208494FF080500860BFF300
:103980004F8FBFF36F8FBDE8F0810000380000203B
:10399000E80400204809002004ED00E038B500F0FC
:1039A0001BFC104CA068C8B90F4800F0E3FB0E48A0
:1039B000143000F0DFFB0C482060143060600A4BCC
:1039C00000202833009003F1500210210A2000F05B
:1039D000EBFEA06010B105A100F09CFCBDE83840F2
:1039E00000F01ABC74000020AC090020546D725124
:1039F0000000000030B4026C0B46002A0BD0C168F6
:103A00001144C1608468A14201D30168C16030BC27
:103A10001846FCF766BC30BC70472DE9F041856B59
:103A2000174604460026026C82B1C7B1E068FCF775
:103A300058FCE168206C091AE1602268914202D2C8
:103A4000A168081AE060022F16D017E02068A8B914
:103A5000A06801F0DFFA06460020A0600EE0606872
:103A6000FCF73FFC216C606808446060A1688842F4
:103A700004D32068606001E005B16D1E6D1CA56374
:103A80003046BDE8F08110B5044690F8590058B1B1
:103A900001280CD002280FD0502080F31188BFF3EA
:103AA0004F8FBFF36F8FFEE7206B00F0C9FB2046FE
:103AB000BDE8104000F0C4BB10BD000010484FF43A
:103AC0007051420706D0C01D0D4920F00700411A71
:103AD000C1F570510B4A00230144C2E900030839C3
:103AE000103A21F0070111604B600B600B1AC0E91E
:103AF000001393604FF000405360D06070470000A7
:103B00007C1100209C000020144E154CA6F29C470E
:103B10004FF08058DFF84C9012E000BF00F05CFBE3
:103B2000F068C568281D00F0FBFA2069401E20617E
:103B3000E068401EE06000F06FFB2846FFF7A3FF3F
:103B4000E0680028EAD138680128F9D9C9F800806E
:103B5000BFF34F8FBFF36F8FF2E70000840900209F
:103B60003800002004ED00E070B51D46049C51B102
:103B7000C4F80020C4E90F010121204600F048FEEE
:103B800084F84C5070BD2460F4E700002DE9F05F2C
:103B90008846DDE90B941546834691009A460A9EB5
:103BA000A522206BFCF7AFFB6FF00301206B01EB4C
:103BB0008501084420F00707780707D0502080F3DC
:103BC0001188BFF34F8FBFF36F8FFEE70025B8F169
:103BD000000F0FD05FF00000221818F8001082F8D4
:103BE000341018F8001011B1401C1028F4D384F8D8
:103BF000435001E084F83450382E00D33726E66273
:103C0000C4E91365201D00F0C0FA04F1180000F0AB
:103C1000BCFA2461C6F138006462A061656584F86D
:103C2000585052465946384600F064FA2060B9F1BF
:103C3000000F01D0C9F80040BDE8F09F30B5114930
:103C400000E011460A688242FBD34B685C1884424C
:103C500003D1406818444860084643681C189442E1
:103C600009D1084C103C2468A24209D052681A4479
:103C700042600A6812680260814200D0086030BD6C
:103C80000460F9E79C00002070B5002441600B4DF2
:103C90000061914206D8D11A8269914206D2011D73
:103CA000686807E09A4203D2994201D3012403E0F5
:103CB000011D286800F06CFA204670BD74000020D9
:103CC00010B5044600F088FAA06B28B15FF000043C
:103CD00000F0A2FA204610BD0124F9E730B589B002
:103CE0003C4D6EE00498002806DADDE90601059AED
:103CF00090470498002864DB069C606910B1201D81
:103D000000F00EFA03A800F0D7F8024604980A283B
:103D100057D2DFE800F00505052D334A05052D33A0
:103D200094F8280040F0010084F828000599A06963
:103D3000059B01442046FFF7A7FF68B3216A204690
:103D4000884794F8280040073BD50020009005984C
:103D5000A169002342181946204601F0A1FAD8B9FA
:103D6000502080F31188BFF34F8FBFF36F8FFEE7B2
:103D700014F8280F20F00100207022E094F82800A9
:103D800040F0010084F828000598A06128B181184E
:103D900013462046FFF778FF13E0502080F3118888
:103DA000BFF34F8FBFF36F8FFEE794F828008107B2
:103DB00003D4204600F044FA03E020F0010084F828
:103DC0002800002204A9A86800F0C2FE002889D1BA
:103DD00009B030BD740000202DE9FC410F460546B6
:103DE00000F00AFC01A800F067F80446019818B139
:103DF00001F0C4F9BDE8FC81254EAFB170680068E0
:103E0000D0B30027291B3A46B06800F097FA01F0BA
:103E1000B5F90028EED11F494FF080500860BFF37C
:103E20004F8FBFF36F8FE5E7A542EBD801F0A6F9FE
:103E300030682746C068C468201D00F071F994F806
:103E40002800410719D5A0692B4641193A4620465A
:103E5000FFF71AFFA8B100200346014600902A464A
:103E6000204601F01DFA60B9502080F31188BFF39D
:103E70004F8FBFF36F8FFEE707E020F0010084F85B
:103E80002800216A20468847B4E70127BAE70000E6
:103E90007400002004ED00E006484168096829B17B
:103EA0004168C968C9684968016370474FF0FF31CC
:103EB000FAE700003800002070B5054601F040F830
:103EC000064E04463069844203D200F009F801200E
:103ED00000E0002028602046346170BD740000209E
:103EE000F8B5194D20E0C068C4680668201D00F0D0
:103EF00017F9216A2046884794F82800400713D50F
:103F0000A0693044B04206D924616060211D286850
:103F100000F03EF908E000200346014600903246DA
:103F2000204601F0BDF938B1286801680029DAD1CE
:103F30006968C5E90010F8BD502080F31188BFF30F
:103F40004F8FBFF36F8FFEE7740000200848406872
:103F5000401C4FF0500080F3118804D0BFF34F8F06
:103F6000BFF36F8FFEE7BFF34F8FBFF36F8FFEE797
:103F7000A4000020074C2068016841B1C0680021FE
:103F8000D0F80000FFF728FFFFF7A8FEF3E70121B4
:103F90000020F7E7740000202DE9F041044600F00E
:103FA0001BF994F9455004F1240609E0606A48B110
:103FB000304601F0ABF808B100F058FA6D1E6DB252
:103FC000002DF3DC4FF0FF3684F8456000F024F953
:103FD00000F002F994F9445004F1100709E0206957
:103FE00048B1384601F092F808B100F03FFA6D1E72
:103FF0006DB2002DF3DC84F84460BDE8F04100F0C0
:104000000BB900002DE9F0410546002700F0F4FA55
:10401000314E306808B9FFF751FDF06805424BD1C9
:10402000C5B3083568070ED005F00700C0F10800D9
:104030000544680707D0502080F31188BFF34F8FE5
:10404000BFF36F8FFEE72DB37068854234D82248E6
:10405000103001460C6801E020460C466168A94218
:1040600002D221680029F7D131688C4224D0076838
:104070002168016060680837411B10290FD9601959
:10408000420708D0502080F31188BFF34F8FBFF351
:104090006F8FFEE710E041606560FFF7CFFD61685C
:1040A0007068401A7060B268904200D2B060F068E8
:1040B00001430020C4E9000101F060F8780707D04F
:1040C000502080F31188BFF34F8FBFF36F8FFEE74F
:1040D0003846BDE8F08100008C00002004490868E3
:1040E00018B10868026D521C02650868704700002C
:1040F0003800002010B5031F4FF080741C601B1F98
:1041000021F001011960191F044B0B6014390A607A
:10411000091F6FF0020244380A6010BD4D3F0008CD
:10412000D0E9013201699A60D0E901235A604A68F6
:10413000824201D182684A60002202610868401E02
:104140000860086870470000034B036003F15C00DF
:104150000860802010607047C40A0020044B036090
:1041600003F15C0008604FF480701060704700003D
:10417000200D002000F108014FF0FF32C0E90112CC
:10418000C160016100210160704700210161704739
:1041900030B50B685A1C02D000F1080202E0026937
:1041A00004E02246546825689D42FAD953684B6062
:1041B00099608A60516008610168491C016030BDE6
:1041C00042684A6093688B609368596091600861A7
:1041D0000168491C01607047502080F31188BFF3CB
:1041E0004F8FBFF36F8F0A494868401C4860012811
:1041F0000CD10848006810F0FF0F07D0502080F362
:104200001188BFF34F8FBFF36F8FFEE77047000039
:10421000A400002004ED00E00849486828B1401ED1
:10422000486001D180F311887047502080F31188D5
:10423000BFF34F8FBFF36F8FFEE70000A400002095
:1042400070B5002827D0144DA0F108046168E86813
:10425000014207D1502080F31188BFF34F8FBFF385
:104260006F8FFEE722683AB1502080F31188BFF3C8
:104270004F8FBFF36F8FFEE78143616000F0BCF9A1
:1042800060686968084468602046FFF7D7FCBDE8AD
:10429000704000F073BF70BD8C0000204FF0E02034
:1042A00000210161816105494FF47A720968B1FB0F
:1042B000F2F1491E4161072101617047340000207D
:1042C00010B5FBF7C7FF114910280ED300F1E0200D
:1042D00090F8F0030A78904207D2502080F31188BA
:1042E000BFF34F8FBFF36F8FFEE7094800688968FF
:1042F00000F4E060884207D9502080F31188BFF3B2
:104300004F8FBFF36F8FFEE710BD0000A4000020A9
:104310000CED00E010B5084B002200BF53F832400E
:104320001CB1521C082AF9D310BD43F8321003EB1C
:10433000C201486010BD0000A804002070B51546F9
:104340000E460446FFF748FF94F944100020491C2C
:1043500001D184F8440094F94510491C01D184F836
:104360004500FFF759FFA06B28B92A46314604F1F2
:10437000240000F099F82046BDE87040FFF70CBE1D
:1043800010B5020014D00F48806B38B1502080F374
:104390001188BFF34F8FBFF36F8FFEE700F02CF94A
:1043A00000211046FFF764FA00F0E8FE002807D16C
:1043B00005494FF080500860BFF34F8FBFF36F8FF8
:1043C00010BD00003800002004ED00E070B5054687
:1043D000FFF702FF1E4C05B92568281DFFF7A0FE58
:1043E000A86A18B105F11800FFF79AFEE06A401CB0
:1043F000E0622068854207D1291D1648FFF7E0FEDC
:10440000E068401CE06007E02069401E206128460B
:10441000FFF739FBFFF740FDFFF7FEFEE0690028DC
:1044200014D02068854211D1A06B38B1502080F3A0
:104430001188BFF34F8FBFF36F8FFEE706494FF030
:1044400080500860BFF34F8FBFF36F8F70BD0000C7
:10445000380000208409002004ED00E002498A6A47
:10446000026049694160704738000020014901201D
:10447000486270473800002010B50C4650B1094919
:1044800009681831FFF784FE2046BDE8104001217D
:10449000FFF7EEB9502080F31188BFF34F8FBFF3C1
:1044A0006F8FFEE73800002070B514460D4668B1E6
:1044B0000A4909681831FFF783FE0CB14FF0FF3548
:1044C00021462846BDE87040FFF7D2B9502080F35E
:1044D0001188BFF34F8FBFF36F8FFEE738000020C6
:1044E00070B504003ED0226DA2B1E06C884200D3CA
:1044F0000146E06A884235D0012A33D11A4D2A6834
:1045000094420FD1502080F31188BFF34F8FBFF337
:104510006F8FFEE7502080F31188BFF34F8FBFF3FA
:104520006F8FFEE7E162A269002A02DBC1F1380168
:10453000A1610E4E00EB8000616906EB80008142B4
:1045400010D1201DFFF7ECFDE06AA969884200D96F
:10455000A86100EB800006EB8000211DBDE87040E3
:10456000FFF72EBE70BD000038000020E8040020D8
:1045700030B587B00024039405AA04A903A80494C5
:10458000FFF7E2FDDDE903010094CDE9011000230E
:1045900015A11748059A00F09AFC164D002868638B
:1045A0001FD000F04DFE012809D0401C19D1502029
:1045B00080F31188BFF34F8FBFF36F8FFEE750205A
:1045C00080F31188BFF34F8FBFF36F8F4FF0FF3031
:1045D00028630120E8616C6107B0BDE8304000F05D
:1045E00045B807B030BD000049444C45000000000C
:1045F000093B0008380000200248816B491C816398
:104600007047000038000020164810B5816B11B1CA
:104610000121416210BD002141628169124A01E01D
:10462000B9B1491E01EB810352F82330002BF7D0BA
:1046300001EB810302EB830202F1080453685B681B
:104640005360A34201D15B685360DA680260816104
:1046500010BD502080F31188BFF34F8FBFF36F8FD1
:10466000FEE7000038000020E80400201CB53748B1
:104670000168374A914207D1502080F31188BFF377
:104680004F8FBFF36F8FFEE700683149491E8842A4
:1046900007D1502080F31188BFF34F8FBFF36F8F86
:1046A000FEE72C4908780190FF20087008788DF803
:1046B00000009DF800009DF8002000F0F0009042FE
:1046C00007D0502080F31188BFF34F8FBFF36F8F57
:1046D000FEE79DF80000204B00F050001870072006
:1046E000986005E09DF8002052008DF80020401EE3
:1046F0009DF800201206F5D49860032807D05020BA
:1047000080F31188BFF34F8FBFF36F8FFEE74FF435
:1047100040709860019808700C482030016841F49E
:1047200070010160016841F070410160FFF7B6FD62
:1047300000205860FBF756FD0848016841F04041F1
:104740000160FBF73BFD00201CBD000000ED00E018
:1047500071C20F4100E400E0A400002034EF00E04B
:10476000F8B517460E46050014D0DEB105FB06F07D
:104770005030FFF747FC04000AD0002084F84600C0
:1047800004F150023B46314628460094FFF7ECF90D
:104790002046F8BD502080F31188BFF34F8FBFF340
:1047A0006F8FFEE70020E3E738B5049D18B153B1E1
:1047B000CAB181B120E0502080F31188BFF34F8F40
:1047C000BFF36F8FFEE7502080F31188BFF34F8F48
:1047D000BFF36F8FFEE7502080F31188BFF34F8F38
:1047E000BFF36F8FFEE739B1502080F31188BFF31C
:1047F0004F8FBFF36F8FFEE750241C46012384F8D0
:1048000046302B460094FFF7AFF9204638BD000034
:1048100070B50D46040025D0FFF7DEFCD4E90F206B
:10482000216802FB0011A1600021A1632168616081
:104830000A46D4E90F01401E00FB0121E160214638
:104840004FF0FF3001F8440F487004F110008DB1B3
:10485000FFF790FC04F12400FFF78CFCFFF7DCFC71
:10486000012070BD502080F31188BFF34F8FBFF33C
:104870006F8FFEE721690029F0D000F047FC002887
:10488000ECD004494FF080500860BFF34F8FBFF366
:104890006F8FE3E704ED00E02DE9FF4782B01D468E
:1048A0008A464FF00008040003D0BAF1000F08D088
:1048B00011E0502080F31188BFF34F8FBFF36F8F4B
:1048C000FEE7206C38B1502080F31188BFF34F8F82
:1048D000BFF36F8FFEE7022D0AD1E06B012807D0EE
:1048E000502080F31188BFF34F8FBFF36F8FFEE727
:1048F00000F018FB3F4F4FF000094FF0805648B9C9
:10490000049838B1502080F31188BFF34F8FBFF364
:104910006F8FFEE7FFF760FCA06BE16B884207D367
:10492000022D05D00498D0B1B8F1000F1AD01EE0C6
:104930002A4651462046FFF770F8616A19B104F122
:10494000240000F0E3FB20B13E60BFF34F8FBFF3C4
:104950006F8FFFF761FC012006B0BDE8F087FFF71D
:104960005BFC22E06846FFF779FD4FF00108FFF796
:1049700053FCFFF741FEFFF72FFC94F94400401C65
:1049800001D184F8449094F94500401C01D184F889
:104990004590FFF741FC04A9684600F031FA30B1B8
:1049A0002046FFF7F9FA00F0E9FB0020D4E7FFF713
:1049B00013FCA06BE16B884213D1FFF72DFC04F1CF
:1049C00010000499FFF758FD2046FFF7E5FA00F0C4
:1049D000D5FB00289ED13E60BFF34F8FBFF36F8F92
:1049E00098E7FFF719FC2046FFF7D6FA00F0C6FB60
:1049F00090E7000004ED00E02DE9F0471F469046E7
:104A00008946040003D0B9F1000F08D011E050200E
:104A100080F31188BFF34F8FBFF36F8FFEE7206CD9
:104A200038B1502080F31188BFF34F8FBFF36F8FE1
:104A3000FEE7022F0AD1E06B012807D0502080F357
:104A40001188BFF34F8FBFF36F8FFEE7FFF738FC7E
:104A50005020EFF3118680F31188BFF34F8FBFF31F
:104A60006F8FA06BE16B884206D3022F04D0002029
:104A700086F31188BDE8F08794F945503A464946D7
:104A80002046FEF7CAFF681C04D06D1C84F8455010
:104A90000120EDE7606A0028FAD004F1240000F05C
:104AA00035FB0028F4D0B8F1000FF1D00121C8F88F
:104AB0000010EDE770B50E46040009D0206C78B107
:104AC000502080F31188BFF34F8FBFF36F8FFEE745
:104AD000502080F31188BFF34F8FBFF36F8FFEE735
:104AE000206848B9A06838B1502080F31188BFF31E
:104AF0004F8FBFF36F8FFEE7FFF7E2FB5020EFF31E
:104B0000118580F31188BFF34F8FBFF36F8FA16BB7
:104B1000E06B884218D994F94500491CA163411CF7
:104B200004D0401C84F8450001200EE0606A002893
:104B3000FAD004F1240000F0E9FA0028F4D0002EA5
:104B4000F2D001203060EFE7002085F3118870BDBE
:104B50002DE9F747002683B08A46040003D0BAF156
:104B6000000F08D011E0502080F31188BFF34F8F61
:104B7000BFF36F8FFEE7206C38B1502080F31188AF
:104B8000BFF34F8FBFF36F8FFEE700F0CBF9DFF875
:104B9000F4804FF000094FF0805748B9059838B1BC
:104BA000502080F31188BFF34F8FBFF36F8FFEE764
:104BB000FFF712FBA56BC5B151462046FEF71AFF61
:104BC0006D1EA563206950B104F1100000F09EFA3B
:104BD00028B1C8F80070BFF34F8FBFF36F8FFFF796
:104BE0001BFB012006B0BDE8F087059808B11EB197
:104BF00006E0FFF711FB27E06846FFF72FFC0126D0
:104C0000FFF70AFBFFF7F8FCFFF7E6FA94F9440018
:104C1000401C01D184F8449094F94500401C01D116
:104C200084F84590FFF7F8FA05A9684600F0E8F81F
:104C3000002820460AD0FFF7AFF900F09FFA20467F
:104C4000FFF73EF80028B3D00020CBE7FFF738F895
:104C500090B104F124000599FFF70EFC2046FFF700
:104C60009BF900F08BFA0028A2D1C8F80070BFF3BE
:104C70004F8FBFF36F8F9BE72046FFF78DF900F052
:104C80007DFA95E704ED00E02DE9F343002683B0BB
:104C90000400354609D0206C78B1502080F311888B
:104CA000BFF34F8FBFF36F8FFEE7502080F3118863
:104CB000BFF34F8FBFF36F8FFEE700F033F9DFF8DC
:104CC0003C814FF000094FF0805748B9049838B143
:104CD000502080F31188BFF34F8FBFF36F8FFEE733
:104CE000FFF77AFAA06BC8B1401EA063206810B924
:104CF000FFF7F4F9A060206950B104F1100000F052
:104D000005FA28B1C8F80070BFF34F8FBFF36F8F5B
:104D1000FFF782FA012005B0BDE8F083049808B1DE
:104D200066B10FE03DB1502080F31188BFF34F8F83
:104D3000BFF36F8FFEE7FFF76FFA5DE06846FFF79E
:104D40008DFB0126FFF768FAFFF756FCFFF744FAE0
:104D500094F94400401C01D184F8449094F9450032
:104D6000401C01D184F84590FFF756FA04A9684623
:104D700000F046F80028204612D0FFF70DF900F0A9
:104D8000FDF92046FEF79CFF0028A9D09DB3FFF750
:104D900023FA606A50B3206B0068C0F1380126E046
:104DA000FEF78EFFE0B1206838B9FFF715FAA0686A
:104DB00000F070F90546FFF72FFA04F1240004997A
:104DC000FFF75AFB2046FFF7E7F800F0D7F9002875
:104DD00086D1C8F80070BFF34F8FBFF36F8F7FE7A6
:104DE0002046FFF7D9F800F0C9F979E70021A0685B
:104DF000FFF776FB9FE7FFE700208CE704ED00E07C
:104E00002DE9F0410C46050011D0C4B1FFF7E4F9DB
:104E1000174B5A696E682068911B471C17D02F6882
:104E20009B6A9F4219D0964217D8012410E0502067
:104E300080F31188BFF34F8FBFF36F8FFEE75020D1
:104E400080F31188BFF34F8FBFF36F8FFEE700240D
:104E5000FFF7E2F92046BDE8F081884205D9401A03
:104E600020602846FFF7FAFAF1E700202060DCE72F
:104E7000380000202DE9FF5F8346DDE90E87994663
:104E800016468A469000FFF7BDF805001CD05C204E
:104E9000FFF7B8F8040014D00020256384F8590007
:104EA000CDE90240CDE900874B463246514658468F
:104EB000FEF76CFE2046FEF709FD012004B0BDE8B8
:104EC000F09F2846FFF7BCF94FF0FF30F6E7F0B54A
:104ED00085B0DDE90B640A9DA6B1DCB15C270097C3
:104EE0002663022684F85960002604AFCDE9024605
:104EF000CDE90057FEF74AFE2046FEF7E7FC04988E
:104F000005B0F0BD502080F31188BFF34F8FBFF381
:104F10006F8FFEE7502080F31188BFF34F8FBFF3F0
:104F20006F8FFEE70548C16919B1806B18B1002089
:104F300070470120704702207047000038000020B1
:104F40000148406970470000380000202DE9F04119
:104F50002E4C0027A06B40B1206A401C2062606A82
:104F600000B101273846BDE8F0816669761C6661AC
:104F700013D16068006838B1502080F31188BFF306
:104F80004F8FBFF36F8FFEE76068A1686160A0601C
:104F9000A06A401CA062FEF77FFF206BDFF87080E4
:104FA000864209D36068006880B16068C068C568DF
:104FB000686886420DD220632068C06A00EB8001D9
:104FC00058F821000128CAD90127C8E74FF0FF305F
:104FD000F1E7281DFFF7A4F8A86A18B105F1180039
:104FE000FFF79EF8E86AA169884200D9A06100EB4A
:104FF000800108EB8100291DFFF7E2F8E86A2168CB
:10500000C96A8842CED30127CCE7000038000020CF
:10501000E804002070B504004FF0000133D01B4DB0
:105020002868844207D0502080F31188BFF34F8F47
:10503000BFF36F8FFEE7206D38B1401E2065E36C33
:10504000E26A9A421FD040B11DE0502080F31188DF
:10505000BFF34F8FBFF36F8FFEE7201DFFF760F8A0
:10506000E06CE062C0F13800A061E06AA9698842A2
:1050700000D9A861064900EB800001EB8000211DEA
:10508000FFF79EF80121084670BD0000380000209F
:10509000E804002070B504004FF000002BD0194D3B
:1050A000E16A2A68D26A914226D2A069002804DB0C
:1050B0002868C06AC0F13800A061134E01EB81017D
:1050C000606906EB8101884211D1201DFFF728F8A5
:1050D0002868C06AE062A969884200D9A86100EB2B
:1050E000800006EB8000211DFFF76AF802E02868C7
:1050F000C06AE062012070BDE16C2A68D26A914208
:10510000F8D370BD38000020E804002070B5C068F6
:10511000C46854B104F118000646FFF701F8144DB5
:10512000A86B50B13146134815E0502080F3118828
:10513000BFF34F8FBFF36F8FFEE7201DFEF7F0FF29
:10514000E06AA969884200D9A8610B4900EB800098
:1051500001EB8000211DFFF733F8E06A2968C96A76
:10516000884202D90120686270BD002070BD000035
:105170003800002070090020E80400202DE9F047E5
:105180002C4D00242746A86B38B1FFF725F8A86BF3
:10519000401EA863A86B40B146E0502080F3118800
:1051A000BFF34F8FBFF36F8FFEE72969224E0120B7
:1051B000D1B3A6F5916980463068E0B1F068C46863
:1051C00004F11800FEF7ACFF201DFEF7A9FFE06A0E
:1051D000A969884200D9A86100EB800109EB810030
:1051E000211DFEF7EDFFE06A2968C96A8842E3D312
:1051F000C5F82480E0E70CB1FEF74EFE2C6A4CB1F6
:105200004FEA0806FFF7A2FE00B16E62641EF9D1F4
:1052100000202862686A38B1084901273807086009
:10522000BFF34F8FBFF36F8FFEF7F6FF3846BDE831
:10523000F0870000380000207009002004ED00E035
:1052400010B586B0FEF7AAFB114CA068B8B10020DB
:105250000390049005AA04A903A8FEF77FFFDDE9E7
:10526000032102208DE8070000230AA10B48059ABC
:10527000FFF72DFEE06010B106B0012010BD5020F8
:1052800080F31188BFF34F8FBFF36F8FFEE70000ED
:1052900074000020546D722053766300753F00083F
:1052A0002DE9FF411E46134602000A9D4FF0000003
:1052B00016D0144CA768002F0FD0CDE9001302922E
:1052C000062917DAFFF72EFE02284FF000030FD051
:1052D00000226946A068FFF7DFFA04B0BDE8F0815C
:1052E000502080F31188BFF34F8FBFF36F8FFEE71D
:1052F0002A46EEE70023324669463846FFF77CFB34
:10530000EBE7000074000020D85300080000000004
:10531000000000000000000000000000000200008B
:10532000180000000000000000000000C453000846
:10533000000000000000000000000000000000006D
:105340000002000008000000000000000000000053
:10535000B85300080000000000000000000000003A
:105360000000000000020000080000000000000033
:1053700000000000CC530008000000000000000006
:105380000000000000000000000200000800000013
:1053900000000000000000000006101600061016B5
:1053A00000000000000000000102030406070809D5
:1053B00000000000010203044B65657053746174C2
:1053C00065000000426C696E6B0000004669656C08
:1053D000645461736B00000064656661756C74549D
:1053E00061736B000454000800000020B00000004E
:1053F000FA2F0008B4540008B0000020D05000007C
:105400000A3000080000000000000000000000005A
:10541000000000000000000000000000000000008C
:10542000000000000000000000000000010000007B
:1054300010000000000000000024F4000000000044
:10544000000000000000000000000000000000005C
:10545000000000000000000000000000000000004C
:10546000000000000000000000000000000000003C
:10547000000000000000000000000000000000002C
:10548000000000000000000000000000000000001C
:10549000000000000000000000000000000000000C
:1054A000000000000000000000000000AAAAAAAA54
:0454B00000000000F8
:040000050800018965
:00000001FF
